{
  "_format": "hh-sol-artifact-1",
  "contractName": "NFT",
  "sourceName": "src/backend/contracts/NFT.sol",
  "abi": [
    {
      "inputs": [
        {
          "internalType": "address",
          "name": "tokenAddress",
          "type": "address"
        },
        {
          "internalType": "uint64",
          "name": "subscriptionId",
          "type": "uint64"
        }
      ],
      "stateMutability": "nonpayable",
      "type": "constructor"
    },
    {
      "inputs": [
        {
          "internalType": "address",
          "name": "have",
          "type": "address"
        },
        {
          "internalType": "address",
          "name": "want",
          "type": "address"
        }
      ],
      "name": "OnlyCoordinatorCanFulfill",
      "type": "error"
    },
    {
      "anonymous": false,
      "inputs": [
        {
          "indexed": true,
          "internalType": "address",
          "name": "owner",
          "type": "address"
        },
        {
          "indexed": true,
          "internalType": "address",
          "name": "approved",
          "type": "address"
        },
        {
          "indexed": true,
          "internalType": "uint256",
          "name": "tokenId",
          "type": "uint256"
        }
      ],
      "name": "Approval",
      "type": "event"
    },
    {
      "anonymous": false,
      "inputs": [
        {
          "indexed": true,
          "internalType": "address",
          "name": "owner",
          "type": "address"
        },
        {
          "indexed": true,
          "internalType": "address",
          "name": "operator",
          "type": "address"
        },
        {
          "indexed": false,
          "internalType": "bool",
          "name": "approved",
          "type": "bool"
        }
      ],
      "name": "ApprovalForAll",
      "type": "event"
    },
    {
      "anonymous": false,
      "inputs": [
        {
          "indexed": false,
          "internalType": "address",
          "name": "user",
          "type": "address"
        }
      ],
      "name": "MintRequestSent",
      "type": "event"
    },
    {
      "anonymous": false,
      "inputs": [
        {
          "indexed": false,
          "internalType": "address",
          "name": "user",
          "type": "address"
        },
        {
          "indexed": false,
          "internalType": "uint256",
          "name": "tokenId",
          "type": "uint256"
        }
      ],
      "name": "MintSuccessful",
      "type": "event"
    },
    {
      "anonymous": false,
      "inputs": [
        {
          "indexed": true,
          "internalType": "address",
          "name": "previousOwner",
          "type": "address"
        },
        {
          "indexed": true,
          "internalType": "address",
          "name": "newOwner",
          "type": "address"
        }
      ],
      "name": "OwnershipTransferred",
      "type": "event"
    },
    {
      "anonymous": false,
      "inputs": [
        {
          "indexed": false,
          "internalType": "address",
          "name": "user",
          "type": "address"
        },
        {
          "indexed": false,
          "internalType": "uint256",
          "name": "tokenId",
          "type": "uint256"
        }
      ],
      "name": "Redeem",
      "type": "event"
    },
    {
      "anonymous": false,
      "inputs": [
        {
          "indexed": true,
          "internalType": "address",
          "name": "from",
          "type": "address"
        },
        {
          "indexed": true,
          "internalType": "address",
          "name": "to",
          "type": "address"
        },
        {
          "indexed": true,
          "internalType": "uint256",
          "name": "tokenId",
          "type": "uint256"
        }
      ],
      "name": "Transfer",
      "type": "event"
    },
    {
      "inputs": [
        {
          "internalType": "address",
          "name": "user",
          "type": "address"
        },
        {
          "internalType": "uint256",
          "name": "_tokenId",
          "type": "uint256"
        }
      ],
      "name": "airdrop",
      "outputs": [],
      "stateMutability": "nonpayable",
      "type": "function"
    },
    {
      "inputs": [
        {
          "internalType": "address",
          "name": "user",
          "type": "address"
        },
        {
          "internalType": "uint256",
          "name": "_random",
          "type": "uint256"
        }
      ],
      "name": "airdropRandom",
      "outputs": [],
      "stateMutability": "nonpayable",
      "type": "function"
    },
    {
      "inputs": [],
      "name": "amountMintPerAccount",
      "outputs": [
        {
          "internalType": "uint256",
          "name": "",
          "type": "uint256"
        }
      ],
      "stateMutability": "view",
      "type": "function"
    },
    {
      "inputs": [
        {
          "internalType": "address",
          "name": "to",
          "type": "address"
        },
        {
          "internalType": "uint256",
          "name": "tokenId",
          "type": "uint256"
        }
      ],
      "name": "approve",
      "outputs": [],
      "stateMutability": "nonpayable",
      "type": "function"
    },
    {
      "inputs": [
        {
          "internalType": "address",
          "name": "owner",
          "type": "address"
        }
      ],
      "name": "balanceOf",
      "outputs": [
        {
          "internalType": "uint256",
          "name": "",
          "type": "uint256"
        }
      ],
      "stateMutability": "view",
      "type": "function"
    },
    {
      "inputs": [],
      "name": "baseUri",
      "outputs": [
        {
          "internalType": "string",
          "name": "",
          "type": "string"
        }
      ],
      "stateMutability": "view",
      "type": "function"
    },
    {
      "inputs": [],
      "name": "contractURI",
      "outputs": [
        {
          "internalType": "string",
          "name": "",
          "type": "string"
        }
      ],
      "stateMutability": "pure",
      "type": "function"
    },
    {
      "inputs": [
        {
          "internalType": "uint256",
          "name": "tokenId",
          "type": "uint256"
        }
      ],
      "name": "getApproved",
      "outputs": [
        {
          "internalType": "address",
          "name": "",
          "type": "address"
        }
      ],
      "stateMutability": "view",
      "type": "function"
    },
    {
      "inputs": [],
      "name": "getAvailableTokensCount",
      "outputs": [
        {
          "internalType": "uint256",
          "name": "",
          "type": "uint256"
        }
      ],
      "stateMutability": "view",
      "type": "function"
    },
    {
      "inputs": [],
      "name": "getPrice",
      "outputs": [
        {
          "internalType": "uint256",
          "name": "",
          "type": "uint256"
        }
      ],
      "stateMutability": "view",
      "type": "function"
    },
    {
      "inputs": [],
      "name": "getRedeemedTokensTokenId",
      "outputs": [
        {
          "internalType": "uint16[]",
          "name": "",
          "type": "uint16[]"
        }
      ],
      "stateMutability": "view",
      "type": "function"
    },
    {
      "inputs": [],
      "name": "getRedeemedTokensUser",
      "outputs": [
        {
          "internalType": "address[]",
          "name": "",
          "type": "address[]"
        }
      ],
      "stateMutability": "view",
      "type": "function"
    },
    {
      "inputs": [],
      "name": "initializeTokens",
      "outputs": [],
      "stateMutability": "nonpayable",
      "type": "function"
    },
    {
      "inputs": [
        {
          "internalType": "address",
          "name": "owner",
          "type": "address"
        },
        {
          "internalType": "address",
          "name": "operator",
          "type": "address"
        }
      ],
      "name": "isApprovedForAll",
      "outputs": [
        {
          "internalType": "bool",
          "name": "",
          "type": "bool"
        }
      ],
      "stateMutability": "view",
      "type": "function"
    },
    {
      "inputs": [],
      "name": "max_supply",
      "outputs": [
        {
          "internalType": "uint16",
          "name": "",
          "type": "uint16"
        }
      ],
      "stateMutability": "view",
      "type": "function"
    },
    {
      "inputs": [],
      "name": "mint",
      "outputs": [],
      "stateMutability": "nonpayable",
      "type": "function"
    },
    {
      "inputs": [],
      "name": "name",
      "outputs": [
        {
          "internalType": "string",
          "name": "",
          "type": "string"
        }
      ],
      "stateMutability": "view",
      "type": "function"
    },
    {
      "inputs": [],
      "name": "owner",
      "outputs": [
        {
          "internalType": "address",
          "name": "",
          "type": "address"
        }
      ],
      "stateMutability": "view",
      "type": "function"
    },
    {
      "inputs": [
        {
          "internalType": "uint256",
          "name": "tokenId",
          "type": "uint256"
        }
      ],
      "name": "ownerOf",
      "outputs": [
        {
          "internalType": "address",
          "name": "",
          "type": "address"
        }
      ],
      "stateMutability": "view",
      "type": "function"
    },
    {
      "inputs": [],
      "name": "price",
      "outputs": [
        {
          "internalType": "uint256",
          "name": "",
          "type": "uint256"
        }
      ],
      "stateMutability": "view",
      "type": "function"
    },
    {
      "inputs": [
        {
          "internalType": "uint256",
          "name": "requestId",
          "type": "uint256"
        },
        {
          "internalType": "uint256[]",
          "name": "randomWords",
          "type": "uint256[]"
        }
      ],
      "name": "rawFulfillRandomWords",
      "outputs": [],
      "stateMutability": "nonpayable",
      "type": "function"
    },
    {
      "inputs": [
        {
          "internalType": "uint16",
          "name": "_tokenId",
          "type": "uint16"
        }
      ],
      "name": "redeemAndBurn",
      "outputs": [],
      "stateMutability": "nonpayable",
      "type": "function"
    },
    {
      "inputs": [],
      "name": "renounceOwnership",
      "outputs": [],
      "stateMutability": "nonpayable",
      "type": "function"
    },
    {
      "inputs": [
        {
          "internalType": "uint256",
          "name": "",
          "type": "uint256"
        }
      ],
      "name": "s_randomWords",
      "outputs": [
        {
          "internalType": "uint256",
          "name": "",
          "type": "uint256"
        }
      ],
      "stateMutability": "view",
      "type": "function"
    },
    {
      "inputs": [],
      "name": "s_requestId",
      "outputs": [
        {
          "internalType": "uint256",
          "name": "",
          "type": "uint256"
        }
      ],
      "stateMutability": "view",
      "type": "function"
    },
    {
      "inputs": [
        {
          "internalType": "address",
          "name": "from",
          "type": "address"
        },
        {
          "internalType": "address",
          "name": "to",
          "type": "address"
        },
        {
          "internalType": "uint256",
          "name": "tokenId",
          "type": "uint256"
        }
      ],
      "name": "safeTransferFrom",
      "outputs": [],
      "stateMutability": "nonpayable",
      "type": "function"
    },
    {
      "inputs": [
        {
          "internalType": "address",
          "name": "from",
          "type": "address"
        },
        {
          "internalType": "address",
          "name": "to",
          "type": "address"
        },
        {
          "internalType": "uint256",
          "name": "tokenId",
          "type": "uint256"
        },
        {
          "internalType": "bytes",
          "name": "_data",
          "type": "bytes"
        }
      ],
      "name": "safeTransferFrom",
      "outputs": [],
      "stateMutability": "nonpayable",
      "type": "function"
    },
    {
      "inputs": [
        {
          "internalType": "uint256",
          "name": "_amountMintPerAccount",
          "type": "uint256"
        }
      ],
      "name": "setAmountMintPerAccount",
      "outputs": [],
      "stateMutability": "nonpayable",
      "type": "function"
    },
    {
      "inputs": [
        {
          "internalType": "address",
          "name": "operator",
          "type": "address"
        },
        {
          "internalType": "bool",
          "name": "approved",
          "type": "bool"
        }
      ],
      "name": "setApprovalForAll",
      "outputs": [],
      "stateMutability": "nonpayable",
      "type": "function"
    },
    {
      "inputs": [
        {
          "internalType": "string",
          "name": "_baseUri",
          "type": "string"
        }
      ],
      "name": "setBaseUri",
      "outputs": [],
      "stateMutability": "nonpayable",
      "type": "function"
    },
    {
      "inputs": [
        {
          "internalType": "uint256",
          "name": "_price",
          "type": "uint256"
        }
      ],
      "name": "setPrice",
      "outputs": [],
      "stateMutability": "nonpayable",
      "type": "function"
    },
    {
      "inputs": [
        {
          "internalType": "bytes4",
          "name": "interfaceId",
          "type": "bytes4"
        }
      ],
      "name": "supportsInterface",
      "outputs": [
        {
          "internalType": "bool",
          "name": "",
          "type": "bool"
        }
      ],
      "stateMutability": "view",
      "type": "function"
    },
    {
      "inputs": [],
      "name": "symbol",
      "outputs": [
        {
          "internalType": "string",
          "name": "",
          "type": "string"
        }
      ],
      "stateMutability": "view",
      "type": "function"
    },
    {
      "inputs": [],
      "name": "token",
      "outputs": [
        {
          "internalType": "contract ERC20",
          "name": "",
          "type": "address"
        }
      ],
      "stateMutability": "view",
      "type": "function"
    },
    {
      "inputs": [
        {
          "internalType": "uint256",
          "name": "_tokenId",
          "type": "uint256"
        }
      ],
      "name": "tokenURI",
      "outputs": [
        {
          "internalType": "string",
          "name": "",
          "type": "string"
        }
      ],
      "stateMutability": "view",
      "type": "function"
    },
    {
      "inputs": [
        {
          "internalType": "address",
          "name": "from",
          "type": "address"
        },
        {
          "internalType": "address",
          "name": "to",
          "type": "address"
        },
        {
          "internalType": "uint256",
          "name": "tokenId",
          "type": "uint256"
        }
      ],
      "name": "transferFrom",
      "outputs": [],
      "stateMutability": "nonpayable",
      "type": "function"
    },
    {
      "inputs": [
        {
          "internalType": "address",
          "name": "newOwner",
          "type": "address"
        }
      ],
      "name": "transferOwnership",
      "outputs": [],
      "stateMutability": "nonpayable",
      "type": "function"
    },
    {
      "inputs": [],
      "name": "uriSuffix",
      "outputs": [
        {
          "internalType": "string",
          "name": "",
          "type": "string"
        }
      ],
      "stateMutability": "view",
      "type": "function"
    },
    {
      "inputs": [],
      "name": "withdraw",
      "outputs": [],
      "stateMutability": "nonpayable",
      "type": "function"
    }
  ],
  "bytecode": "0x60a0604052604051806060016040528060368152602001620051e460369139600990805190602001906200003592919062000437565b50611388600a60006101000a81548161ffff021916908361ffff1602179055506000600b55670de0b6b3a7640000600c5573271682deb8c4e0901d1a1550ad2e64d568e69909601160006101000a81548173ffffffffffffffffffffffffffffffffffffffff021916908373ffffffffffffffffffffffffffffffffffffffff1602179055507f8af398995b04c28e9951adb9721ef74c74f93e6a478f39e7e0777be13527e7ef60001b60125562030d40601360006101000a81548163ffffffff021916908363ffffffff1602179055506003601360046101000a81548161ffff021916908361ffff1602179055506001601360066101000a81548163ffffffff021916908363ffffffff1602179055503480156200015357600080fd5b506040516200521a3803806200521a833981810160405281019062000179919062000515565b601160009054906101000a900473ffffffffffffffffffffffffffffffffffffffff166040518060400160405280600c81526020017f4f6c64204661726d204d616e00000000000000000000000000000000000000008152506040518060400160405280600381526020017f4f464d000000000000000000000000000000000000000000000000000000000081525081600090805190602001906200022092919062000437565b5080600190805190602001906200023992919062000437565b5050506200025c620002506200036960201b60201c565b6200037160201b60201c565b8073ffffffffffffffffffffffffffffffffffffffff1660808173ffffffffffffffffffffffffffffffffffffffff1660601b815250505081600860006101000a81548173ffffffffffffffffffffffffffffffffffffffff021916908373ffffffffffffffffffffffffffffffffffffffff160217905550601160009054906101000a900473ffffffffffffffffffffffffffffffffffffffff16601060086101000a81548173ffffffffffffffffffffffffffffffffffffffff021916908373ffffffffffffffffffffffffffffffffffffffff16021790555080601060006101000a81548167ffffffffffffffff021916908367ffffffffffffffff160217905550505062000637565b600033905090565b6000600760009054906101000a900473ffffffffffffffffffffffffffffffffffffffff16905081600760006101000a81548173ffffffffffffffffffffffffffffffffffffffff021916908373ffffffffffffffffffffffffffffffffffffffff1602179055508173ffffffffffffffffffffffffffffffffffffffff168173ffffffffffffffffffffffffffffffffffffffff167f8be0079c531659141344cd1fd0a4f28419497f9722a3daafe3b4186f6b6457e060405160405180910390a35050565b82805462000445906200059e565b90600052602060002090601f016020900481019282620004695760008555620004b5565b82601f106200048457805160ff1916838001178555620004b5565b82800160010185558215620004b5579182015b82811115620004b457825182559160200191906001019062000497565b5b509050620004c49190620004c8565b5090565b5b80821115620004e3576000816000905550600101620004c9565b5090565b600081519050620004f88162000603565b92915050565b6000815190506200050f816200061d565b92915050565b600080604083850312156200052957600080fd5b60006200053985828601620004e7565b92505060206200054c85828601620004fe565b9150509250929050565b600062000563826200056a565b9050919050565b600073ffffffffffffffffffffffffffffffffffffffff82169050919050565b600067ffffffffffffffff82169050919050565b60006002820490506001821680620005b757607f821691505b60208210811415620005ce57620005cd620005d4565b5b50919050565b7f4e487b7100000000000000000000000000000000000000000000000000000000600052602260045260246000fd5b6200060e8162000556565b81146200061a57600080fd5b50565b62000628816200058a565b81146200063457600080fd5b50565b60805160601c614b876200065d60003960008181610d8d0152610de10152614b876000f3fe608060405234801561001057600080fd5b506004361061023d5760003560e01c80638ba4cc3c1161013b578063b6375dd3116100b8578063e985e9c51161007c578063e985e9c514610630578063ef6b85d414610660578063f2fde38b1461067e578063f6eaffc81461069a578063fc0c546a146106ca5761023d565b8063b6375dd31461059e578063b88d4fde146105a8578063c87b56dd146105c4578063e89e106a146105f4578063e8a3d485146106125761023d565b80639abc8320116100ff5780639abc83201461050c578063a035b1fe1461052a578063a0bcfc7f14610548578063a22cb46514610564578063a827b5ff146105805761023d565b80638ba4cc3c1461047a5780638da5cb5b1461049657806391b7f5ed146104b457806395d89b41146104d057806398d5fdca146104ee5761023d565b80632dcd52f2116101c95780636b88c8de1161018d5780636b88c8de146103e857806370a0823114610406578063715018a6146104365780637587fe9d146104405780638a333b501461045c5761023d565b80632dcd52f2146103565780633ccfd60b1461037457806342842e0e1461037e5780635503a0e81461039a5780636352211e146103b85761023d565b8063112966601161021057806311296660146102dc5780631249c58b146102f85780631a8fed49146103025780631fe543e31461031e57806323b872dd1461033a5761023d565b806301ffc9a71461024257806306fdde0314610272578063081812fc14610290578063095ea7b3146102c0575b600080fd5b61025c6004803603810190610257919061348d565b6106e8565b6040516102699190613c94565b60405180910390f35b61027a6107ca565b6040516102879190613d1d565b60405180910390f35b6102aa60048036038101906102a5919061354d565b61085c565b6040516102b79190613b37565b60405180910390f35b6102da60048036038101906102d59190613428565b6108e1565b005b6102f660048036038101906102f1919061354d565b6109f9565b005b610300610a7f565b005b61031c60048036038101906103179190613524565b610c1b565b005b6103386004803603810190610333919061359f565b610d8b565b005b610354600480360381019061034f9190613322565b610e4b565b005b61035e610eab565b60405161036b9190613ffa565b60405180910390f35b61037c610eb8565b005b61039860048036038101906103939190613322565b610f7d565b005b6103a2610f9d565b6040516103af9190613d1d565b60405180910390f35b6103d260048036038101906103cd919061354d565b610fd6565b6040516103df9190613b37565b60405180910390f35b6103f0611088565b6040516103fd9190613c72565b60405180910390f35b610420600480360381019061041b91906132bd565b611108565b60405161042d9190613ffa565b60405180910390f35b61043e6111c0565b005b61045a60048036038101906104559190613428565b611248565b005b6104646112d2565b6040516104719190613fdf565b60405180910390f35b610494600480360381019061048f9190613428565b6112e6565b005b61049e6113a9565b6040516104ab9190613b37565b60405180910390f35b6104ce60048036038101906104c9919061354d565b6113d3565b005b6104d8611459565b6040516104e59190613d1d565b60405180910390f35b6104f66114eb565b6040516105039190613ffa565b60405180910390f35b6105146114f5565b6040516105219190613d1d565b60405180910390f35b610532611583565b60405161053f9190613ffa565b60405180910390f35b610562600480360381019061055d91906134df565b611589565b005b61057e600480360381019061057991906133ec565b61161b565b005b610588611631565b6040516105959190613ffa565b60405180910390f35b6105a6611637565b005b6105c260048036038101906105bd9190613371565b61179f565b005b6105de60048036038101906105d9919061354d565b611801565b6040516105eb9190613d1d565b60405180910390f35b6105fc6118df565b6040516106099190613ffa565b60405180910390f35b61061a6118e5565b6040516106279190613d1d565b60405180910390f35b61064a600480360381019061064591906132e6565b611905565b6040516106579190613c94565b60405180910390f35b610668611999565b6040516106759190613c50565b60405180910390f35b610698600480360381019061069391906132bd565b611a27565b005b6106b460048036038101906106af919061354d565b611b1f565b6040516106c19190613ffa565b60405180910390f35b6106d2611b43565b6040516106df9190613d02565b60405180910390f35b60007f80ac58cd000000000000000000000000000000000000000000000000000000007bffffffffffffffffffffffffffffffffffffffffffffffffffffffff1916827bffffffffffffffffffffffffffffffffffffffffffffffffffffffff191614806107b357507f5b5e139f000000000000000000000000000000000000000000000000000000007bffffffffffffffffffffffffffffffffffffffffffffffffffffffff1916827bffffffffffffffffffffffffffffffffffffffffffffffffffffffff1916145b806107c357506107c282611b69565b5b9050919050565b6060600080546107d990614367565b80601f016020809104026020016040519081016040528092919081815260200182805461080590614367565b80156108525780601f1061082757610100808354040283529160200191610852565b820191906000526020600020905b81548152906001019060200180831161083557829003601f168201915b5050505050905090565b600061086782611bd3565b6108a6576040517f08c379a000000000000000000000000000000000000000000000000000000000815260040161089d90613edf565b60405180910390fd5b6004600083815260200190815260200160002060009054906101000a900473ffffffffffffffffffffffffffffffffffffffff169050919050565b60006108ec82610fd6565b90508073ffffffffffffffffffffffffffffffffffffffff168373ffffffffffffffffffffffffffffffffffffffff16141561095d576040517f08c379a000000000000000000000000000000000000000000000000000000000815260040161095490613f5f565b60405180910390fd5b8073ffffffffffffffffffffffffffffffffffffffff1661097c611c3f565b73ffffffffffffffffffffffffffffffffffffffff1614806109ab57506109aa816109a5611c3f565b611905565b5b6109ea576040517f08c379a00000000000000000000000000000000000000000000000000000000081526004016109e190613e3f565b60405180910390fd5b6109f48383611c47565b505050565b610a01611c3f565b73ffffffffffffffffffffffffffffffffffffffff16610a1f6113a9565b73ffffffffffffffffffffffffffffffffffffffff1614610a75576040517f08c379a0000000000000000000000000000000000000000000000000000000008152600401610a6c90613eff565b60405180910390fd5b80600b8190555050565b6000600d8054905011610ac7576040517f08c379a0000000000000000000000000000000000000000000000000000000008152600401610abe90613fbf565b60405180910390fd5b6000600b541480610ae15750600b54610adf33611108565b105b610b20576040517f08c379a0000000000000000000000000000000000000000000000000000000008152600401610b1790613f1f565b60405180910390fd5b600860009054906101000a900473ffffffffffffffffffffffffffffffffffffffff1673ffffffffffffffffffffffffffffffffffffffff166323b872dd3330610b686114eb565b6040518463ffffffff1660e01b8152600401610b8693929190613b7b565b602060405180830381600087803b158015610ba057600080fd5b505af1158015610bb4573d6000803e3d6000fd5b505050506040513d601f19601f82011682018060405250810190610bd89190613464565b507fa7ff50923ec39d175a65bd008d51f39568b73da5d06a400c53fdba484edabac033604051610c089190613b37565b60405180910390a1610c1933611d00565b565b610c288161ffff16610fd6565b73ffffffffffffffffffffffffffffffffffffffff163373ffffffffffffffffffffffffffffffffffffffff1614610c95576040517f08c379a0000000000000000000000000000000000000000000000000000000008152600401610c8c90613f9f565b60405180910390fd5b600e339080600181540180825580915050600190039060005260206000200160009091909190916101000a81548173ffffffffffffffffffffffffffffffffffffffff021916908373ffffffffffffffffffffffffffffffffffffffff160217905550600f8190806001815401808255809150506001900390600052602060002090601091828204019190066002029091909190916101000a81548161ffff021916908361ffff160217905550610d4f8161ffff16611e6d565b7f222838db2794d11532d940e8dec38ae307ed0b63cd97c233322e221f998767a63382604051610d80929190613bfe565b60405180910390a150565b7f000000000000000000000000000000000000000000000000000000000000000073ffffffffffffffffffffffffffffffffffffffff163373ffffffffffffffffffffffffffffffffffffffff1614610e3d57337f00000000000000000000000000000000000000000000000000000000000000006040517f1cf993f4000000000000000000000000000000000000000000000000000000008152600401610e34929190613b52565b60405180910390fd5b610e478282611ec0565b5050565b610e5c610e56611c3f565b82612054565b610e9b576040517f08c379a0000000000000000000000000000000000000000000000000000000008152600401610e9290613f7f565b60405180910390fd5b610ea6838383612132565b505050565b6000600d80549050905090565b610ec0611c3f565b73ffffffffffffffffffffffffffffffffffffffff16610ede6113a9565b73ffffffffffffffffffffffffffffffffffffffff1614610f34576040517f08c379a0000000000000000000000000000000000000000000000000000000008152600401610f2b90613eff565b60405180910390fd5b3373ffffffffffffffffffffffffffffffffffffffff166108fc479081150290604051600060405180830381858888f19350505050158015610f7a573d6000803e3d6000fd5b50565b610f988383836040518060200160405280600081525061179f565b505050565b6040518060400160405280600581526020017f2e6a736f6e00000000000000000000000000000000000000000000000000000081525081565b6000806002600084815260200190815260200160002060009054906101000a900473ffffffffffffffffffffffffffffffffffffffff169050600073ffffffffffffffffffffffffffffffffffffffff168173ffffffffffffffffffffffffffffffffffffffff16141561107f576040517f08c379a000000000000000000000000000000000000000000000000000000000815260040161107690613e7f565b60405180910390fd5b80915050919050565b6060600f8054806020026020016040519081016040528092919081815260200182805480156110fe57602002820191906000526020600020906000905b82829054906101000a900461ffff1661ffff16815260200190600201906020826001010492830192600103820291508084116110c55790505b5050505050905090565b60008073ffffffffffffffffffffffffffffffffffffffff168273ffffffffffffffffffffffffffffffffffffffff161415611179576040517f08c379a000000000000000000000000000000000000000000000000000000000815260040161117090613e5f565b60405180910390fd5b600360008373ffffffffffffffffffffffffffffffffffffffff1673ffffffffffffffffffffffffffffffffffffffff168152602001908152602001600020549050919050565b6111c8611c3f565b73ffffffffffffffffffffffffffffffffffffffff166111e66113a9565b73ffffffffffffffffffffffffffffffffffffffff161461123c576040517f08c379a000000000000000000000000000000000000000000000000000000000815260040161123390613eff565b60405180910390fd5b6112466000612399565b565b611250611c3f565b73ffffffffffffffffffffffffffffffffffffffff1661126e6113a9565b73ffffffffffffffffffffffffffffffffffffffff16146112c4576040517f08c379a00000000000000000000000000000000000000000000000000000000081526004016112bb90613eff565b60405180910390fd5b6112ce828261245f565b5050565b600a60009054906101000a900461ffff1681565b6112ee611c3f565b73ffffffffffffffffffffffffffffffffffffffff1661130c6113a9565b73ffffffffffffffffffffffffffffffffffffffff1614611362576040517f08c379a000000000000000000000000000000000000000000000000000000000815260040161135990613eff565b60405180910390fd5b61136c8282612661565b7f76020ece75bf679c701e656fcffc7e3df8354859b3b0eb7fee42b1378023bb31828260405161139d929190613c27565b60405180910390a15050565b6000600760009054906101000a900473ffffffffffffffffffffffffffffffffffffffff16905090565b6113db611c3f565b73ffffffffffffffffffffffffffffffffffffffff166113f96113a9565b73ffffffffffffffffffffffffffffffffffffffff161461144f576040517f08c379a000000000000000000000000000000000000000000000000000000000815260040161144690613eff565b60405180910390fd5b80600c8190555050565b60606001805461146890614367565b80601f016020809104026020016040519081016040528092919081815260200182805461149490614367565b80156114e15780601f106114b6576101008083540402835291602001916114e1565b820191906000526020600020905b8154815290600101906020018083116114c457829003601f168201915b5050505050905090565b6000600c54905090565b6009805461150290614367565b80601f016020809104026020016040519081016040528092919081815260200182805461152e90614367565b801561157b5780601f106115505761010080835404028352916020019161157b565b820191906000526020600020905b81548152906001019060200180831161155e57829003601f168201915b505050505081565b600c5481565b611591611c3f565b73ffffffffffffffffffffffffffffffffffffffff166115af6113a9565b73ffffffffffffffffffffffffffffffffffffffff1614611605576040517f08c379a00000000000000000000000000000000000000000000000000000000081526004016115fc90613eff565b60405180910390fd5b818160099190611616929190612f9d565b505050565b61162d611626611c3f565b838361267f565b5050565b600b5481565b61163f611c3f565b73ffffffffffffffffffffffffffffffffffffffff1661165d6113a9565b73ffffffffffffffffffffffffffffffffffffffff16146116b3576040517f08c379a00000000000000000000000000000000000000000000000000000000081526004016116aa90613eff565b60405180910390fd5b600a60009054906101000a900461ffff1661ffff16600d805490501061170e576040517f08c379a000000000000000000000000000000000000000000000000000000000815260040161170590613dbf565b60405180910390fd5b60006001600a60009054906101000a900461ffff1661172d919061414c565b90506000600190505b8161ffff168161ffff16101561179b57600d8190806001815401808255809150506001900390600052602060002090601091828204019190066002029091909190916101000a81548161ffff021916908361ffff160217905550806001019050611736565b5050565b6117b06117aa611c3f565b83612054565b6117ef576040517f08c379a00000000000000000000000000000000000000000000000000000000081526004016117e690613f7f565b60405180910390fd5b6117fb848484846127ec565b50505050565b606061180c82611bd3565b61184b576040517f08c379a000000000000000000000000000000000000000000000000000000000815260040161184290613e9f565b60405180910390fd5b6000611855612848565b9050600081511161187557604051806020016040528060008152506118d7565b8061187f846128da565b6040518060400160405280600581526020017f2e6a736f6e0000000000000000000000000000000000000000000000000000008152506040516020016118c793929190613b06565b6040516020818303038152906040525b915050919050565b60155481565b6060604051806060016040528060368152602001614b1c60369139905090565b6000600560008473ffffffffffffffffffffffffffffffffffffffff1673ffffffffffffffffffffffffffffffffffffffff16815260200190815260200160002060008373ffffffffffffffffffffffffffffffffffffffff1673ffffffffffffffffffffffffffffffffffffffff16815260200190815260200160002060009054906101000a900460ff16905092915050565b6060600e805480602002602001604051908101604052809291908181526020018280548015611a1d57602002820191906000526020600020905b8160009054906101000a900473ffffffffffffffffffffffffffffffffffffffff1673ffffffffffffffffffffffffffffffffffffffff16815260200190600101908083116119d3575b5050505050905090565b611a2f611c3f565b73ffffffffffffffffffffffffffffffffffffffff16611a4d6113a9565b73ffffffffffffffffffffffffffffffffffffffff1614611aa3576040517f08c379a0000000000000000000000000000000000000000000000000000000008152600401611a9a90613eff565b60405180910390fd5b600073ffffffffffffffffffffffffffffffffffffffff168173ffffffffffffffffffffffffffffffffffffffff161415611b13576040517f08c379a0000000000000000000000000000000000000000000000000000000008152600401611b0a90613d5f565b60405180910390fd5b611b1c81612399565b50565b60148181548110611b2f57600080fd5b906000526020600020016000915090505481565b600860009054906101000a900473ffffffffffffffffffffffffffffffffffffffff1681565b60007f01ffc9a7000000000000000000000000000000000000000000000000000000007bffffffffffffffffffffffffffffffffffffffffffffffffffffffff1916827bffffffffffffffffffffffffffffffffffffffffffffffffffffffff1916149050919050565b60008073ffffffffffffffffffffffffffffffffffffffff166002600084815260200190815260200160002060009054906101000a900473ffffffffffffffffffffffffffffffffffffffff1673ffffffffffffffffffffffffffffffffffffffff1614159050919050565b600033905090565b816004600083815260200190815260200160002060006101000a81548173ffffffffffffffffffffffffffffffffffffffff021916908373ffffffffffffffffffffffffffffffffffffffff160217905550808273ffffffffffffffffffffffffffffffffffffffff16611cba83610fd6565b73ffffffffffffffffffffffffffffffffffffffff167f8c5be1e5ebec7d5bd14f71427d1e84f3dd0314c0f7b2291e5b200ac8c7c3b92560405160405180910390a45050565b601060089054906101000a900473ffffffffffffffffffffffffffffffffffffffff1673ffffffffffffffffffffffffffffffffffffffff16635d3b1d30601254601060009054906101000a900467ffffffffffffffff16601360049054906101000a900461ffff16601360009054906101000a900463ffffffff16601360069054906101000a900463ffffffff166040518663ffffffff1660e01b8152600401611daf959493929190613caf565b602060405180830381600087803b158015611dc957600080fd5b505af1158015611ddd573d6000803e3d6000fd5b505050506040513d601f19601f82011682018060405250810190611e019190613576565b6015819055506016819080600181540180825580915050600190039060005260206000200160009091909190916101000a81548173ffffffffffffffffffffffffffffffffffffffff021916908373ffffffffffffffffffffffffffffffffffffffff16021790555050565b611e7681612a87565b6000600660008381526020019081526020016000208054611e9690614367565b905014611ebd57600660008281526020019081526020016000206000611ebc9190613023565b5b50565b600060168054905011611f08576040517f08c379a0000000000000000000000000000000000000000000000000000000008152600401611eff90613f3f565b60405180910390fd5b8060149080519060200190611f1e929190613063565b50611fe360166001601680549050611f36919061420b565b81548110611f6d577f4e487b7100000000000000000000000000000000000000000000000000000000600052603260045260246000fd5b9060005260206000200160009054906101000a900473ffffffffffffffffffffffffffffffffffffffff166014600081548110611fd3577f4e487b7100000000000000000000000000000000000000000000000000000000600052603260045260246000fd5b906000526020600020015461245f565b601680548061201b577f4e487b7100000000000000000000000000000000000000000000000000000000600052603160045260246000fd5b6001900381819060005260206000200160006101000a81549073ffffffffffffffffffffffffffffffffffffffff021916905590555050565b600061205f82611bd3565b61209e576040517f08c379a000000000000000000000000000000000000000000000000000000000815260040161209590613e1f565b60405180910390fd5b60006120a983610fd6565b90508073ffffffffffffffffffffffffffffffffffffffff168473ffffffffffffffffffffffffffffffffffffffff16148061211857508373ffffffffffffffffffffffffffffffffffffffff166121008461085c565b73ffffffffffffffffffffffffffffffffffffffff16145b8061212957506121288185611905565b5b91505092915050565b8273ffffffffffffffffffffffffffffffffffffffff1661215282610fd6565b73ffffffffffffffffffffffffffffffffffffffff16146121a8576040517f08c379a000000000000000000000000000000000000000000000000000000000815260040161219f90613d7f565b60405180910390fd5b600073ffffffffffffffffffffffffffffffffffffffff168273ffffffffffffffffffffffffffffffffffffffff161415612218576040517f08c379a000000000000000000000000000000000000000000000000000000000815260040161220f90613ddf565b60405180910390fd5b612223838383612ba4565b61222e600082611c47565b6001600360008573ffffffffffffffffffffffffffffffffffffffff1673ffffffffffffffffffffffffffffffffffffffff168152602001908152602001600020600082825461227e919061420b565b925050819055506001600360008473ffffffffffffffffffffffffffffffffffffffff1673ffffffffffffffffffffffffffffffffffffffff16815260200190815260200160002060008282546122d59190614184565b92505081905550816002600083815260200190815260200160002060006101000a81548173ffffffffffffffffffffffffffffffffffffffff021916908373ffffffffffffffffffffffffffffffffffffffff160217905550808273ffffffffffffffffffffffffffffffffffffffff168473ffffffffffffffffffffffffffffffffffffffff167fddf252ad1be2c89b69c2b068fc378daa952ba7f163c4a11628f55a4df523b3ef60405160405180910390a4612394838383612ba9565b505050565b6000600760009054906101000a900473ffffffffffffffffffffffffffffffffffffffff16905081600760006101000a81548173ffffffffffffffffffffffffffffffffffffffff021916908373ffffffffffffffffffffffffffffffffffffffff1602179055508173ffffffffffffffffffffffffffffffffffffffff168173ffffffffffffffffffffffffffffffffffffffff167f8be0079c531659141344cd1fd0a4f28419497f9722a3daafe3b4186f6b6457e060405160405180910390a35050565b6000600d80549050826124729190614413565b90506000600d82815481106124b0577f4e487b7100000000000000000000000000000000000000000000000000000000600052603260045260246000fd5b90600052602060002090601091828204019190066002029054906101000a900461ffff1661ffff169050600d6001600d805490506124ee919061420b565b81548110612525577f4e487b7100000000000000000000000000000000000000000000000000000000600052603260045260246000fd5b90600052602060002090601091828204019190066002029054906101000a900461ffff16600d8381548110612583577f4e487b7100000000000000000000000000000000000000000000000000000000600052603260045260246000fd5b90600052602060002090601091828204019190066002026101000a81548161ffff021916908361ffff160217905550600d8054806125ea577f4e487b7100000000000000000000000000000000000000000000000000000000600052603160045260246000fd5b60019003818190600052602060002090601091828204019190066002026101000a81549061ffff021916905590556126228482612661565b7f76020ece75bf679c701e656fcffc7e3df8354859b3b0eb7fee42b1378023bb318482604051612653929190613c27565b60405180910390a150505050565b61267b828260405180602001604052806000815250612bae565b5050565b8173ffffffffffffffffffffffffffffffffffffffff168373ffffffffffffffffffffffffffffffffffffffff1614156126ee576040517f08c379a00000000000000000000000000000000000000000000000000000000081526004016126e590613dff565b60405180910390fd5b80600560008573ffffffffffffffffffffffffffffffffffffffff1673ffffffffffffffffffffffffffffffffffffffff16815260200190815260200160002060008473ffffffffffffffffffffffffffffffffffffffff1673ffffffffffffffffffffffffffffffffffffffff16815260200190815260200160002060006101000a81548160ff0219169083151502179055508173ffffffffffffffffffffffffffffffffffffffff168373ffffffffffffffffffffffffffffffffffffffff167f17307eab39ab6107e8899845ad3d59bd9653f200f220920489ca2b5937696c31836040516127df9190613c94565b60405180910390a3505050565b6127f7848484612132565b61280384848484612c09565b612842576040517f08c379a000000000000000000000000000000000000000000000000000000000815260040161283990613d3f565b60405180910390fd5b50505050565b60606009805461285790614367565b80601f016020809104026020016040519081016040528092919081815260200182805461288390614367565b80156128d05780601f106128a5576101008083540402835291602001916128d0565b820191906000526020600020905b8154815290600101906020018083116128b357829003601f168201915b5050505050905090565b60606000821415612922576040518060400160405280600181526020017f30000000000000000000000000000000000000000000000000000000000000008152509050612a82565b600082905060005b6000821461295457808061293d906143ca565b915050600a8261294d91906141da565b915061292a565b60008167ffffffffffffffff811115612996577f4e487b7100000000000000000000000000000000000000000000000000000000600052604160045260246000fd5b6040519080825280601f01601f1916602001820160405280156129c85781602001600182028036833780820191505090505b5090505b60008514612a7b576001826129e1919061420b565b9150600a856129f09190614413565b60306129fc9190614184565b60f81b818381518110612a38577f4e487b7100000000000000000000000000000000000000000000000000000000600052603260045260246000fd5b60200101907effffffffffffffffffffffffffffffffffffffffffffffffffffffffffffff1916908160001a905350600a85612a7491906141da565b94506129cc565b8093505050505b919050565b6000612a9282610fd6565b9050612aa081600084612ba4565b612aab600083611c47565b6001600360008373ffffffffffffffffffffffffffffffffffffffff1673ffffffffffffffffffffffffffffffffffffffff1681526020019081526020016000206000828254612afb919061420b565b925050819055506002600083815260200190815260200160002060006101000a81549073ffffffffffffffffffffffffffffffffffffffff021916905581600073ffffffffffffffffffffffffffffffffffffffff168273ffffffffffffffffffffffffffffffffffffffff167fddf252ad1be2c89b69c2b068fc378daa952ba7f163c4a11628f55a4df523b3ef60405160405180910390a4612ba081600084612ba9565b5050565b505050565b505050565b612bb88383612da0565b612bc56000848484612c09565b612c04576040517f08c379a0000000000000000000000000000000000000000000000000000000008152600401612bfb90613d3f565b60405180910390fd5b505050565b6000612c2a8473ffffffffffffffffffffffffffffffffffffffff16612f7a565b15612d93578373ffffffffffffffffffffffffffffffffffffffff1663150b7a02612c53611c3f565b8786866040518563ffffffff1660e01b8152600401612c759493929190613bb2565b602060405180830381600087803b158015612c8f57600080fd5b505af1925050508015612cc057506040513d601f19601f82011682018060405250810190612cbd91906134b6565b60015b612d43573d8060008114612cf0576040519150601f19603f3d011682016040523d82523d6000602084013e612cf5565b606091505b50600081511415612d3b576040517f08c379a0000000000000000000000000000000000000000000000000000000008152600401612d3290613d3f565b60405180910390fd5b805181602001fd5b63150b7a0260e01b7bffffffffffffffffffffffffffffffffffffffffffffffffffffffff1916817bffffffffffffffffffffffffffffffffffffffffffffffffffffffff191614915050612d98565b600190505b949350505050565b600073ffffffffffffffffffffffffffffffffffffffff168273ffffffffffffffffffffffffffffffffffffffff161415612e10576040517f08c379a0000000000000000000000000000000000000000000000000000000008152600401612e0790613ebf565b60405180910390fd5b612e1981611bd3565b15612e59576040517f08c379a0000000000000000000000000000000000000000000000000000000008152600401612e5090613d9f565b60405180910390fd5b612e6560008383612ba4565b6001600360008473ffffffffffffffffffffffffffffffffffffffff1673ffffffffffffffffffffffffffffffffffffffff1681526020019081526020016000206000828254612eb59190614184565b92505081905550816002600083815260200190815260200160002060006101000a81548173ffffffffffffffffffffffffffffffffffffffff021916908373ffffffffffffffffffffffffffffffffffffffff160217905550808273ffffffffffffffffffffffffffffffffffffffff16600073ffffffffffffffffffffffffffffffffffffffff167fddf252ad1be2c89b69c2b068fc378daa952ba7f163c4a11628f55a4df523b3ef60405160405180910390a4612f7660008383612ba9565b5050565b6000808273ffffffffffffffffffffffffffffffffffffffff163b119050919050565b828054612fa990614367565b90600052602060002090601f016020900481019282612fcb5760008555613012565b82601f10612fe457803560ff1916838001178555613012565b82800160010185558215613012579182015b82811115613011578235825591602001919060010190612ff6565b5b50905061301f91906130b0565b5090565b50805461302f90614367565b6000825580601f106130415750613060565b601f01602090049060005260206000209081019061305f91906130b0565b5b50565b82805482825590600052602060002090810192821561309f579160200282015b8281111561309e578251825591602001919060010190613083565b5b5090506130ac91906130b0565b5090565b5b808211156130c95760008160009055506001016130b1565b5090565b60006130e06130db8461403a565b614015565b905080838252602082019050828560208602820111156130ff57600080fd5b60005b8581101561312f57816131158882613293565b845260208401935060208301925050600181019050613102565b5050509392505050565b600061314c61314784614066565b614015565b90508281526020810184848401111561316457600080fd5b61316f848285614325565b509392505050565b60008135905061318681614aa8565b92915050565b600082601f83011261319d57600080fd5b81356131ad8482602086016130cd565b91505092915050565b6000813590506131c581614abf565b92915050565b6000815190506131da81614abf565b92915050565b6000813590506131ef81614ad6565b92915050565b60008151905061320481614ad6565b92915050565b600082601f83011261321b57600080fd5b813561322b848260208601613139565b91505092915050565b60008083601f84011261324657600080fd5b8235905067ffffffffffffffff81111561325f57600080fd5b60208301915083600182028301111561327757600080fd5b9250929050565b60008135905061328d81614aed565b92915050565b6000813590506132a281614b04565b92915050565b6000815190506132b781614b04565b92915050565b6000602082840312156132cf57600080fd5b60006132dd84828501613177565b91505092915050565b600080604083850312156132f957600080fd5b600061330785828601613177565b925050602061331885828601613177565b9150509250929050565b60008060006060848603121561333757600080fd5b600061334586828701613177565b935050602061335686828701613177565b925050604061336786828701613293565b9150509250925092565b6000806000806080858703121561338757600080fd5b600061339587828801613177565b94505060206133a687828801613177565b93505060406133b787828801613293565b925050606085013567ffffffffffffffff8111156133d457600080fd5b6133e08782880161320a565b91505092959194509250565b600080604083850312156133ff57600080fd5b600061340d85828601613177565b925050602061341e858286016131b6565b9150509250929050565b6000806040838503121561343b57600080fd5b600061344985828601613177565b925050602061345a85828601613293565b9150509250929050565b60006020828403121561347657600080fd5b6000613484848285016131cb565b91505092915050565b60006020828403121561349f57600080fd5b60006134ad848285016131e0565b91505092915050565b6000602082840312156134c857600080fd5b60006134d6848285016131f5565b91505092915050565b600080602083850312156134f257600080fd5b600083013567ffffffffffffffff81111561350c57600080fd5b61351885828601613234565b92509250509250929050565b60006020828403121561353657600080fd5b60006135448482850161327e565b91505092915050565b60006020828403121561355f57600080fd5b600061356d84828501613293565b91505092915050565b60006020828403121561358857600080fd5b6000613596848285016132a8565b91505092915050565b600080604083850312156135b257600080fd5b60006135c085828601613293565b925050602083013567ffffffffffffffff8111156135dd57600080fd5b6135e98582860161318c565b9150509250929050565b60006135ff8383613623565b60208301905092915050565b60006136178383613aac565b60208301905092915050565b61362c8161423f565b82525050565b61363b8161423f565b82525050565b600061364c826140b7565b61365681856140fd565b935061366183614097565b8060005b8381101561369257815161367988826135f3565b9750613684836140e3565b925050600181019050613665565b5085935050505092915050565b60006136aa826140c2565b6136b4818561410e565b93506136bf836140a7565b8060005b838110156136f05781516136d7888261360b565b97506136e2836140f0565b9250506001810190506136c3565b5085935050505092915050565b61370681614251565b82525050565b6137158161425d565b82525050565b6000613726826140cd565b613730818561411f565b9350613740818560208601614334565b61374981614500565b840191505092915050565b61375d816142ef565b82525050565b600061376e826140d8565b6137788185614130565b9350613788818560208601614334565b61379181614500565b840191505092915050565b60006137a7826140d8565b6137b18185614141565b93506137c1818560208601614334565b80840191505092915050565b60006137da603283614130565b91506137e582614511565b604082019050919050565b60006137fd602683614130565b915061380882614560565b604082019050919050565b6000613820602583614130565b915061382b826145af565b604082019050919050565b6000613843601c83614130565b915061384e826145fe565b602082019050919050565b6000613866603183614130565b915061387182614627565b604082019050919050565b6000613889602483614130565b915061389482614676565b604082019050919050565b60006138ac601983614130565b91506138b7826146c5565b602082019050919050565b60006138cf602c83614130565b91506138da826146ee565b604082019050919050565b60006138f2603883614130565b91506138fd8261473d565b604082019050919050565b6000613915602a83614130565b91506139208261478c565b604082019050919050565b6000613938602983614130565b9150613943826147db565b604082019050919050565b600061395b603083614130565b91506139668261482a565b604082019050919050565b600061397e602083614130565b915061398982614879565b602082019050919050565b60006139a1602c83614130565b91506139ac826148a2565b604082019050919050565b60006139c4602083614130565b91506139cf826148f1565b602082019050919050565b60006139e7602283614130565b91506139f28261491a565b604082019050919050565b6000613a0a601283614130565b9150613a1582614969565b602082019050919050565b6000613a2d602183614130565b9150613a3882614992565b604082019050919050565b6000613a50603183614130565b9150613a5b826149e1565b604082019050919050565b6000613a73602383614130565b9150613a7e82614a30565b604082019050919050565b6000613a96601983614130565b9150613aa182614a7f565b602082019050919050565b613ab581614293565b82525050565b613ac481614293565b82525050565b613ad381614313565b82525050565b613ae2816142c1565b82525050565b613af1816142cb565b82525050565b613b00816142db565b82525050565b6000613b12828661379c565b9150613b1e828561379c565b9150613b2a828461379c565b9150819050949350505050565b6000602082019050613b4c6000830184613632565b92915050565b6000604082019050613b676000830185613632565b613b746020830184613632565b9392505050565b6000606082019050613b906000830186613632565b613b9d6020830185613632565b613baa6040830184613ad9565b949350505050565b6000608082019050613bc76000830187613632565b613bd46020830186613632565b613be16040830185613ad9565b8181036060830152613bf3818461371b565b905095945050505050565b6000604082019050613c136000830185613632565b613c206020830184613aca565b9392505050565b6000604082019050613c3c6000830185613632565b613c496020830184613ad9565b9392505050565b60006020820190508181036000830152613c6a8184613641565b905092915050565b60006020820190508181036000830152613c8c818461369f565b905092915050565b6000602082019050613ca960008301846136fd565b92915050565b600060a082019050613cc4600083018861370c565b613cd16020830187613af7565b613cde6040830186613abb565b613ceb6060830185613ae8565b613cf86080830184613ae8565b9695505050505050565b6000602082019050613d176000830184613754565b92915050565b60006020820190508181036000830152613d378184613763565b905092915050565b60006020820190508181036000830152613d58816137cd565b9050919050565b60006020820190508181036000830152613d78816137f0565b9050919050565b60006020820190508181036000830152613d9881613813565b9050919050565b60006020820190508181036000830152613db881613836565b9050919050565b60006020820190508181036000830152613dd881613859565b9050919050565b60006020820190508181036000830152613df88161387c565b9050919050565b60006020820190508181036000830152613e188161389f565b9050919050565b60006020820190508181036000830152613e38816138c2565b9050919050565b60006020820190508181036000830152613e58816138e5565b9050919050565b60006020820190508181036000830152613e7881613908565b9050919050565b60006020820190508181036000830152613e988161392b565b9050919050565b60006020820190508181036000830152613eb88161394e565b9050919050565b60006020820190508181036000830152613ed881613971565b9050919050565b60006020820190508181036000830152613ef881613994565b9050919050565b60006020820190508181036000830152613f18816139b7565b9050919050565b60006020820190508181036000830152613f38816139da565b9050919050565b60006020820190508181036000830152613f58816139fd565b9050919050565b60006020820190508181036000830152613f7881613a20565b9050919050565b60006020820190508181036000830152613f9881613a43565b9050919050565b60006020820190508181036000830152613fb881613a66565b9050919050565b60006020820190508181036000830152613fd881613a89565b9050919050565b6000602082019050613ff46000830184613abb565b92915050565b600060208201905061400f6000830184613ad9565b92915050565b600061401f614030565b905061402b8282614399565b919050565b6000604051905090565b600067ffffffffffffffff821115614055576140546144d1565b5b602082029050602081019050919050565b600067ffffffffffffffff821115614081576140806144d1565b5b61408a82614500565b9050602081019050919050565b6000819050602082019050919050565b6000819050602082019050919050565b600081519050919050565b600081519050919050565b600081519050919050565b600081519050919050565b6000602082019050919050565b6000602082019050919050565b600082825260208201905092915050565b600082825260208201905092915050565b600082825260208201905092915050565b600082825260208201905092915050565b600081905092915050565b600061415782614293565b915061416283614293565b92508261ffff0382111561417957614178614444565b5b828201905092915050565b600061418f826142c1565b915061419a836142c1565b9250827fffffffffffffffffffffffffffffffffffffffffffffffffffffffffffffffff038211156141cf576141ce614444565b5b828201905092915050565b60006141e5826142c1565b91506141f0836142c1565b925082614200576141ff614473565b5b828204905092915050565b6000614216826142c1565b9150614221836142c1565b92508282101561423457614233614444565b5b828203905092915050565b600061424a826142a1565b9050919050565b60008115159050919050565b6000819050919050565b60007fffffffff0000000000000000000000000000000000000000000000000000000082169050919050565b600061ffff82169050919050565b600073ffffffffffffffffffffffffffffffffffffffff82169050919050565b6000819050919050565b600063ffffffff82169050919050565b600067ffffffffffffffff82169050919050565b60006142fa82614301565b9050919050565b600061430c826142a1565b9050919050565b600061431e82614293565b9050919050565b82818337600083830152505050565b60005b83811015614352578082015181840152602081019050614337565b83811115614361576000848401525b50505050565b6000600282049050600182168061437f57607f821691505b60208210811415614393576143926144a2565b5b50919050565b6143a282614500565b810181811067ffffffffffffffff821117156143c1576143c06144d1565b5b80604052505050565b60006143d5826142c1565b91507fffffffffffffffffffffffffffffffffffffffffffffffffffffffffffffffff82141561440857614407614444565b5b600182019050919050565b600061441e826142c1565b9150614429836142c1565b92508261443957614438614473565b5b828206905092915050565b7f4e487b7100000000000000000000000000000000000000000000000000000000600052601160045260246000fd5b7f4e487b7100000000000000000000000000000000000000000000000000000000600052601260045260246000fd5b7f4e487b7100000000000000000000000000000000000000000000000000000000600052602260045260246000fd5b7f4e487b7100000000000000000000000000000000000000000000000000000000600052604160045260246000fd5b6000601f19601f8301169050919050565b7f4552433732313a207472616e7366657220746f206e6f6e20455243373231526560008201527f63656976657220696d706c656d656e7465720000000000000000000000000000602082015250565b7f4f776e61626c653a206e6577206f776e657220697320746865207a65726f206160008201527f6464726573730000000000000000000000000000000000000000000000000000602082015250565b7f4552433732313a207472616e736665722066726f6d20696e636f72726563742060008201527f6f776e6572000000000000000000000000000000000000000000000000000000602082015250565b7f4552433732313a20746f6b656e20616c7265616479206d696e74656400000000600082015250565b7f43616e6e6f7420696e697469616c697a65206d6f726520746f6b656e7320746860008201527f616e20746865206d61785f737570706c79000000000000000000000000000000602082015250565b7f4552433732313a207472616e7366657220746f20746865207a65726f2061646460008201527f7265737300000000000000000000000000000000000000000000000000000000602082015250565b7f4552433732313a20617070726f766520746f2063616c6c657200000000000000600082015250565b7f4552433732313a206f70657261746f7220717565727920666f72206e6f6e657860008201527f697374656e7420746f6b656e0000000000000000000000000000000000000000602082015250565b7f4552433732313a20617070726f76652063616c6c6572206973206e6f74206f7760008201527f6e6572206e6f7220617070726f76656420666f7220616c6c0000000000000000602082015250565b7f4552433732313a2062616c616e636520717565727920666f7220746865207a6560008201527f726f206164647265737300000000000000000000000000000000000000000000602082015250565b7f4552433732313a206f776e657220717565727920666f72206e6f6e657869737460008201527f656e7420746f6b656e0000000000000000000000000000000000000000000000602082015250565b7f4552433732314d657461646174613a2055524920717565727920666f72206e6f60008201527f6e6578697374656e7420746f6b656e2000000000000000000000000000000000602082015250565b7f4552433732313a206d696e7420746f20746865207a65726f2061646472657373600082015250565b7f4552433732313a20617070726f76656420717565727920666f72206e6f6e657860008201527f697374656e7420746f6b656e0000000000000000000000000000000000000000602082015250565b7f4f776e61626c653a2063616c6c6572206973206e6f7420746865206f776e6572600082015250565b7f456163682061646472657373206d6179206f6e6c79206d696e742078204e465460008201527f7321000000000000000000000000000000000000000000000000000000000000602082015250565b7f4e6f206d696e74657220696e2071756575650000000000000000000000000000600082015250565b7f4552433732313a20617070726f76616c20746f2063757272656e74206f776e6560008201527f7200000000000000000000000000000000000000000000000000000000000000602082015250565b7f4552433732313a207472616e736665722063616c6c6572206973206e6f74206f60008201527f776e6572206e6f7220617070726f766564000000000000000000000000000000602082015250565b7f596f7520617265206e6f7420746865206f776e6572206f66207468697320746f60008201527f6b656e0000000000000000000000000000000000000000000000000000000000602082015250565b7f4e6f206d6f726520746f6b656e7320617661696c61626c652100000000000000600082015250565b614ab18161423f565b8114614abc57600080fd5b50565b614ac881614251565b8114614ad357600080fd5b50565b614adf81614267565b8114614aea57600080fd5b50565b614af681614293565b8114614b0157600080fd5b50565b614b0d816142c1565b8114614b1857600080fd5b5056fe697066733a2f2f516d615965624b337a4566487066416d7652447648423562374d6d675259536563425936397059665063617432322fa2646970667358221220448b087ed00343463e5302ce90014018b12e19a5d954b92409b6c5b0eb653e1e64736f6c63430008040033697066733a2f2f516d4e506939336f796e776f69374e6d486d573741425467704d666151746d784b4a6f786d7058734a484e67474b2f",
  "linkReferences": {},
  "deployedLinkReferences": {}
}