{
  "_format": "hh-sol-artifact-1",
  "contractName": "NFT",
  "sourceName": "src/backend/contracts/NFT.sol",
  "abi": [
    {
      "inputs": [
        {
          "internalType": "address",
          "name": "ownerAddress",
          "type": "address"
        },
        {
          "internalType": "uint64",
          "name": "subscriptionId",
          "type": "uint64"
        }
      ],
      "stateMutability": "nonpayable",
      "type": "constructor"
    },
    {
      "inputs": [
        {
          "internalType": "address",
          "name": "have",
          "type": "address"
        },
        {
          "internalType": "address",
          "name": "want",
          "type": "address"
        }
      ],
      "name": "OnlyCoordinatorCanFulfill",
      "type": "error"
    },
    {
      "anonymous": false,
      "inputs": [
        {
          "indexed": true,
          "internalType": "address",
          "name": "owner",
          "type": "address"
        },
        {
          "indexed": true,
          "internalType": "address",
          "name": "approved",
          "type": "address"
        },
        {
          "indexed": true,
          "internalType": "uint256",
          "name": "tokenId",
          "type": "uint256"
        }
      ],
      "name": "Approval",
      "type": "event"
    },
    {
      "anonymous": false,
      "inputs": [
        {
          "indexed": true,
          "internalType": "address",
          "name": "owner",
          "type": "address"
        },
        {
          "indexed": true,
          "internalType": "address",
          "name": "operator",
          "type": "address"
        },
        {
          "indexed": false,
          "internalType": "bool",
          "name": "approved",
          "type": "bool"
        }
      ],
      "name": "ApprovalForAll",
      "type": "event"
    },
    {
      "anonymous": false,
      "inputs": [
        {
          "indexed": false,
          "internalType": "address",
          "name": "user",
          "type": "address"
        },
        {
          "indexed": false,
          "internalType": "uint256",
          "name": "tokenId",
          "type": "uint256"
        }
      ],
      "name": "MintSuccessful",
      "type": "event"
    },
    {
      "anonymous": false,
      "inputs": [
        {
          "indexed": true,
          "internalType": "address",
          "name": "previousOwner",
          "type": "address"
        },
        {
          "indexed": true,
          "internalType": "address",
          "name": "newOwner",
          "type": "address"
        }
      ],
      "name": "OwnershipTransferred",
      "type": "event"
    },
    {
      "anonymous": false,
      "inputs": [
        {
          "indexed": false,
          "internalType": "address",
          "name": "user",
          "type": "address"
        },
        {
          "indexed": false,
          "internalType": "uint256",
          "name": "tokenId",
          "type": "uint256"
        }
      ],
      "name": "Redeem",
      "type": "event"
    },
    {
      "anonymous": false,
      "inputs": [
        {
          "indexed": true,
          "internalType": "address",
          "name": "from",
          "type": "address"
        },
        {
          "indexed": true,
          "internalType": "address",
          "name": "to",
          "type": "address"
        },
        {
          "indexed": true,
          "internalType": "uint256",
          "name": "tokenId",
          "type": "uint256"
        }
      ],
      "name": "Transfer",
      "type": "event"
    },
    {
      "inputs": [],
      "name": "amountMintPerAccount",
      "outputs": [
        {
          "internalType": "uint256",
          "name": "",
          "type": "uint256"
        }
      ],
      "stateMutability": "view",
      "type": "function"
    },
    {
      "inputs": [
        {
          "internalType": "address",
          "name": "to",
          "type": "address"
        },
        {
          "internalType": "uint256",
          "name": "tokenId",
          "type": "uint256"
        }
      ],
      "name": "approve",
      "outputs": [],
      "stateMutability": "nonpayable",
      "type": "function"
    },
    {
      "inputs": [
        {
          "internalType": "address",
          "name": "owner",
          "type": "address"
        }
      ],
      "name": "balanceOf",
      "outputs": [
        {
          "internalType": "uint256",
          "name": "",
          "type": "uint256"
        }
      ],
      "stateMutability": "view",
      "type": "function"
    },
    {
      "inputs": [],
      "name": "baseUri",
      "outputs": [
        {
          "internalType": "string",
          "name": "",
          "type": "string"
        }
      ],
      "stateMutability": "view",
      "type": "function"
    },
    {
      "inputs": [],
      "name": "contractURI",
      "outputs": [
        {
          "internalType": "string",
          "name": "",
          "type": "string"
        }
      ],
      "stateMutability": "pure",
      "type": "function"
    },
    {
      "inputs": [
        {
          "internalType": "uint256",
          "name": "_bySize",
          "type": "uint256"
        }
      ],
      "name": "expendArraysBySize",
      "outputs": [],
      "stateMutability": "nonpayable",
      "type": "function"
    },
    {
      "inputs": [
        {
          "internalType": "uint256",
          "name": "tokenId",
          "type": "uint256"
        }
      ],
      "name": "getApproved",
      "outputs": [
        {
          "internalType": "address",
          "name": "",
          "type": "address"
        }
      ],
      "stateMutability": "view",
      "type": "function"
    },
    {
      "inputs": [],
      "name": "getAvailableTokensCount",
      "outputs": [
        {
          "internalType": "uint256",
          "name": "",
          "type": "uint256"
        }
      ],
      "stateMutability": "view",
      "type": "function"
    },
    {
      "inputs": [],
      "name": "getPrice",
      "outputs": [
        {
          "internalType": "uint256",
          "name": "",
          "type": "uint256"
        }
      ],
      "stateMutability": "view",
      "type": "function"
    },
    {
      "inputs": [],
      "name": "getRedeemedTokens",
      "outputs": [
        {
          "internalType": "address[]",
          "name": "",
          "type": "address[]"
        }
      ],
      "stateMutability": "view",
      "type": "function"
    },
    {
      "inputs": [
        {
          "internalType": "address",
          "name": "owner",
          "type": "address"
        },
        {
          "internalType": "address",
          "name": "operator",
          "type": "address"
        }
      ],
      "name": "isApprovedForAll",
      "outputs": [
        {
          "internalType": "bool",
          "name": "",
          "type": "bool"
        }
      ],
      "stateMutability": "view",
      "type": "function"
    },
    {
      "inputs": [],
      "name": "max_supply",
      "outputs": [
        {
          "internalType": "uint256",
          "name": "",
          "type": "uint256"
        }
      ],
      "stateMutability": "view",
      "type": "function"
    },
    {
      "inputs": [],
      "name": "mint",
      "outputs": [],
      "stateMutability": "payable",
      "type": "function"
    },
    {
      "inputs": [],
      "name": "name",
      "outputs": [
        {
          "internalType": "string",
          "name": "",
          "type": "string"
        }
      ],
      "stateMutability": "view",
      "type": "function"
    },
    {
      "inputs": [],
      "name": "owner",
      "outputs": [
        {
          "internalType": "address",
          "name": "",
          "type": "address"
        }
      ],
      "stateMutability": "view",
      "type": "function"
    },
    {
      "inputs": [
        {
          "internalType": "uint256",
          "name": "tokenId",
          "type": "uint256"
        }
      ],
      "name": "ownerOf",
      "outputs": [
        {
          "internalType": "address",
          "name": "",
          "type": "address"
        }
      ],
      "stateMutability": "view",
      "type": "function"
    },
    {
      "inputs": [],
      "name": "price",
      "outputs": [
        {
          "internalType": "uint256",
          "name": "",
          "type": "uint256"
        }
      ],
      "stateMutability": "view",
      "type": "function"
    },
    {
      "inputs": [
        {
          "internalType": "uint256",
          "name": "requestId",
          "type": "uint256"
        },
        {
          "internalType": "uint256[]",
          "name": "randomWords",
          "type": "uint256[]"
        }
      ],
      "name": "rawFulfillRandomWords",
      "outputs": [],
      "stateMutability": "nonpayable",
      "type": "function"
    },
    {
      "inputs": [
        {
          "internalType": "uint256",
          "name": "_tokenId",
          "type": "uint256"
        }
      ],
      "name": "redeemAndBurn",
      "outputs": [],
      "stateMutability": "nonpayable",
      "type": "function"
    },
    {
      "inputs": [],
      "name": "renounceOwnership",
      "outputs": [],
      "stateMutability": "nonpayable",
      "type": "function"
    },
    {
      "inputs": [
        {
          "internalType": "uint256",
          "name": "",
          "type": "uint256"
        }
      ],
      "name": "s_randomWords",
      "outputs": [
        {
          "internalType": "uint256",
          "name": "",
          "type": "uint256"
        }
      ],
      "stateMutability": "view",
      "type": "function"
    },
    {
      "inputs": [],
      "name": "s_requestId",
      "outputs": [
        {
          "internalType": "uint256",
          "name": "",
          "type": "uint256"
        }
      ],
      "stateMutability": "view",
      "type": "function"
    },
    {
      "inputs": [
        {
          "internalType": "address",
          "name": "from",
          "type": "address"
        },
        {
          "internalType": "address",
          "name": "to",
          "type": "address"
        },
        {
          "internalType": "uint256",
          "name": "tokenId",
          "type": "uint256"
        }
      ],
      "name": "safeTransferFrom",
      "outputs": [],
      "stateMutability": "nonpayable",
      "type": "function"
    },
    {
      "inputs": [
        {
          "internalType": "address",
          "name": "from",
          "type": "address"
        },
        {
          "internalType": "address",
          "name": "to",
          "type": "address"
        },
        {
          "internalType": "uint256",
          "name": "tokenId",
          "type": "uint256"
        },
        {
          "internalType": "bytes",
          "name": "_data",
          "type": "bytes"
        }
      ],
      "name": "safeTransferFrom",
      "outputs": [],
      "stateMutability": "nonpayable",
      "type": "function"
    },
    {
      "inputs": [
        {
          "internalType": "uint256",
          "name": "_amountMintPerAccount",
          "type": "uint256"
        }
      ],
      "name": "setAmountMintPerAccount",
      "outputs": [],
      "stateMutability": "nonpayable",
      "type": "function"
    },
    {
      "inputs": [
        {
          "internalType": "address",
          "name": "operator",
          "type": "address"
        },
        {
          "internalType": "bool",
          "name": "approved",
          "type": "bool"
        }
      ],
      "name": "setApprovalForAll",
      "outputs": [],
      "stateMutability": "nonpayable",
      "type": "function"
    },
    {
      "inputs": [
        {
          "internalType": "string",
          "name": "_baseUri",
          "type": "string"
        }
      ],
      "name": "setBaseUri",
      "outputs": [],
      "stateMutability": "nonpayable",
      "type": "function"
    },
    {
      "inputs": [
        {
          "internalType": "uint256",
          "name": "_price",
          "type": "uint256"
        }
      ],
      "name": "setPrice",
      "outputs": [],
      "stateMutability": "nonpayable",
      "type": "function"
    },
    {
      "inputs": [
        {
          "internalType": "bytes4",
          "name": "interfaceId",
          "type": "bytes4"
        }
      ],
      "name": "supportsInterface",
      "outputs": [
        {
          "internalType": "bool",
          "name": "",
          "type": "bool"
        }
      ],
      "stateMutability": "view",
      "type": "function"
    },
    {
      "inputs": [],
      "name": "symbol",
      "outputs": [
        {
          "internalType": "string",
          "name": "",
          "type": "string"
        }
      ],
      "stateMutability": "view",
      "type": "function"
    },
    {
      "inputs": [
        {
          "internalType": "uint256",
          "name": "_tokenId",
          "type": "uint256"
        }
      ],
      "name": "tokenURI",
      "outputs": [
        {
          "internalType": "string",
          "name": "",
          "type": "string"
        }
      ],
      "stateMutability": "view",
      "type": "function"
    },
    {
      "inputs": [
        {
          "internalType": "address",
          "name": "from",
          "type": "address"
        },
        {
          "internalType": "address",
          "name": "to",
          "type": "address"
        },
        {
          "internalType": "uint256",
          "name": "tokenId",
          "type": "uint256"
        }
      ],
      "name": "transferFrom",
      "outputs": [],
      "stateMutability": "nonpayable",
      "type": "function"
    },
    {
      "inputs": [
        {
          "internalType": "address",
          "name": "newOwner",
          "type": "address"
        }
      ],
      "name": "transferOwnership",
      "outputs": [],
      "stateMutability": "nonpayable",
      "type": "function"
    },
    {
      "inputs": [],
      "name": "uriSuffix",
      "outputs": [
        {
          "internalType": "string",
          "name": "",
          "type": "string"
        }
      ],
      "stateMutability": "view",
      "type": "function"
    },
    {
      "inputs": [],
      "name": "withdraw",
      "outputs": [],
      "stateMutability": "nonpayable",
      "type": "function"
    }
  ],
  "bytecode": "0x60a060405260405180606001604052806036815260200162004d8f603691396008908051906020019062000035929190620003e2565b506113886009556000600a55732ca8e0c643bde4c2e08ab1fa0da3401adad7734d600f60006101000a81548173ffffffffffffffffffffffffffffffffffffffff021916908373ffffffffffffffffffffffffffffffffffffffff1602179055507f79d3d8832d904592c0bf9818b621522c988bb8b0c05cdc3b15aea1b6e8db0c1560001b60105562030d40601160006101000a81548163ffffffff021916908363ffffffff1602179055506003601160046101000a81548161ffff021916908361ffff1602179055506001601160066101000a81548163ffffffff021916908363ffffffff1602179055503480156200012e57600080fd5b5060405162004dc538038062004dc58339818101604052810190620001549190620004c0565b600f60009054906101000a900473ffffffffffffffffffffffffffffffffffffffff166040518060400160405280600881526020017f504f524b204e46540000000000000000000000000000000000000000000000008152506040518060400160405280600281526020017f504e0000000000000000000000000000000000000000000000000000000000008152508160009080519060200190620001fb929190620003e2565b50806001908051906020019062000214929190620003e2565b505050620002376200022b6200031460201b60201c565b6200031c60201b60201c565b8073ffffffffffffffffffffffffffffffffffffffff1660808173ffffffffffffffffffffffffffffffffffffffff1660601b8152505050600f60009054906101000a900473ffffffffffffffffffffffffffffffffffffffff16600e60086101000a81548173ffffffffffffffffffffffffffffffffffffffff021916908373ffffffffffffffffffffffffffffffffffffffff16021790555080600e60006101000a81548167ffffffffffffffff021916908367ffffffffffffffff1602179055506200030c826200031c60201b60201c565b5050620005e2565b600033905090565b6000600760009054906101000a900473ffffffffffffffffffffffffffffffffffffffff16905081600760006101000a81548173ffffffffffffffffffffffffffffffffffffffff021916908373ffffffffffffffffffffffffffffffffffffffff1602179055508173ffffffffffffffffffffffffffffffffffffffff168173ffffffffffffffffffffffffffffffffffffffff167f8be0079c531659141344cd1fd0a4f28419497f9722a3daafe3b4186f6b6457e060405160405180910390a35050565b828054620003f09062000549565b90600052602060002090601f01602090048101928262000414576000855562000460565b82601f106200042f57805160ff191683800117855562000460565b8280016001018555821562000460579182015b828111156200045f57825182559160200191906001019062000442565b5b5090506200046f919062000473565b5090565b5b808211156200048e57600081600090555060010162000474565b5090565b600081519050620004a381620005ae565b92915050565b600081519050620004ba81620005c8565b92915050565b60008060408385031215620004d457600080fd5b6000620004e48582860162000492565b9250506020620004f785828601620004a9565b9150509250929050565b60006200050e8262000515565b9050919050565b600073ffffffffffffffffffffffffffffffffffffffff82169050919050565b600067ffffffffffffffff82169050919050565b600060028204905060018216806200056257607f821691505b602082108114156200057957620005786200057f565b5b50919050565b7f4e487b7100000000000000000000000000000000000000000000000000000000600052602260045260246000fd5b620005b98162000501565b8114620005c557600080fd5b50565b620005d38162000535565b8114620005df57600080fd5b50565b60805160601c6147876200060860003960008181610c960152610cea01526147876000f3fe6080604052600436106102045760003560e01c80638da5cb5b11610118578063b88d4fde116100a0578063e89e106a1161006f578063e89e106a1461070e578063e8a3d48514610739578063e985e9c514610764578063f2fde38b146107a1578063f6eaffc8146107ca57610204565b8063b88d4fde14610656578063c87b56dd1461067f578063d0f933c0146106bc578063d86ac1fe146106e557610204565b80639abc8320116100e75780639abc832014610583578063a035b1fe146105ae578063a0bcfc7f146105d9578063a22cb46514610602578063a827b5ff1461062b57610204565b80638da5cb5b146104d957806391b7f5ed1461050457806395d89b411461052d57806398d5fdca1461055857610204565b80632dcd52f21161019b5780635503a0e81161016a5780635503a0e8146103f25780636352211e1461041d57806370a082311461045a578063715018a6146104975780638a333b50146104ae57610204565b80632dcd52f21461035c5780633ccfd60b1461038757806342842e0e1461039e578063496b488d146103c757610204565b806311296660116101d757806311296660146102d75780631249c58b146103005780631fe543e31461030a57806323b872dd1461033357610204565b806301ffc9a71461020957806306fdde0314610246578063081812fc14610271578063095ea7b3146102ae575b600080fd5b34801561021557600080fd5b50610230600480360381019061022b919061323d565b610807565b60405161023d9190613919565b60405180910390f35b34801561025257600080fd5b5061025b6108e9565b6040516102689190613987565b60405180910390f35b34801561027d57600080fd5b50610298600480360381019061029391906132d4565b61097b565b6040516102a5919061383e565b60405180910390f35b3480156102ba57600080fd5b506102d560048036038101906102d09190613201565b610a00565b005b3480156102e357600080fd5b506102fe60048036038101906102f991906132d4565b610b18565b005b610308610b9e565b005b34801561031657600080fd5b50610331600480360381019061032c9190613326565b610c94565b005b34801561033f57600080fd5b5061035a600480360381019061035591906130fb565b610d54565b005b34801561036857600080fd5b50610371610db4565b60405161037e9190613c69565b60405180910390f35b34801561039357600080fd5b5061039c610dc1565b005b3480156103aa57600080fd5b506103c560048036038101906103c091906130fb565b610e86565b005b3480156103d357600080fd5b506103dc610ea6565b6040516103e991906138f7565b60405180910390f35b3480156103fe57600080fd5b50610407610f34565b6040516104149190613987565b60405180910390f35b34801561042957600080fd5b50610444600480360381019061043f91906132d4565b610f6d565b604051610451919061383e565b60405180910390f35b34801561046657600080fd5b50610481600480360381019061047c9190613096565b61101f565b60405161048e9190613c69565b60405180910390f35b3480156104a357600080fd5b506104ac6110d7565b005b3480156104ba57600080fd5b506104c361115f565b6040516104d09190613c69565b60405180910390f35b3480156104e557600080fd5b506104ee611165565b6040516104fb919061383e565b60405180910390f35b34801561051057600080fd5b5061052b600480360381019061052691906132d4565b61118f565b005b34801561053957600080fd5b50610542611215565b60405161054f9190613987565b60405180910390f35b34801561056457600080fd5b5061056d6112a7565b60405161057a9190613c69565b60405180910390f35b34801561058f57600080fd5b506105986112b1565b6040516105a59190613987565b60405180910390f35b3480156105ba57600080fd5b506105c361133f565b6040516105d09190613c69565b60405180910390f35b3480156105e557600080fd5b5061060060048036038101906105fb919061328f565b611345565b005b34801561060e57600080fd5b50610629600480360381019061062491906131c5565b6113d7565b005b34801561063757600080fd5b506106406113ed565b60405161064d9190613c69565b60405180910390f35b34801561066257600080fd5b5061067d6004803603810190610678919061314a565b6113f3565b005b34801561068b57600080fd5b506106a660048036038101906106a191906132d4565b611455565b6040516106b39190613987565b60405180910390f35b3480156106c857600080fd5b506106e360048036038101906106de91906132d4565b611533565b005b3480156106f157600080fd5b5061070c600480360381019061070791906132d4565b611671565b005b34801561071a57600080fd5b50610723611805565b6040516107309190613c69565b60405180910390f35b34801561074557600080fd5b5061074e61180b565b60405161075b9190613987565b60405180910390f35b34801561077057600080fd5b5061078b600480360381019061078691906130bf565b61182b565b6040516107989190613919565b60405180910390f35b3480156107ad57600080fd5b506107c860048036038101906107c39190613096565b6118bf565b005b3480156107d657600080fd5b506107f160048036038101906107ec91906132d4565b6119b7565b6040516107fe9190613c69565b60405180910390f35b60007f80ac58cd000000000000000000000000000000000000000000000000000000007bffffffffffffffffffffffffffffffffffffffffffffffffffffffff1916827bffffffffffffffffffffffffffffffffffffffffffffffffffffffff191614806108d257507f5b5e139f000000000000000000000000000000000000000000000000000000007bffffffffffffffffffffffffffffffffffffffffffffffffffffffff1916827bffffffffffffffffffffffffffffffffffffffffffffffffffffffff1916145b806108e257506108e1826119db565b5b9050919050565b6060600080546108f890613f2f565b80601f016020809104026020016040519081016040528092919081815260200182805461092490613f2f565b80156109715780601f1061094657610100808354040283529160200191610971565b820191906000526020600020905b81548152906001019060200180831161095457829003601f168201915b5050505050905090565b600061098682611a45565b6109c5576040517f08c379a00000000000000000000000000000000000000000000000000000000081526004016109bc90613b49565b60405180910390fd5b6004600083815260200190815260200160002060009054906101000a900473ffffffffffffffffffffffffffffffffffffffff169050919050565b6000610a0b82610f6d565b90508073ffffffffffffffffffffffffffffffffffffffff168373ffffffffffffffffffffffffffffffffffffffff161415610a7c576040517f08c379a0000000000000000000000000000000000000000000000000000000008152600401610a7390613bc9565b60405180910390fd5b8073ffffffffffffffffffffffffffffffffffffffff16610a9b611ab1565b73ffffffffffffffffffffffffffffffffffffffff161480610aca5750610ac981610ac4611ab1565b61182b565b5b610b09576040517f08c379a0000000000000000000000000000000000000000000000000000000008152600401610b0090613a89565b60405180910390fd5b610b138383611ab9565b505050565b610b20611ab1565b73ffffffffffffffffffffffffffffffffffffffff16610b3e611165565b73ffffffffffffffffffffffffffffffffffffffff1614610b94576040517f08c379a0000000000000000000000000000000000000000000000000000000008152600401610b8b90613b69565b60405180910390fd5b80600a8190555050565b6000600c8054905011610be6576040517f08c379a0000000000000000000000000000000000000000000000000000000008152600401610bdd90613c49565b60405180910390fd5b6000600a541480610c005750600a54610bfe3361101f565b105b610c3f576040517f08c379a0000000000000000000000000000000000000000000000000000000008152600401610c3690613b89565b60405180910390fd5b610c476112a7565b341015610c89576040517f08c379a0000000000000000000000000000000000000000000000000000000008152600401610c8090613c29565b60405180910390fd5b610c9233611b72565b565b7f000000000000000000000000000000000000000000000000000000000000000073ffffffffffffffffffffffffffffffffffffffff163373ffffffffffffffffffffffffffffffffffffffff1614610d4657337f00000000000000000000000000000000000000000000000000000000000000006040517f1cf993f4000000000000000000000000000000000000000000000000000000008152600401610d3d929190613859565b60405180910390fd5b610d508282611cdf565b5050565b610d65610d5f611ab1565b82611e73565b610da4576040517f08c379a0000000000000000000000000000000000000000000000000000000008152600401610d9b90613be9565b60405180910390fd5b610daf838383611f51565b505050565b6000600c80549050905090565b610dc9611ab1565b73ffffffffffffffffffffffffffffffffffffffff16610de7611165565b73ffffffffffffffffffffffffffffffffffffffff1614610e3d576040517f08c379a0000000000000000000000000000000000000000000000000000000008152600401610e3490613b69565b60405180910390fd5b3373ffffffffffffffffffffffffffffffffffffffff166108fc479081150290604051600060405180830381858888f19350505050158015610e83573d6000803e3d6000fd5b50565b610ea1838383604051806020016040528060008152506113f3565b505050565b6060600d805480602002602001604051908101604052809291908181526020018280548015610f2a57602002820191906000526020600020905b8160009054906101000a900473ffffffffffffffffffffffffffffffffffffffff1673ffffffffffffffffffffffffffffffffffffffff1681526020019060010190808311610ee0575b5050505050905090565b6040518060400160405280600581526020017f2e6a736f6e00000000000000000000000000000000000000000000000000000081525081565b6000806002600084815260200190815260200160002060009054906101000a900473ffffffffffffffffffffffffffffffffffffffff169050600073ffffffffffffffffffffffffffffffffffffffff168173ffffffffffffffffffffffffffffffffffffffff161415611016576040517f08c379a000000000000000000000000000000000000000000000000000000000815260040161100d90613ae9565b60405180910390fd5b80915050919050565b60008073ffffffffffffffffffffffffffffffffffffffff168273ffffffffffffffffffffffffffffffffffffffff161415611090576040517f08c379a000000000000000000000000000000000000000000000000000000000815260040161108790613ac9565b60405180910390fd5b600360008373ffffffffffffffffffffffffffffffffffffffff1673ffffffffffffffffffffffffffffffffffffffff168152602001908152602001600020549050919050565b6110df611ab1565b73ffffffffffffffffffffffffffffffffffffffff166110fd611165565b73ffffffffffffffffffffffffffffffffffffffff1614611153576040517f08c379a000000000000000000000000000000000000000000000000000000000815260040161114a90613b69565b60405180910390fd5b61115d60006121b8565b565b60095481565b6000600760009054906101000a900473ffffffffffffffffffffffffffffffffffffffff16905090565b611197611ab1565b73ffffffffffffffffffffffffffffffffffffffff166111b5611165565b73ffffffffffffffffffffffffffffffffffffffff161461120b576040517f08c379a000000000000000000000000000000000000000000000000000000000815260040161120290613b69565b60405180910390fd5b80600b8190555050565b60606001805461122490613f2f565b80601f016020809104026020016040519081016040528092919081815260200182805461125090613f2f565b801561129d5780601f106112725761010080835404028352916020019161129d565b820191906000526020600020905b81548152906001019060200180831161128057829003601f168201915b5050505050905090565b6000600b54905090565b600880546112be90613f2f565b80601f01602080910402602001604051908101604052809291908181526020018280546112ea90613f2f565b80156113375780601f1061130c57610100808354040283529160200191611337565b820191906000526020600020905b81548152906001019060200180831161131a57829003601f168201915b505050505081565b600b5481565b61134d611ab1565b73ffffffffffffffffffffffffffffffffffffffff1661136b611165565b73ffffffffffffffffffffffffffffffffffffffff16146113c1576040517f08c379a00000000000000000000000000000000000000000000000000000000081526004016113b890613b69565b60405180910390fd5b8181600891906113d2929190612da0565b505050565b6113e96113e2611ab1565b838361227e565b5050565b600a5481565b6114046113fe611ab1565b83611e73565b611443576040517f08c379a000000000000000000000000000000000000000000000000000000000815260040161143a90613be9565b60405180910390fd5b61144f848484846123eb565b50505050565b606061146082611a45565b61149f576040517f08c379a000000000000000000000000000000000000000000000000000000000815260040161149690613b09565b60405180910390fd5b60006114a9612447565b905060008151116114c9576040518060200160405280600081525061152b565b806114d3846124d9565b6040518060400160405280600581526020017f2e6a736f6e00000000000000000000000000000000000000000000000000000081525060405160200161151b9392919061380d565b6040516020818303038152906040525b915050919050565b61153c81610f6d565b73ffffffffffffffffffffffffffffffffffffffff163373ffffffffffffffffffffffffffffffffffffffff16146115a9576040517f08c379a00000000000000000000000000000000000000000000000000000000081526004016115a090613c09565b60405180910390fd5b33600d82815481106115e4577f4e487b7100000000000000000000000000000000000000000000000000000000600052603260045260246000fd5b9060005260206000200160006101000a81548173ffffffffffffffffffffffffffffffffffffffff021916908373ffffffffffffffffffffffffffffffffffffffff16021790555061163581612686565b7f222838db2794d11532d940e8dec38ae307ed0b63cd97c233322e221f998767a633826040516116669291906138ce565b60405180910390a150565b611679611ab1565b73ffffffffffffffffffffffffffffffffffffffff16611697611165565b73ffffffffffffffffffffffffffffffffffffffff16146116ed576040517f08c379a00000000000000000000000000000000000000000000000000000000081526004016116e490613b69565b60405180910390fd5b6000600c80549050905060095482826117069190613d82565b1115611747576040517f08c379a000000000000000000000000000000000000000000000000000000000815260040161173e90613aa9565b60405180910390fd5b6000600190505b82811161180057600c81836117639190613d82565b9080600181540180825580915050600190039060005260206000200160009091909190915055600d60009080600181540180825580915050600190039060005260206000200160009091909190916101000a81548173ffffffffffffffffffffffffffffffffffffffff021916908373ffffffffffffffffffffffffffffffffffffffff16021790555080806117f890613f92565b91505061174e565b505050565b60135481565b606060405180606001604052806036815260200161471c60369139905090565b6000600560008473ffffffffffffffffffffffffffffffffffffffff1673ffffffffffffffffffffffffffffffffffffffff16815260200190815260200160002060008373ffffffffffffffffffffffffffffffffffffffff1673ffffffffffffffffffffffffffffffffffffffff16815260200190815260200160002060009054906101000a900460ff16905092915050565b6118c7611ab1565b73ffffffffffffffffffffffffffffffffffffffff166118e5611165565b73ffffffffffffffffffffffffffffffffffffffff161461193b576040517f08c379a000000000000000000000000000000000000000000000000000000000815260040161193290613b69565b60405180910390fd5b600073ffffffffffffffffffffffffffffffffffffffff168173ffffffffffffffffffffffffffffffffffffffff1614156119ab576040517f08c379a00000000000000000000000000000000000000000000000000000000081526004016119a2906139c9565b60405180910390fd5b6119b4816121b8565b50565b601281815481106119c757600080fd5b906000526020600020016000915090505481565b60007f01ffc9a7000000000000000000000000000000000000000000000000000000007bffffffffffffffffffffffffffffffffffffffffffffffffffffffff1916827bffffffffffffffffffffffffffffffffffffffffffffffffffffffff1916149050919050565b60008073ffffffffffffffffffffffffffffffffffffffff166002600084815260200190815260200160002060009054906101000a900473ffffffffffffffffffffffffffffffffffffffff1673ffffffffffffffffffffffffffffffffffffffff1614159050919050565b600033905090565b816004600083815260200190815260200160002060006101000a81548173ffffffffffffffffffffffffffffffffffffffff021916908373ffffffffffffffffffffffffffffffffffffffff160217905550808273ffffffffffffffffffffffffffffffffffffffff16611b2c83610f6d565b73ffffffffffffffffffffffffffffffffffffffff167f8c5be1e5ebec7d5bd14f71427d1e84f3dd0314c0f7b2291e5b200ac8c7c3b92560405160405180910390a45050565b600e60089054906101000a900473ffffffffffffffffffffffffffffffffffffffff1673ffffffffffffffffffffffffffffffffffffffff16635d3b1d30601054600e60009054906101000a900467ffffffffffffffff16601160049054906101000a900461ffff16601160009054906101000a900463ffffffff16601160069054906101000a900463ffffffff166040518663ffffffff1660e01b8152600401611c21959493929190613934565b602060405180830381600087803b158015611c3b57600080fd5b505af1158015611c4f573d6000803e3d6000fd5b505050506040513d601f19601f82011682018060405250810190611c7391906132fd565b6013819055506014819080600181540180825580915050600190039060005260206000200160009091909190916101000a81548173ffffffffffffffffffffffffffffffffffffffff021916908373ffffffffffffffffffffffffffffffffffffffff16021790555050565b600060148054905011611d27576040517f08c379a0000000000000000000000000000000000000000000000000000000008152600401611d1e90613ba9565b60405180910390fd5b8060129080519060200190611d3d929190612e26565b50611e0260146001601480549050611d559190613e09565b81548110611d8c577f4e487b7100000000000000000000000000000000000000000000000000000000600052603260045260246000fd5b9060005260206000200160009054906101000a900473ffffffffffffffffffffffffffffffffffffffff166012600081548110611df2577f4e487b7100000000000000000000000000000000000000000000000000000000600052603260045260246000fd5b90600052602060002001546126d9565b6014805480611e3a577f4e487b7100000000000000000000000000000000000000000000000000000000600052603160045260246000fd5b6001900381819060005260206000200160006101000a81549073ffffffffffffffffffffffffffffffffffffffff021916905590555050565b6000611e7e82611a45565b611ebd576040517f08c379a0000000000000000000000000000000000000000000000000000000008152600401611eb490613a69565b60405180910390fd5b6000611ec883610f6d565b90508073ffffffffffffffffffffffffffffffffffffffff168473ffffffffffffffffffffffffffffffffffffffff161480611f3757508373ffffffffffffffffffffffffffffffffffffffff16611f1f8461097b565b73ffffffffffffffffffffffffffffffffffffffff16145b80611f485750611f47818561182b565b5b91505092915050565b8273ffffffffffffffffffffffffffffffffffffffff16611f7182610f6d565b73ffffffffffffffffffffffffffffffffffffffff1614611fc7576040517f08c379a0000000000000000000000000000000000000000000000000000000008152600401611fbe906139e9565b60405180910390fd5b600073ffffffffffffffffffffffffffffffffffffffff168273ffffffffffffffffffffffffffffffffffffffff161415612037576040517f08c379a000000000000000000000000000000000000000000000000000000000815260040161202e90613a29565b60405180910390fd5b61204283838361286c565b61204d600082611ab9565b6001600360008573ffffffffffffffffffffffffffffffffffffffff1673ffffffffffffffffffffffffffffffffffffffff168152602001908152602001600020600082825461209d9190613e09565b925050819055506001600360008473ffffffffffffffffffffffffffffffffffffffff1673ffffffffffffffffffffffffffffffffffffffff16815260200190815260200160002060008282546120f49190613d82565b92505081905550816002600083815260200190815260200160002060006101000a81548173ffffffffffffffffffffffffffffffffffffffff021916908373ffffffffffffffffffffffffffffffffffffffff160217905550808273ffffffffffffffffffffffffffffffffffffffff168473ffffffffffffffffffffffffffffffffffffffff167fddf252ad1be2c89b69c2b068fc378daa952ba7f163c4a11628f55a4df523b3ef60405160405180910390a46121b3838383612871565b505050565b6000600760009054906101000a900473ffffffffffffffffffffffffffffffffffffffff16905081600760006101000a81548173ffffffffffffffffffffffffffffffffffffffff021916908373ffffffffffffffffffffffffffffffffffffffff1602179055508173ffffffffffffffffffffffffffffffffffffffff168173ffffffffffffffffffffffffffffffffffffffff167f8be0079c531659141344cd1fd0a4f28419497f9722a3daafe3b4186f6b6457e060405160405180910390a35050565b8173ffffffffffffffffffffffffffffffffffffffff168373ffffffffffffffffffffffffffffffffffffffff1614156122ed576040517f08c379a00000000000000000000000000000000000000000000000000000000081526004016122e490613a49565b60405180910390fd5b80600560008573ffffffffffffffffffffffffffffffffffffffff1673ffffffffffffffffffffffffffffffffffffffff16815260200190815260200160002060008473ffffffffffffffffffffffffffffffffffffffff1673ffffffffffffffffffffffffffffffffffffffff16815260200190815260200160002060006101000a81548160ff0219169083151502179055508173ffffffffffffffffffffffffffffffffffffffff168373ffffffffffffffffffffffffffffffffffffffff167f17307eab39ab6107e8899845ad3d59bd9653f200f220920489ca2b5937696c31836040516123de9190613919565b60405180910390a3505050565b6123f6848484611f51565b61240284848484612876565b612441576040517f08c379a0000000000000000000000000000000000000000000000000000000008152600401612438906139a9565b60405180910390fd5b50505050565b60606008805461245690613f2f565b80601f016020809104026020016040519081016040528092919081815260200182805461248290613f2f565b80156124cf5780601f106124a4576101008083540402835291602001916124cf565b820191906000526020600020905b8154815290600101906020018083116124b257829003601f168201915b5050505050905090565b60606000821415612521576040518060400160405280600181526020017f30000000000000000000000000000000000000000000000000000000000000008152509050612681565b600082905060005b6000821461255357808061253c90613f92565b915050600a8261254c9190613dd8565b9150612529565b60008167ffffffffffffffff811115612595577f4e487b7100000000000000000000000000000000000000000000000000000000600052604160045260246000fd5b6040519080825280601f01601f1916602001820160405280156125c75781602001600182028036833780820191505090505b5090505b6000851461267a576001826125e09190613e09565b9150600a856125ef9190613fdb565b60306125fb9190613d82565b60f81b818381518110612637577f4e487b7100000000000000000000000000000000000000000000000000000000600052603260045260246000fd5b60200101907effffffffffffffffffffffffffffffffffffffffffffffffffffffffffffff1916908160001a905350600a856126739190613dd8565b94506125cb565b8093505050505b919050565b61268f81612a0d565b60006006600083815260200190815260200160002080546126af90613f2f565b9050146126d6576006600082815260200190815260200160002060006126d59190612e73565b5b50565b6000600c80549050826126ec9190613fdb565b90506000600c828154811061272a577f4e487b7100000000000000000000000000000000000000000000000000000000600052603260045260246000fd5b90600052602060002001549050600c6001600c8054905061274b9190613e09565b81548110612782577f4e487b7100000000000000000000000000000000000000000000000000000000600052603260045260246000fd5b9060005260206000200154600c83815481106127c7577f4e487b7100000000000000000000000000000000000000000000000000000000600052603260045260246000fd5b9060005260206000200181905550600c80548061280d577f4e487b7100000000000000000000000000000000000000000000000000000000600052603160045260246000fd5b6001900381819060005260206000200160009055905561282d8482612b2a565b7f76020ece75bf679c701e656fcffc7e3df8354859b3b0eb7fee42b1378023bb31848260405161285e9291906138ce565b60405180910390a150505050565b505050565b505050565b60006128978473ffffffffffffffffffffffffffffffffffffffff16612b48565b15612a00578373ffffffffffffffffffffffffffffffffffffffff1663150b7a026128c0611ab1565b8786866040518563ffffffff1660e01b81526004016128e29493929190613882565b602060405180830381600087803b1580156128fc57600080fd5b505af192505050801561292d57506040513d601f19601f8201168201806040525081019061292a9190613266565b60015b6129b0573d806000811461295d576040519150601f19603f3d011682016040523d82523d6000602084013e612962565b606091505b506000815114156129a8576040517f08c379a000000000000000000000000000000000000000000000000000000000815260040161299f906139a9565b60405180910390fd5b805181602001fd5b63150b7a0260e01b7bffffffffffffffffffffffffffffffffffffffffffffffffffffffff1916817bffffffffffffffffffffffffffffffffffffffffffffffffffffffff191614915050612a05565b600190505b949350505050565b6000612a1882610f6d565b9050612a268160008461286c565b612a31600083611ab9565b6001600360008373ffffffffffffffffffffffffffffffffffffffff1673ffffffffffffffffffffffffffffffffffffffff1681526020019081526020016000206000828254612a819190613e09565b925050819055506002600083815260200190815260200160002060006101000a81549073ffffffffffffffffffffffffffffffffffffffff021916905581600073ffffffffffffffffffffffffffffffffffffffff168273ffffffffffffffffffffffffffffffffffffffff167fddf252ad1be2c89b69c2b068fc378daa952ba7f163c4a11628f55a4df523b3ef60405160405180910390a4612b2681600084612871565b5050565b612b44828260405180602001604052806000815250612b6b565b5050565b6000808273ffffffffffffffffffffffffffffffffffffffff163b119050919050565b612b758383612bc6565b612b826000848484612876565b612bc1576040517f08c379a0000000000000000000000000000000000000000000000000000000008152600401612bb8906139a9565b60405180910390fd5b505050565b600073ffffffffffffffffffffffffffffffffffffffff168273ffffffffffffffffffffffffffffffffffffffff161415612c36576040517f08c379a0000000000000000000000000000000000000000000000000000000008152600401612c2d90613b29565b60405180910390fd5b612c3f81611a45565b15612c7f576040517f08c379a0000000000000000000000000000000000000000000000000000000008152600401612c7690613a09565b60405180910390fd5b612c8b6000838361286c565b6001600360008473ffffffffffffffffffffffffffffffffffffffff1673ffffffffffffffffffffffffffffffffffffffff1681526020019081526020016000206000828254612cdb9190613d82565b92505081905550816002600083815260200190815260200160002060006101000a81548173ffffffffffffffffffffffffffffffffffffffff021916908373ffffffffffffffffffffffffffffffffffffffff160217905550808273ffffffffffffffffffffffffffffffffffffffff16600073ffffffffffffffffffffffffffffffffffffffff167fddf252ad1be2c89b69c2b068fc378daa952ba7f163c4a11628f55a4df523b3ef60405160405180910390a4612d9c60008383612871565b5050565b828054612dac90613f2f565b90600052602060002090601f016020900481019282612dce5760008555612e15565b82601f10612de757803560ff1916838001178555612e15565b82800160010185558215612e15579182015b82811115612e14578235825591602001919060010190612df9565b5b509050612e229190612eb3565b5090565b828054828255906000526020600020908101928215612e62579160200282015b82811115612e61578251825591602001919060010190612e46565b5b509050612e6f9190612eb3565b5090565b508054612e7f90613f2f565b6000825580601f10612e915750612eb0565b601f016020900490600052602060002090810190612eaf9190612eb3565b5b50565b5b80821115612ecc576000816000905550600101612eb4565b5090565b6000612ee3612ede84613ca9565b613c84565b90508083825260208201905082856020860282011115612f0257600080fd5b60005b85811015612f325781612f18888261306c565b845260208401935060208301925050600181019050612f05565b5050509392505050565b6000612f4f612f4a84613cd5565b613c84565b905082815260208101848484011115612f6757600080fd5b612f72848285613eed565b509392505050565b600081359050612f89816146bf565b92915050565b600082601f830112612fa057600080fd5b8135612fb0848260208601612ed0565b91505092915050565b600081359050612fc8816146d6565b92915050565b600081359050612fdd816146ed565b92915050565b600081519050612ff2816146ed565b92915050565b600082601f83011261300957600080fd5b8135613019848260208601612f3c565b91505092915050565b60008083601f84011261303457600080fd5b8235905067ffffffffffffffff81111561304d57600080fd5b60208301915083600182028301111561306557600080fd5b9250929050565b60008135905061307b81614704565b92915050565b60008151905061309081614704565b92915050565b6000602082840312156130a857600080fd5b60006130b684828501612f7a565b91505092915050565b600080604083850312156130d257600080fd5b60006130e085828601612f7a565b92505060206130f185828601612f7a565b9150509250929050565b60008060006060848603121561311057600080fd5b600061311e86828701612f7a565b935050602061312f86828701612f7a565b92505060406131408682870161306c565b9150509250925092565b6000806000806080858703121561316057600080fd5b600061316e87828801612f7a565b945050602061317f87828801612f7a565b93505060406131908782880161306c565b925050606085013567ffffffffffffffff8111156131ad57600080fd5b6131b987828801612ff8565b91505092959194509250565b600080604083850312156131d857600080fd5b60006131e685828601612f7a565b92505060206131f785828601612fb9565b9150509250929050565b6000806040838503121561321457600080fd5b600061322285828601612f7a565b92505060206132338582860161306c565b9150509250929050565b60006020828403121561324f57600080fd5b600061325d84828501612fce565b91505092915050565b60006020828403121561327857600080fd5b600061328684828501612fe3565b91505092915050565b600080602083850312156132a257600080fd5b600083013567ffffffffffffffff8111156132bc57600080fd5b6132c885828601613022565b92509250509250929050565b6000602082840312156132e657600080fd5b60006132f48482850161306c565b91505092915050565b60006020828403121561330f57600080fd5b600061331d84828501613081565b91505092915050565b6000806040838503121561333957600080fd5b60006133478582860161306c565b925050602083013567ffffffffffffffff81111561336457600080fd5b61337085828601612f8f565b9150509250929050565b60006133868383613392565b60208301905092915050565b61339b81613e3d565b82525050565b6133aa81613e3d565b82525050565b60006133bb82613d16565b6133c58185613d44565b93506133d083613d06565b8060005b838110156134015781516133e8888261337a565b97506133f383613d37565b9250506001810190506133d4565b5085935050505092915050565b61341781613e4f565b82525050565b61342681613e5b565b82525050565b600061343782613d21565b6134418185613d55565b9350613451818560208601613efc565b61345a816140c8565b840191505092915050565b600061347082613d2c565b61347a8185613d66565b935061348a818560208601613efc565b613493816140c8565b840191505092915050565b60006134a982613d2c565b6134b38185613d77565b93506134c3818560208601613efc565b80840191505092915050565b60006134dc603283613d66565b91506134e7826140d9565b604082019050919050565b60006134ff602683613d66565b915061350a82614128565b604082019050919050565b6000613522602583613d66565b915061352d82614177565b604082019050919050565b6000613545601c83613d66565b9150613550826141c6565b602082019050919050565b6000613568602483613d66565b9150613573826141ef565b604082019050919050565b600061358b601983613d66565b91506135968261423e565b602082019050919050565b60006135ae602c83613d66565b91506135b982614267565b604082019050919050565b60006135d1603883613d66565b91506135dc826142b6565b604082019050919050565b60006135f4603183613d66565b91506135ff82614305565b604082019050919050565b6000613617602a83613d66565b915061362282614354565b604082019050919050565b600061363a602983613d66565b9150613645826143a3565b604082019050919050565b600061365d603083613d66565b9150613668826143f2565b604082019050919050565b6000613680602083613d66565b915061368b82614441565b602082019050919050565b60006136a3602c83613d66565b91506136ae8261446a565b604082019050919050565b60006136c6602083613d66565b91506136d1826144b9565b602082019050919050565b60006136e9602283613d66565b91506136f4826144e2565b604082019050919050565b600061370c601283613d66565b915061371782614531565b602082019050919050565b600061372f602183613d66565b915061373a8261455a565b604082019050919050565b6000613752603183613d66565b915061375d826145a9565b604082019050919050565b6000613775602383613d66565b9150613780826145f8565b604082019050919050565b6000613798602183613d66565b91506137a382614647565b604082019050919050565b60006137bb601983613d66565b91506137c682614696565b602082019050919050565b6137da81613e91565b82525050565b6137e981613ebf565b82525050565b6137f881613ec9565b82525050565b61380781613ed9565b82525050565b6000613819828661349e565b9150613825828561349e565b9150613831828461349e565b9150819050949350505050565b600060208201905061385360008301846133a1565b92915050565b600060408201905061386e60008301856133a1565b61387b60208301846133a1565b9392505050565b600060808201905061389760008301876133a1565b6138a460208301866133a1565b6138b160408301856137e0565b81810360608301526138c3818461342c565b905095945050505050565b60006040820190506138e360008301856133a1565b6138f060208301846137e0565b9392505050565b6000602082019050818103600083015261391181846133b0565b905092915050565b600060208201905061392e600083018461340e565b92915050565b600060a082019050613949600083018861341d565b61395660208301876137fe565b61396360408301866137d1565b61397060608301856137ef565b61397d60808301846137ef565b9695505050505050565b600060208201905081810360008301526139a18184613465565b905092915050565b600060208201905081810360008301526139c2816134cf565b9050919050565b600060208201905081810360008301526139e2816134f2565b9050919050565b60006020820190508181036000830152613a0281613515565b9050919050565b60006020820190508181036000830152613a2281613538565b9050919050565b60006020820190508181036000830152613a428161355b565b9050919050565b60006020820190508181036000830152613a628161357e565b9050919050565b60006020820190508181036000830152613a82816135a1565b9050919050565b60006020820190508181036000830152613aa2816135c4565b9050919050565b60006020820190508181036000830152613ac2816135e7565b9050919050565b60006020820190508181036000830152613ae28161360a565b9050919050565b60006020820190508181036000830152613b028161362d565b9050919050565b60006020820190508181036000830152613b2281613650565b9050919050565b60006020820190508181036000830152613b4281613673565b9050919050565b60006020820190508181036000830152613b6281613696565b9050919050565b60006020820190508181036000830152613b82816136b9565b9050919050565b60006020820190508181036000830152613ba2816136dc565b9050919050565b60006020820190508181036000830152613bc2816136ff565b9050919050565b60006020820190508181036000830152613be281613722565b9050919050565b60006020820190508181036000830152613c0281613745565b9050919050565b60006020820190508181036000830152613c2281613768565b9050919050565b60006020820190508181036000830152613c428161378b565b9050919050565b60006020820190508181036000830152613c62816137ae565b9050919050565b6000602082019050613c7e60008301846137e0565b92915050565b6000613c8e613c9f565b9050613c9a8282613f61565b919050565b6000604051905090565b600067ffffffffffffffff821115613cc457613cc3614099565b5b602082029050602081019050919050565b600067ffffffffffffffff821115613cf057613cef614099565b5b613cf9826140c8565b9050602081019050919050565b6000819050602082019050919050565b600081519050919050565b600081519050919050565b600081519050919050565b6000602082019050919050565b600082825260208201905092915050565b600082825260208201905092915050565b600082825260208201905092915050565b600081905092915050565b6000613d8d82613ebf565b9150613d9883613ebf565b9250827fffffffffffffffffffffffffffffffffffffffffffffffffffffffffffffffff03821115613dcd57613dcc61400c565b5b828201905092915050565b6000613de382613ebf565b9150613dee83613ebf565b925082613dfe57613dfd61403b565b5b828204905092915050565b6000613e1482613ebf565b9150613e1f83613ebf565b925082821015613e3257613e3161400c565b5b828203905092915050565b6000613e4882613e9f565b9050919050565b60008115159050919050565b6000819050919050565b60007fffffffff0000000000000000000000000000000000000000000000000000000082169050919050565b600061ffff82169050919050565b600073ffffffffffffffffffffffffffffffffffffffff82169050919050565b6000819050919050565b600063ffffffff82169050919050565b600067ffffffffffffffff82169050919050565b82818337600083830152505050565b60005b83811015613f1a578082015181840152602081019050613eff565b83811115613f29576000848401525b50505050565b60006002820490506001821680613f4757607f821691505b60208210811415613f5b57613f5a61406a565b5b50919050565b613f6a826140c8565b810181811067ffffffffffffffff82111715613f8957613f88614099565b5b80604052505050565b6000613f9d82613ebf565b91507fffffffffffffffffffffffffffffffffffffffffffffffffffffffffffffffff821415613fd057613fcf61400c565b5b600182019050919050565b6000613fe682613ebf565b9150613ff183613ebf565b9250826140015761400061403b565b5b828206905092915050565b7f4e487b7100000000000000000000000000000000000000000000000000000000600052601160045260246000fd5b7f4e487b7100000000000000000000000000000000000000000000000000000000600052601260045260246000fd5b7f4e487b7100000000000000000000000000000000000000000000000000000000600052602260045260246000fd5b7f4e487b7100000000000000000000000000000000000000000000000000000000600052604160045260246000fd5b6000601f19601f8301169050919050565b7f4552433732313a207472616e7366657220746f206e6f6e20455243373231526560008201527f63656976657220696d706c656d656e7465720000000000000000000000000000602082015250565b7f4f776e61626c653a206e6577206f776e657220697320746865207a65726f206160008201527f6464726573730000000000000000000000000000000000000000000000000000602082015250565b7f4552433732313a207472616e736665722066726f6d20696e636f72726563742060008201527f6f776e6572000000000000000000000000000000000000000000000000000000602082015250565b7f4552433732313a20746f6b656e20616c7265616479206d696e74656400000000600082015250565b7f4552433732313a207472616e7366657220746f20746865207a65726f2061646460008201527f7265737300000000000000000000000000000000000000000000000000000000602082015250565b7f4552433732313a20617070726f766520746f2063616c6c657200000000000000600082015250565b7f4552433732313a206f70657261746f7220717565727920666f72206e6f6e657860008201527f697374656e7420746f6b656e0000000000000000000000000000000000000000602082015250565b7f4552433732313a20617070726f76652063616c6c6572206973206e6f74206f7760008201527f6e6572206e6f7220617070726f76656420666f7220616c6c0000000000000000602082015250565b7f43616e6e6f7420657870656e642074686520617272617973206d6f726520746860008201527f616e20746865206d61785f737570706c79000000000000000000000000000000602082015250565b7f4552433732313a2062616c616e636520717565727920666f7220746865207a6560008201527f726f206164647265737300000000000000000000000000000000000000000000602082015250565b7f4552433732313a206f776e657220717565727920666f72206e6f6e657869737460008201527f656e7420746f6b656e0000000000000000000000000000000000000000000000602082015250565b7f4552433732314d657461646174613a2055524920717565727920666f72206e6f60008201527f6e6578697374656e7420746f6b656e2000000000000000000000000000000000602082015250565b7f4552433732313a206d696e7420746f20746865207a65726f2061646472657373600082015250565b7f4552433732313a20617070726f76656420717565727920666f72206e6f6e657860008201527f697374656e7420746f6b656e0000000000000000000000000000000000000000602082015250565b7f4f776e61626c653a2063616c6c6572206973206e6f7420746865206f776e6572600082015250565b7f456163682061646472657373206d6179206f6e6c79206d696e742078204e465460008201527f7321000000000000000000000000000000000000000000000000000000000000602082015250565b7f4e6f206d696e74657220696e2071756575650000000000000000000000000000600082015250565b7f4552433732313a20617070726f76616c20746f2063757272656e74206f776e6560008201527f7200000000000000000000000000000000000000000000000000000000000000602082015250565b7f4552433732313a207472616e736665722063616c6c6572206973206e6f74206f60008201527f776e6572206e6f7220617070726f766564000000000000000000000000000000602082015250565b7f596f7520617265206e6f7420746865206f776e6572206f66207468697320746f60008201527f6b656e0000000000000000000000000000000000000000000000000000000000602082015250565b7f4e6f7420656e6f756768204554482073656e743b20636865636b20707269636560008201527f2100000000000000000000000000000000000000000000000000000000000000602082015250565b7f4e6f206d6f726520746f6b656e7320617661696c61626c652100000000000000600082015250565b6146c881613e3d565b81146146d357600080fd5b50565b6146df81613e4f565b81146146ea57600080fd5b50565b6146f681613e65565b811461470157600080fd5b50565b61470d81613ebf565b811461471857600080fd5b5056fe697066733a2f2f516d615965624b337a4566487066416d7652447648423562374d6d675259536563425936397059665063617432322fa264697066735822122067c6884c22ee694e3f29dd4afcb843c6bac610448d54ac6dd176de5f4a5a693a64736f6c63430008040033697066733a2f2f516d4e506939336f796e776f69374e6d486d573741425467704d666151746d784b4a6f786d7058734a484e67474b2f",
  "linkReferences": {},
  "deployedLinkReferences": {}
}