{
  "_format": "hh-sol-artifact-1",
  "contractName": "NFT",
  "sourceName": "src/backend/contracts/NFT.sol",
  "abi": [
    {
      "inputs": [
        {
          "internalType": "address",
          "name": "ownerAddress",
          "type": "address"
        },
        {
          "internalType": "uint64",
          "name": "subscriptionId",
          "type": "uint64"
        }
      ],
      "stateMutability": "nonpayable",
      "type": "constructor"
    },
    {
      "inputs": [
        {
          "internalType": "address",
          "name": "have",
          "type": "address"
        },
        {
          "internalType": "address",
          "name": "want",
          "type": "address"
        }
      ],
      "name": "OnlyCoordinatorCanFulfill",
      "type": "error"
    },
    {
      "anonymous": false,
      "inputs": [
        {
          "indexed": true,
          "internalType": "address",
          "name": "owner",
          "type": "address"
        },
        {
          "indexed": true,
          "internalType": "address",
          "name": "approved",
          "type": "address"
        },
        {
          "indexed": true,
          "internalType": "uint256",
          "name": "tokenId",
          "type": "uint256"
        }
      ],
      "name": "Approval",
      "type": "event"
    },
    {
      "anonymous": false,
      "inputs": [
        {
          "indexed": true,
          "internalType": "address",
          "name": "owner",
          "type": "address"
        },
        {
          "indexed": true,
          "internalType": "address",
          "name": "operator",
          "type": "address"
        },
        {
          "indexed": false,
          "internalType": "bool",
          "name": "approved",
          "type": "bool"
        }
      ],
      "name": "ApprovalForAll",
      "type": "event"
    },
    {
      "anonymous": false,
      "inputs": [
        {
          "indexed": false,
          "internalType": "address",
          "name": "user",
          "type": "address"
        },
        {
          "indexed": false,
          "internalType": "uint256",
          "name": "tokenId",
          "type": "uint256"
        }
      ],
      "name": "MintSuccessful",
      "type": "event"
    },
    {
      "anonymous": false,
      "inputs": [
        {
          "indexed": true,
          "internalType": "address",
          "name": "previousOwner",
          "type": "address"
        },
        {
          "indexed": true,
          "internalType": "address",
          "name": "newOwner",
          "type": "address"
        }
      ],
      "name": "OwnershipTransferred",
      "type": "event"
    },
    {
      "anonymous": false,
      "inputs": [
        {
          "indexed": false,
          "internalType": "address",
          "name": "user",
          "type": "address"
        },
        {
          "indexed": false,
          "internalType": "uint256",
          "name": "tokenId",
          "type": "uint256"
        }
      ],
      "name": "Redeem",
      "type": "event"
    },
    {
      "anonymous": false,
      "inputs": [
        {
          "indexed": true,
          "internalType": "address",
          "name": "from",
          "type": "address"
        },
        {
          "indexed": true,
          "internalType": "address",
          "name": "to",
          "type": "address"
        },
        {
          "indexed": true,
          "internalType": "uint256",
          "name": "tokenId",
          "type": "uint256"
        }
      ],
      "name": "Transfer",
      "type": "event"
    },
    {
      "inputs": [],
      "name": "amountMintPerAccount",
      "outputs": [
        {
          "internalType": "uint256",
          "name": "",
          "type": "uint256"
        }
      ],
      "stateMutability": "view",
      "type": "function"
    },
    {
      "inputs": [
        {
          "internalType": "address",
          "name": "to",
          "type": "address"
        },
        {
          "internalType": "uint256",
          "name": "tokenId",
          "type": "uint256"
        }
      ],
      "name": "approve",
      "outputs": [],
      "stateMutability": "nonpayable",
      "type": "function"
    },
    {
      "inputs": [
        {
          "internalType": "address",
          "name": "owner",
          "type": "address"
        }
      ],
      "name": "balanceOf",
      "outputs": [
        {
          "internalType": "uint256",
          "name": "",
          "type": "uint256"
        }
      ],
      "stateMutability": "view",
      "type": "function"
    },
    {
      "inputs": [],
      "name": "baseUri",
      "outputs": [
        {
          "internalType": "string",
          "name": "",
          "type": "string"
        }
      ],
      "stateMutability": "view",
      "type": "function"
    },
    {
      "inputs": [
        {
          "internalType": "uint256",
          "name": "tokenId",
          "type": "uint256"
        }
      ],
      "name": "getApproved",
      "outputs": [
        {
          "internalType": "address",
          "name": "",
          "type": "address"
        }
      ],
      "stateMutability": "view",
      "type": "function"
    },
    {
      "inputs": [],
      "name": "getPrice",
      "outputs": [
        {
          "internalType": "uint256",
          "name": "",
          "type": "uint256"
        }
      ],
      "stateMutability": "view",
      "type": "function"
    },
    {
      "inputs": [],
      "name": "getRedeemedTokens",
      "outputs": [
        {
          "internalType": "address[]",
          "name": "",
          "type": "address[]"
        }
      ],
      "stateMutability": "view",
      "type": "function"
    },
    {
      "inputs": [],
      "name": "initializeArrays",
      "outputs": [],
      "stateMutability": "nonpayable",
      "type": "function"
    },
    {
      "inputs": [
        {
          "internalType": "address",
          "name": "owner",
          "type": "address"
        },
        {
          "internalType": "address",
          "name": "operator",
          "type": "address"
        }
      ],
      "name": "isApprovedForAll",
      "outputs": [
        {
          "internalType": "bool",
          "name": "",
          "type": "bool"
        }
      ],
      "stateMutability": "view",
      "type": "function"
    },
    {
      "inputs": [],
      "name": "max_supply",
      "outputs": [
        {
          "internalType": "uint256",
          "name": "",
          "type": "uint256"
        }
      ],
      "stateMutability": "view",
      "type": "function"
    },
    {
      "inputs": [],
      "name": "mint",
      "outputs": [],
      "stateMutability": "payable",
      "type": "function"
    },
    {
      "inputs": [],
      "name": "name",
      "outputs": [
        {
          "internalType": "string",
          "name": "",
          "type": "string"
        }
      ],
      "stateMutability": "view",
      "type": "function"
    },
    {
      "inputs": [],
      "name": "owner",
      "outputs": [
        {
          "internalType": "address",
          "name": "",
          "type": "address"
        }
      ],
      "stateMutability": "view",
      "type": "function"
    },
    {
      "inputs": [
        {
          "internalType": "uint256",
          "name": "tokenId",
          "type": "uint256"
        }
      ],
      "name": "ownerOf",
      "outputs": [
        {
          "internalType": "address",
          "name": "",
          "type": "address"
        }
      ],
      "stateMutability": "view",
      "type": "function"
    },
    {
      "inputs": [],
      "name": "price",
      "outputs": [
        {
          "internalType": "uint256",
          "name": "",
          "type": "uint256"
        }
      ],
      "stateMutability": "view",
      "type": "function"
    },
    {
      "inputs": [
        {
          "internalType": "uint256",
          "name": "requestId",
          "type": "uint256"
        },
        {
          "internalType": "uint256[]",
          "name": "randomWords",
          "type": "uint256[]"
        }
      ],
      "name": "rawFulfillRandomWords",
      "outputs": [],
      "stateMutability": "nonpayable",
      "type": "function"
    },
    {
      "inputs": [
        {
          "internalType": "uint256",
          "name": "_tokenId",
          "type": "uint256"
        }
      ],
      "name": "redeemAndBurn",
      "outputs": [],
      "stateMutability": "nonpayable",
      "type": "function"
    },
    {
      "inputs": [],
      "name": "renounceOwnership",
      "outputs": [],
      "stateMutability": "nonpayable",
      "type": "function"
    },
    {
      "inputs": [
        {
          "internalType": "uint256",
          "name": "",
          "type": "uint256"
        }
      ],
      "name": "s_randomWords",
      "outputs": [
        {
          "internalType": "uint256",
          "name": "",
          "type": "uint256"
        }
      ],
      "stateMutability": "view",
      "type": "function"
    },
    {
      "inputs": [],
      "name": "s_requestId",
      "outputs": [
        {
          "internalType": "uint256",
          "name": "",
          "type": "uint256"
        }
      ],
      "stateMutability": "view",
      "type": "function"
    },
    {
      "inputs": [
        {
          "internalType": "address",
          "name": "from",
          "type": "address"
        },
        {
          "internalType": "address",
          "name": "to",
          "type": "address"
        },
        {
          "internalType": "uint256",
          "name": "tokenId",
          "type": "uint256"
        }
      ],
      "name": "safeTransferFrom",
      "outputs": [],
      "stateMutability": "nonpayable",
      "type": "function"
    },
    {
      "inputs": [
        {
          "internalType": "address",
          "name": "from",
          "type": "address"
        },
        {
          "internalType": "address",
          "name": "to",
          "type": "address"
        },
        {
          "internalType": "uint256",
          "name": "tokenId",
          "type": "uint256"
        },
        {
          "internalType": "bytes",
          "name": "_data",
          "type": "bytes"
        }
      ],
      "name": "safeTransferFrom",
      "outputs": [],
      "stateMutability": "nonpayable",
      "type": "function"
    },
    {
      "inputs": [
        {
          "internalType": "uint256",
          "name": "_amountMintPerAccount",
          "type": "uint256"
        }
      ],
      "name": "setAmountMintPerAccount",
      "outputs": [],
      "stateMutability": "nonpayable",
      "type": "function"
    },
    {
      "inputs": [
        {
          "internalType": "address",
          "name": "operator",
          "type": "address"
        },
        {
          "internalType": "bool",
          "name": "approved",
          "type": "bool"
        }
      ],
      "name": "setApprovalForAll",
      "outputs": [],
      "stateMutability": "nonpayable",
      "type": "function"
    },
    {
      "inputs": [
        {
          "internalType": "string",
          "name": "_baseUri",
          "type": "string"
        }
      ],
      "name": "setBaseUri",
      "outputs": [],
      "stateMutability": "nonpayable",
      "type": "function"
    },
    {
      "inputs": [
        {
          "internalType": "uint256",
          "name": "_price",
          "type": "uint256"
        }
      ],
      "name": "setPrice",
      "outputs": [],
      "stateMutability": "nonpayable",
      "type": "function"
    },
    {
      "inputs": [
        {
          "internalType": "bytes4",
          "name": "interfaceId",
          "type": "bytes4"
        }
      ],
      "name": "supportsInterface",
      "outputs": [
        {
          "internalType": "bool",
          "name": "",
          "type": "bool"
        }
      ],
      "stateMutability": "view",
      "type": "function"
    },
    {
      "inputs": [],
      "name": "symbol",
      "outputs": [
        {
          "internalType": "string",
          "name": "",
          "type": "string"
        }
      ],
      "stateMutability": "view",
      "type": "function"
    },
    {
      "inputs": [
        {
          "internalType": "uint256",
          "name": "_tokenId",
          "type": "uint256"
        }
      ],
      "name": "tokenURI",
      "outputs": [
        {
          "internalType": "string",
          "name": "",
          "type": "string"
        }
      ],
      "stateMutability": "view",
      "type": "function"
    },
    {
      "inputs": [
        {
          "internalType": "address",
          "name": "from",
          "type": "address"
        },
        {
          "internalType": "address",
          "name": "to",
          "type": "address"
        },
        {
          "internalType": "uint256",
          "name": "tokenId",
          "type": "uint256"
        }
      ],
      "name": "transferFrom",
      "outputs": [],
      "stateMutability": "nonpayable",
      "type": "function"
    },
    {
      "inputs": [
        {
          "internalType": "address",
          "name": "newOwner",
          "type": "address"
        }
      ],
      "name": "transferOwnership",
      "outputs": [],
      "stateMutability": "nonpayable",
      "type": "function"
    },
    {
      "inputs": [],
      "name": "uriSuffix",
      "outputs": [
        {
          "internalType": "string",
          "name": "",
          "type": "string"
        }
      ],
      "stateMutability": "view",
      "type": "function"
    },
    {
      "inputs": [],
      "name": "withdraw",
      "outputs": [],
      "stateMutability": "nonpayable",
      "type": "function"
    }
  ],
  "bytecode": "0x60a060405260405180606001604052806036815260200162004bb8603691396008908051906020019062000035929190620003e2565b506113886009556000600a55732ca8e0c643bde4c2e08ab1fa0da3401adad7734d600f60006101000a81548173ffffffffffffffffffffffffffffffffffffffff021916908373ffffffffffffffffffffffffffffffffffffffff1602179055507f79d3d8832d904592c0bf9818b621522c988bb8b0c05cdc3b15aea1b6e8db0c1560001b60105562030d40601160006101000a81548163ffffffff021916908363ffffffff1602179055506003601160046101000a81548161ffff021916908361ffff1602179055506001601160066101000a81548163ffffffff021916908363ffffffff1602179055503480156200012e57600080fd5b5060405162004bee38038062004bee8339818101604052810190620001549190620004c0565b600f60009054906101000a900473ffffffffffffffffffffffffffffffffffffffff166040518060400160405280600881526020017f504f524b204e46540000000000000000000000000000000000000000000000008152506040518060400160405280600281526020017f504e0000000000000000000000000000000000000000000000000000000000008152508160009080519060200190620001fb929190620003e2565b50806001908051906020019062000214929190620003e2565b505050620002376200022b6200031460201b60201c565b6200031c60201b60201c565b8073ffffffffffffffffffffffffffffffffffffffff1660808173ffffffffffffffffffffffffffffffffffffffff1660601b8152505050600f60009054906101000a900473ffffffffffffffffffffffffffffffffffffffff16600e60086101000a81548173ffffffffffffffffffffffffffffffffffffffff021916908373ffffffffffffffffffffffffffffffffffffffff16021790555080600e60006101000a81548167ffffffffffffffff021916908367ffffffffffffffff1602179055506200030c826200031c60201b60201c565b5050620005e2565b600033905090565b6000600760009054906101000a900473ffffffffffffffffffffffffffffffffffffffff16905081600760006101000a81548173ffffffffffffffffffffffffffffffffffffffff021916908373ffffffffffffffffffffffffffffffffffffffff1602179055508173ffffffffffffffffffffffffffffffffffffffff168173ffffffffffffffffffffffffffffffffffffffff167f8be0079c531659141344cd1fd0a4f28419497f9722a3daafe3b4186f6b6457e060405160405180910390a35050565b828054620003f09062000549565b90600052602060002090601f01602090048101928262000414576000855562000460565b82601f106200042f57805160ff191683800117855562000460565b8280016001018555821562000460579182015b828111156200045f57825182559160200191906001019062000442565b5b5090506200046f919062000473565b5090565b5b808211156200048e57600081600090555060010162000474565b5090565b600081519050620004a381620005ae565b92915050565b600081519050620004ba81620005c8565b92915050565b60008060408385031215620004d457600080fd5b6000620004e48582860162000492565b9250506020620004f785828601620004a9565b9150509250929050565b60006200050e8262000515565b9050919050565b600073ffffffffffffffffffffffffffffffffffffffff82169050919050565b600067ffffffffffffffff82169050919050565b600060028204905060018216806200056257607f821691505b602082108114156200057957620005786200057f565b5b50919050565b7f4e487b7100000000000000000000000000000000000000000000000000000000600052602260045260246000fd5b620005b98162000501565b8114620005c557600080fd5b50565b620005d38162000535565b8114620005df57600080fd5b50565b60805160601c6145b06200060860003960008181610c190152610c6d01526145b06000f3fe6080604052600436106101ee5760003560e01c80638a333b501161010d578063a22cb465116100a0578063d0f933c01161006f578063d0f933c014610692578063e89e106a146106bb578063e985e9c5146106e6578063f2fde38b14610723578063f6eaffc81461074c576101ee565b8063a22cb465146105d8578063a827b5ff14610601578063b88d4fde1461062c578063c87b56dd14610655576101ee565b806398d5fdca116100dc57806398d5fdca1461052e5780639abc832014610559578063a035b1fe14610584578063a0bcfc7f146105af576101ee565b80638a333b50146104845780638da5cb5b146104af57806391b7f5ed146104da57806395d89b4114610503576101ee565b806323b872dd116101855780635503a0e8116101545780635503a0e8146103c85780636352211e146103f357806370a0823114610430578063715018a61461046d576101ee565b806323b872dd146103345780633ccfd60b1461035d57806342842e0e14610374578063496b488d1461039d576101ee565b806311296660116101c157806311296660146102c15780631249c58b146102ea5780631fe543e3146102f457806323a766b81461031d576101ee565b806301ffc9a7146101f357806306fdde0314610230578063081812fc1461025b578063095ea7b314610298575b600080fd5b3480156101ff57600080fd5b5061021a6004803603810190610215919061312e565b610789565b60405161022791906137e7565b60405180910390f35b34801561023c57600080fd5b5061024561086b565b6040516102529190613855565b60405180910390f35b34801561026757600080fd5b50610282600480360381019061027d91906131c5565b6108fd565b60405161028f919061370c565b60405180910390f35b3480156102a457600080fd5b506102bf60048036038101906102ba91906130f2565b610982565b005b3480156102cd57600080fd5b506102e860048036038101906102e391906131c5565b610a9a565b005b6102f2610b20565b005b34801561030057600080fd5b5061031b60048036038101906103169190613217565b610c17565b005b34801561032957600080fd5b50610332610cd7565b005b34801561034057600080fd5b5061035b60048036038101906103569190612fec565b610e06565b005b34801561036957600080fd5b50610372610e66565b005b34801561038057600080fd5b5061039b60048036038101906103969190612fec565b610f2b565b005b3480156103a957600080fd5b506103b2610f4b565b6040516103bf91906137c5565b60405180910390f35b3480156103d457600080fd5b506103dd610fd9565b6040516103ea9190613855565b60405180910390f35b3480156103ff57600080fd5b5061041a600480360381019061041591906131c5565b611012565b604051610427919061370c565b60405180910390f35b34801561043c57600080fd5b5061045760048036038101906104529190612f87565b6110c4565b6040516104649190613b17565b60405180910390f35b34801561047957600080fd5b5061048261117c565b005b34801561049057600080fd5b50610499611204565b6040516104a69190613b17565b60405180910390f35b3480156104bb57600080fd5b506104c461120a565b6040516104d1919061370c565b60405180910390f35b3480156104e657600080fd5b5061050160048036038101906104fc91906131c5565b611234565b005b34801561050f57600080fd5b506105186112ba565b6040516105259190613855565b60405180910390f35b34801561053a57600080fd5b5061054361134c565b6040516105509190613b17565b60405180910390f35b34801561056557600080fd5b5061056e611356565b60405161057b9190613855565b60405180910390f35b34801561059057600080fd5b506105996113e4565b6040516105a69190613b17565b60405180910390f35b3480156105bb57600080fd5b506105d660048036038101906105d19190613180565b6113ea565b005b3480156105e457600080fd5b506105ff60048036038101906105fa91906130b6565b61147c565b005b34801561060d57600080fd5b50610616611492565b6040516106239190613b17565b60405180910390f35b34801561063857600080fd5b50610653600480360381019061064e919061303b565b611498565b005b34801561066157600080fd5b5061067c600480360381019061067791906131c5565b6114fa565b6040516106899190613855565b60405180910390f35b34801561069e57600080fd5b506106b960048036038101906106b491906131c5565b6115d8565b005b3480156106c757600080fd5b506106d0611716565b6040516106dd9190613b17565b60405180910390f35b3480156106f257600080fd5b5061070d60048036038101906107089190612fb0565b61171c565b60405161071a91906137e7565b60405180910390f35b34801561072f57600080fd5b5061074a60048036038101906107459190612f87565b6117b0565b005b34801561075857600080fd5b50610773600480360381019061076e91906131c5565b6118a8565b6040516107809190613b17565b60405180910390f35b60007f80ac58cd000000000000000000000000000000000000000000000000000000007bffffffffffffffffffffffffffffffffffffffffffffffffffffffff1916827bffffffffffffffffffffffffffffffffffffffffffffffffffffffff1916148061085457507f5b5e139f000000000000000000000000000000000000000000000000000000007bffffffffffffffffffffffffffffffffffffffffffffffffffffffff1916827bffffffffffffffffffffffffffffffffffffffffffffffffffffffff1916145b806108645750610863826118cc565b5b9050919050565b60606000805461087a90613ddd565b80601f01602080910402602001604051908101604052809291908181526020018280546108a690613ddd565b80156108f35780601f106108c8576101008083540402835291602001916108f3565b820191906000526020600020905b8154815290600101906020018083116108d657829003601f168201915b5050505050905090565b600061090882611936565b610947576040517f08c379a000000000000000000000000000000000000000000000000000000000815260040161093e906139f7565b60405180910390fd5b6004600083815260200190815260200160002060009054906101000a900473ffffffffffffffffffffffffffffffffffffffff169050919050565b600061098d82611012565b90508073ffffffffffffffffffffffffffffffffffffffff168373ffffffffffffffffffffffffffffffffffffffff1614156109fe576040517f08c379a00000000000000000000000000000000000000000000000000000000081526004016109f590613a77565b60405180910390fd5b8073ffffffffffffffffffffffffffffffffffffffff16610a1d6119a2565b73ffffffffffffffffffffffffffffffffffffffff161480610a4c5750610a4b81610a466119a2565b61171c565b5b610a8b576040517f08c379a0000000000000000000000000000000000000000000000000000000008152600401610a8290613957565b60405180910390fd5b610a9583836119aa565b505050565b610aa26119a2565b73ffffffffffffffffffffffffffffffffffffffff16610ac061120a565b73ffffffffffffffffffffffffffffffffffffffff1614610b16576040517f08c379a0000000000000000000000000000000000000000000000000000000008152600401610b0d90613a17565b60405180910390fd5b80600a8190555050565b6000600c805490501115610b69576040517f08c379a0000000000000000000000000000000000000000000000000000000008152600401610b6090613af7565b60405180910390fd5b6000600a541480610b835750600a54610b81336110c4565b105b610bc2576040517f08c379a0000000000000000000000000000000000000000000000000000000008152600401610bb990613a37565b60405180910390fd5b610bca61134c565b341015610c0c576040517f08c379a0000000000000000000000000000000000000000000000000000000008152600401610c0390613ad7565b60405180910390fd5b610c1533611a63565b565b7f000000000000000000000000000000000000000000000000000000000000000073ffffffffffffffffffffffffffffffffffffffff163373ffffffffffffffffffffffffffffffffffffffff1614610cc957337f00000000000000000000000000000000000000000000000000000000000000006040517f1cf993f4000000000000000000000000000000000000000000000000000000008152600401610cc0929190613727565b60405180910390fd5b610cd38282611bd0565b5050565b610cdf6119a2565b73ffffffffffffffffffffffffffffffffffffffff16610cfd61120a565b73ffffffffffffffffffffffffffffffffffffffff1614610d53576040517f08c379a0000000000000000000000000000000000000000000000000000000008152600401610d4a90613a17565b60405180910390fd5b6000600190505b6009548111610e0357600c819080600181540180825580915050600190039060005260206000200160009091909190915055600d60009080600181540180825580915050600190039060005260206000200160009091909190916101000a81548173ffffffffffffffffffffffffffffffffffffffff021916908373ffffffffffffffffffffffffffffffffffffffff1602179055508080610dfb90613e40565b915050610d5a565b50565b610e17610e116119a2565b82611d64565b610e56576040517f08c379a0000000000000000000000000000000000000000000000000000000008152600401610e4d90613a97565b60405180910390fd5b610e61838383611e42565b505050565b610e6e6119a2565b73ffffffffffffffffffffffffffffffffffffffff16610e8c61120a565b73ffffffffffffffffffffffffffffffffffffffff1614610ee2576040517f08c379a0000000000000000000000000000000000000000000000000000000008152600401610ed990613a17565b60405180910390fd5b3373ffffffffffffffffffffffffffffffffffffffff166108fc479081150290604051600060405180830381858888f19350505050158015610f28573d6000803e3d6000fd5b50565b610f4683838360405180602001604052806000815250611498565b505050565b6060600d805480602002602001604051908101604052809291908181526020018280548015610fcf57602002820191906000526020600020905b8160009054906101000a900473ffffffffffffffffffffffffffffffffffffffff1673ffffffffffffffffffffffffffffffffffffffff1681526020019060010190808311610f85575b5050505050905090565b6040518060400160405280600581526020017f2e6a736f6e00000000000000000000000000000000000000000000000000000081525081565b6000806002600084815260200190815260200160002060009054906101000a900473ffffffffffffffffffffffffffffffffffffffff169050600073ffffffffffffffffffffffffffffffffffffffff168173ffffffffffffffffffffffffffffffffffffffff1614156110bb576040517f08c379a00000000000000000000000000000000000000000000000000000000081526004016110b290613997565b60405180910390fd5b80915050919050565b60008073ffffffffffffffffffffffffffffffffffffffff168273ffffffffffffffffffffffffffffffffffffffff161415611135576040517f08c379a000000000000000000000000000000000000000000000000000000000815260040161112c90613977565b60405180910390fd5b600360008373ffffffffffffffffffffffffffffffffffffffff1673ffffffffffffffffffffffffffffffffffffffff168152602001908152602001600020549050919050565b6111846119a2565b73ffffffffffffffffffffffffffffffffffffffff166111a261120a565b73ffffffffffffffffffffffffffffffffffffffff16146111f8576040517f08c379a00000000000000000000000000000000000000000000000000000000081526004016111ef90613a17565b60405180910390fd5b61120260006120a9565b565b60095481565b6000600760009054906101000a900473ffffffffffffffffffffffffffffffffffffffff16905090565b61123c6119a2565b73ffffffffffffffffffffffffffffffffffffffff1661125a61120a565b73ffffffffffffffffffffffffffffffffffffffff16146112b0576040517f08c379a00000000000000000000000000000000000000000000000000000000081526004016112a790613a17565b60405180910390fd5b80600b8190555050565b6060600180546112c990613ddd565b80601f01602080910402602001604051908101604052809291908181526020018280546112f590613ddd565b80156113425780601f1061131757610100808354040283529160200191611342565b820191906000526020600020905b81548152906001019060200180831161132557829003601f168201915b5050505050905090565b6000600b54905090565b6008805461136390613ddd565b80601f016020809104026020016040519081016040528092919081815260200182805461138f90613ddd565b80156113dc5780601f106113b1576101008083540402835291602001916113dc565b820191906000526020600020905b8154815290600101906020018083116113bf57829003601f168201915b505050505081565b600b5481565b6113f26119a2565b73ffffffffffffffffffffffffffffffffffffffff1661141061120a565b73ffffffffffffffffffffffffffffffffffffffff1614611466576040517f08c379a000000000000000000000000000000000000000000000000000000000815260040161145d90613a17565b60405180910390fd5b818160089190611477929190612c91565b505050565b61148e6114876119a2565b838361216f565b5050565b600a5481565b6114a96114a36119a2565b83611d64565b6114e8576040517f08c379a00000000000000000000000000000000000000000000000000000000081526004016114df90613a97565b60405180910390fd5b6114f4848484846122dc565b50505050565b606061150582611936565b611544576040517f08c379a000000000000000000000000000000000000000000000000000000000815260040161153b906139b7565b60405180910390fd5b600061154e612338565b9050600081511161156e57604051806020016040528060008152506115d0565b80611578846123ca565b6040518060400160405280600581526020017f2e6a736f6e0000000000000000000000000000000000000000000000000000008152506040516020016115c0939291906136db565b6040516020818303038152906040525b915050919050565b6115e181611012565b73ffffffffffffffffffffffffffffffffffffffff163373ffffffffffffffffffffffffffffffffffffffff161461164e576040517f08c379a000000000000000000000000000000000000000000000000000000000815260040161164590613ab7565b60405180910390fd5b33600d8281548110611689577f4e487b7100000000000000000000000000000000000000000000000000000000600052603260045260246000fd5b9060005260206000200160006101000a81548173ffffffffffffffffffffffffffffffffffffffff021916908373ffffffffffffffffffffffffffffffffffffffff1602179055506116da81612577565b7f222838db2794d11532d940e8dec38ae307ed0b63cd97c233322e221f998767a6338260405161170b92919061379c565b60405180910390a150565b60135481565b6000600560008473ffffffffffffffffffffffffffffffffffffffff1673ffffffffffffffffffffffffffffffffffffffff16815260200190815260200160002060008373ffffffffffffffffffffffffffffffffffffffff1673ffffffffffffffffffffffffffffffffffffffff16815260200190815260200160002060009054906101000a900460ff16905092915050565b6117b86119a2565b73ffffffffffffffffffffffffffffffffffffffff166117d661120a565b73ffffffffffffffffffffffffffffffffffffffff161461182c576040517f08c379a000000000000000000000000000000000000000000000000000000000815260040161182390613a17565b60405180910390fd5b600073ffffffffffffffffffffffffffffffffffffffff168173ffffffffffffffffffffffffffffffffffffffff16141561189c576040517f08c379a000000000000000000000000000000000000000000000000000000000815260040161189390613897565b60405180910390fd5b6118a5816120a9565b50565b601281815481106118b857600080fd5b906000526020600020016000915090505481565b60007f01ffc9a7000000000000000000000000000000000000000000000000000000007bffffffffffffffffffffffffffffffffffffffffffffffffffffffff1916827bffffffffffffffffffffffffffffffffffffffffffffffffffffffff1916149050919050565b60008073ffffffffffffffffffffffffffffffffffffffff166002600084815260200190815260200160002060009054906101000a900473ffffffffffffffffffffffffffffffffffffffff1673ffffffffffffffffffffffffffffffffffffffff1614159050919050565b600033905090565b816004600083815260200190815260200160002060006101000a81548173ffffffffffffffffffffffffffffffffffffffff021916908373ffffffffffffffffffffffffffffffffffffffff160217905550808273ffffffffffffffffffffffffffffffffffffffff16611a1d83611012565b73ffffffffffffffffffffffffffffffffffffffff167f8c5be1e5ebec7d5bd14f71427d1e84f3dd0314c0f7b2291e5b200ac8c7c3b92560405160405180910390a45050565b600e60089054906101000a900473ffffffffffffffffffffffffffffffffffffffff1673ffffffffffffffffffffffffffffffffffffffff16635d3b1d30601054600e60009054906101000a900467ffffffffffffffff16601160049054906101000a900461ffff16601160009054906101000a900463ffffffff16601160069054906101000a900463ffffffff166040518663ffffffff1660e01b8152600401611b12959493929190613802565b602060405180830381600087803b158015611b2c57600080fd5b505af1158015611b40573d6000803e3d6000fd5b505050506040513d601f19601f82011682018060405250810190611b6491906131ee565b6013819055506014819080600181540180825580915050600190039060005260206000200160009091909190916101000a81548173ffffffffffffffffffffffffffffffffffffffff021916908373ffffffffffffffffffffffffffffffffffffffff16021790555050565b600060148054905011611c18576040517f08c379a0000000000000000000000000000000000000000000000000000000008152600401611c0f90613a57565b60405180910390fd5b8060129080519060200190611c2e929190612d17565b50611cf360146001601480549050611c469190613cb7565b81548110611c7d577f4e487b7100000000000000000000000000000000000000000000000000000000600052603260045260246000fd5b9060005260206000200160009054906101000a900473ffffffffffffffffffffffffffffffffffffffff166012600081548110611ce3577f4e487b7100000000000000000000000000000000000000000000000000000000600052603260045260246000fd5b90600052602060002001546125ca565b6014805480611d2b577f4e487b7100000000000000000000000000000000000000000000000000000000600052603160045260246000fd5b6001900381819060005260206000200160006101000a81549073ffffffffffffffffffffffffffffffffffffffff021916905590555050565b6000611d6f82611936565b611dae576040517f08c379a0000000000000000000000000000000000000000000000000000000008152600401611da590613937565b60405180910390fd5b6000611db983611012565b90508073ffffffffffffffffffffffffffffffffffffffff168473ffffffffffffffffffffffffffffffffffffffff161480611e2857508373ffffffffffffffffffffffffffffffffffffffff16611e10846108fd565b73ffffffffffffffffffffffffffffffffffffffff16145b80611e395750611e38818561171c565b5b91505092915050565b8273ffffffffffffffffffffffffffffffffffffffff16611e6282611012565b73ffffffffffffffffffffffffffffffffffffffff1614611eb8576040517f08c379a0000000000000000000000000000000000000000000000000000000008152600401611eaf906138b7565b60405180910390fd5b600073ffffffffffffffffffffffffffffffffffffffff168273ffffffffffffffffffffffffffffffffffffffff161415611f28576040517f08c379a0000000000000000000000000000000000000000000000000000000008152600401611f1f906138f7565b60405180910390fd5b611f3383838361275d565b611f3e6000826119aa565b6001600360008573ffffffffffffffffffffffffffffffffffffffff1673ffffffffffffffffffffffffffffffffffffffff1681526020019081526020016000206000828254611f8e9190613cb7565b925050819055506001600360008473ffffffffffffffffffffffffffffffffffffffff1673ffffffffffffffffffffffffffffffffffffffff1681526020019081526020016000206000828254611fe59190613c30565b92505081905550816002600083815260200190815260200160002060006101000a81548173ffffffffffffffffffffffffffffffffffffffff021916908373ffffffffffffffffffffffffffffffffffffffff160217905550808273ffffffffffffffffffffffffffffffffffffffff168473ffffffffffffffffffffffffffffffffffffffff167fddf252ad1be2c89b69c2b068fc378daa952ba7f163c4a11628f55a4df523b3ef60405160405180910390a46120a4838383612762565b505050565b6000600760009054906101000a900473ffffffffffffffffffffffffffffffffffffffff16905081600760006101000a81548173ffffffffffffffffffffffffffffffffffffffff021916908373ffffffffffffffffffffffffffffffffffffffff1602179055508173ffffffffffffffffffffffffffffffffffffffff168173ffffffffffffffffffffffffffffffffffffffff167f8be0079c531659141344cd1fd0a4f28419497f9722a3daafe3b4186f6b6457e060405160405180910390a35050565b8173ffffffffffffffffffffffffffffffffffffffff168373ffffffffffffffffffffffffffffffffffffffff1614156121de576040517f08c379a00000000000000000000000000000000000000000000000000000000081526004016121d590613917565b60405180910390fd5b80600560008573ffffffffffffffffffffffffffffffffffffffff1673ffffffffffffffffffffffffffffffffffffffff16815260200190815260200160002060008473ffffffffffffffffffffffffffffffffffffffff1673ffffffffffffffffffffffffffffffffffffffff16815260200190815260200160002060006101000a81548160ff0219169083151502179055508173ffffffffffffffffffffffffffffffffffffffff168373ffffffffffffffffffffffffffffffffffffffff167f17307eab39ab6107e8899845ad3d59bd9653f200f220920489ca2b5937696c31836040516122cf91906137e7565b60405180910390a3505050565b6122e7848484611e42565b6122f384848484612767565b612332576040517f08c379a000000000000000000000000000000000000000000000000000000000815260040161232990613877565b60405180910390fd5b50505050565b60606008805461234790613ddd565b80601f016020809104026020016040519081016040528092919081815260200182805461237390613ddd565b80156123c05780601f10612395576101008083540402835291602001916123c0565b820191906000526020600020905b8154815290600101906020018083116123a357829003601f168201915b5050505050905090565b60606000821415612412576040518060400160405280600181526020017f30000000000000000000000000000000000000000000000000000000000000008152509050612572565b600082905060005b6000821461244457808061242d90613e40565b915050600a8261243d9190613c86565b915061241a565b60008167ffffffffffffffff811115612486577f4e487b7100000000000000000000000000000000000000000000000000000000600052604160045260246000fd5b6040519080825280601f01601f1916602001820160405280156124b85781602001600182028036833780820191505090505b5090505b6000851461256b576001826124d19190613cb7565b9150600a856124e09190613e89565b60306124ec9190613c30565b60f81b818381518110612528577f4e487b7100000000000000000000000000000000000000000000000000000000600052603260045260246000fd5b60200101907effffffffffffffffffffffffffffffffffffffffffffffffffffffffffffff1916908160001a905350600a856125649190613c86565b94506124bc565b8093505050505b919050565b612580816128fe565b60006006600083815260200190815260200160002080546125a090613ddd565b9050146125c7576006600082815260200190815260200160002060006125c69190612d64565b5b50565b6000600c80549050826125dd9190613e89565b90506000600c828154811061261b577f4e487b7100000000000000000000000000000000000000000000000000000000600052603260045260246000fd5b90600052602060002001549050600c6001600c8054905061263c9190613cb7565b81548110612673577f4e487b7100000000000000000000000000000000000000000000000000000000600052603260045260246000fd5b9060005260206000200154600c83815481106126b8577f4e487b7100000000000000000000000000000000000000000000000000000000600052603260045260246000fd5b9060005260206000200181905550600c8054806126fe577f4e487b7100000000000000000000000000000000000000000000000000000000600052603160045260246000fd5b6001900381819060005260206000200160009055905561271e8482612a1b565b7f76020ece75bf679c701e656fcffc7e3df8354859b3b0eb7fee42b1378023bb31848260405161274f92919061379c565b60405180910390a150505050565b505050565b505050565b60006127888473ffffffffffffffffffffffffffffffffffffffff16612a39565b156128f1578373ffffffffffffffffffffffffffffffffffffffff1663150b7a026127b16119a2565b8786866040518563ffffffff1660e01b81526004016127d39493929190613750565b602060405180830381600087803b1580156127ed57600080fd5b505af192505050801561281e57506040513d601f19601f8201168201806040525081019061281b9190613157565b60015b6128a1573d806000811461284e576040519150601f19603f3d011682016040523d82523d6000602084013e612853565b606091505b50600081511415612899576040517f08c379a000000000000000000000000000000000000000000000000000000000815260040161289090613877565b60405180910390fd5b805181602001fd5b63150b7a0260e01b7bffffffffffffffffffffffffffffffffffffffffffffffffffffffff1916817bffffffffffffffffffffffffffffffffffffffffffffffffffffffff1916149150506128f6565b600190505b949350505050565b600061290982611012565b90506129178160008461275d565b6129226000836119aa565b6001600360008373ffffffffffffffffffffffffffffffffffffffff1673ffffffffffffffffffffffffffffffffffffffff16815260200190815260200160002060008282546129729190613cb7565b925050819055506002600083815260200190815260200160002060006101000a81549073ffffffffffffffffffffffffffffffffffffffff021916905581600073ffffffffffffffffffffffffffffffffffffffff168273ffffffffffffffffffffffffffffffffffffffff167fddf252ad1be2c89b69c2b068fc378daa952ba7f163c4a11628f55a4df523b3ef60405160405180910390a4612a1781600084612762565b5050565b612a35828260405180602001604052806000815250612a5c565b5050565b6000808273ffffffffffffffffffffffffffffffffffffffff163b119050919050565b612a668383612ab7565b612a736000848484612767565b612ab2576040517f08c379a0000000000000000000000000000000000000000000000000000000008152600401612aa990613877565b60405180910390fd5b505050565b600073ffffffffffffffffffffffffffffffffffffffff168273ffffffffffffffffffffffffffffffffffffffff161415612b27576040517f08c379a0000000000000000000000000000000000000000000000000000000008152600401612b1e906139d7565b60405180910390fd5b612b3081611936565b15612b70576040517f08c379a0000000000000000000000000000000000000000000000000000000008152600401612b67906138d7565b60405180910390fd5b612b7c6000838361275d565b6001600360008473ffffffffffffffffffffffffffffffffffffffff1673ffffffffffffffffffffffffffffffffffffffff1681526020019081526020016000206000828254612bcc9190613c30565b92505081905550816002600083815260200190815260200160002060006101000a81548173ffffffffffffffffffffffffffffffffffffffff021916908373ffffffffffffffffffffffffffffffffffffffff160217905550808273ffffffffffffffffffffffffffffffffffffffff16600073ffffffffffffffffffffffffffffffffffffffff167fddf252ad1be2c89b69c2b068fc378daa952ba7f163c4a11628f55a4df523b3ef60405160405180910390a4612c8d60008383612762565b5050565b828054612c9d90613ddd565b90600052602060002090601f016020900481019282612cbf5760008555612d06565b82601f10612cd857803560ff1916838001178555612d06565b82800160010185558215612d06579182015b82811115612d05578235825591602001919060010190612cea565b5b509050612d139190612da4565b5090565b828054828255906000526020600020908101928215612d53579160200282015b82811115612d52578251825591602001919060010190612d37565b5b509050612d609190612da4565b5090565b508054612d7090613ddd565b6000825580601f10612d825750612da1565b601f016020900490600052602060002090810190612da09190612da4565b5b50565b5b80821115612dbd576000816000905550600101612da5565b5090565b6000612dd4612dcf84613b57565b613b32565b90508083825260208201905082856020860282011115612df357600080fd5b60005b85811015612e235781612e098882612f5d565b845260208401935060208301925050600181019050612df6565b5050509392505050565b6000612e40612e3b84613b83565b613b32565b905082815260208101848484011115612e5857600080fd5b612e63848285613d9b565b509392505050565b600081359050612e7a8161451e565b92915050565b600082601f830112612e9157600080fd5b8135612ea1848260208601612dc1565b91505092915050565b600081359050612eb981614535565b92915050565b600081359050612ece8161454c565b92915050565b600081519050612ee38161454c565b92915050565b600082601f830112612efa57600080fd5b8135612f0a848260208601612e2d565b91505092915050565b60008083601f840112612f2557600080fd5b8235905067ffffffffffffffff811115612f3e57600080fd5b602083019150836001820283011115612f5657600080fd5b9250929050565b600081359050612f6c81614563565b92915050565b600081519050612f8181614563565b92915050565b600060208284031215612f9957600080fd5b6000612fa784828501612e6b565b91505092915050565b60008060408385031215612fc357600080fd5b6000612fd185828601612e6b565b9250506020612fe285828601612e6b565b9150509250929050565b60008060006060848603121561300157600080fd5b600061300f86828701612e6b565b935050602061302086828701612e6b565b925050604061303186828701612f5d565b9150509250925092565b6000806000806080858703121561305157600080fd5b600061305f87828801612e6b565b945050602061307087828801612e6b565b935050604061308187828801612f5d565b925050606085013567ffffffffffffffff81111561309e57600080fd5b6130aa87828801612ee9565b91505092959194509250565b600080604083850312156130c957600080fd5b60006130d785828601612e6b565b92505060206130e885828601612eaa565b9150509250929050565b6000806040838503121561310557600080fd5b600061311385828601612e6b565b925050602061312485828601612f5d565b9150509250929050565b60006020828403121561314057600080fd5b600061314e84828501612ebf565b91505092915050565b60006020828403121561316957600080fd5b600061317784828501612ed4565b91505092915050565b6000806020838503121561319357600080fd5b600083013567ffffffffffffffff8111156131ad57600080fd5b6131b985828601612f13565b92509250509250929050565b6000602082840312156131d757600080fd5b60006131e584828501612f5d565b91505092915050565b60006020828403121561320057600080fd5b600061320e84828501612f72565b91505092915050565b6000806040838503121561322a57600080fd5b600061323885828601612f5d565b925050602083013567ffffffffffffffff81111561325557600080fd5b61326185828601612e80565b9150509250929050565b60006132778383613283565b60208301905092915050565b61328c81613ceb565b82525050565b61329b81613ceb565b82525050565b60006132ac82613bc4565b6132b68185613bf2565b93506132c183613bb4565b8060005b838110156132f25781516132d9888261326b565b97506132e483613be5565b9250506001810190506132c5565b5085935050505092915050565b61330881613cfd565b82525050565b61331781613d09565b82525050565b600061332882613bcf565b6133328185613c03565b9350613342818560208601613daa565b61334b81613f76565b840191505092915050565b600061336182613bda565b61336b8185613c14565b935061337b818560208601613daa565b61338481613f76565b840191505092915050565b600061339a82613bda565b6133a48185613c25565b93506133b4818560208601613daa565b80840191505092915050565b60006133cd603283613c14565b91506133d882613f87565b604082019050919050565b60006133f0602683613c14565b91506133fb82613fd6565b604082019050919050565b6000613413602583613c14565b915061341e82614025565b604082019050919050565b6000613436601c83613c14565b915061344182614074565b602082019050919050565b6000613459602483613c14565b91506134648261409d565b604082019050919050565b600061347c601983613c14565b9150613487826140ec565b602082019050919050565b600061349f602c83613c14565b91506134aa82614115565b604082019050919050565b60006134c2603883613c14565b91506134cd82614164565b604082019050919050565b60006134e5602a83613c14565b91506134f0826141b3565b604082019050919050565b6000613508602983613c14565b915061351382614202565b604082019050919050565b600061352b603083613c14565b915061353682614251565b604082019050919050565b600061354e602083613c14565b9150613559826142a0565b602082019050919050565b6000613571602c83613c14565b915061357c826142c9565b604082019050919050565b6000613594602083613c14565b915061359f82614318565b602082019050919050565b60006135b7602283613c14565b91506135c282614341565b604082019050919050565b60006135da601283613c14565b91506135e582614390565b602082019050919050565b60006135fd602183613c14565b9150613608826143b9565b604082019050919050565b6000613620603183613c14565b915061362b82614408565b604082019050919050565b6000613643602383613c14565b915061364e82614457565b604082019050919050565b6000613666602183613c14565b9150613671826144a6565b604082019050919050565b6000613689601983613c14565b9150613694826144f5565b602082019050919050565b6136a881613d3f565b82525050565b6136b781613d6d565b82525050565b6136c681613d77565b82525050565b6136d581613d87565b82525050565b60006136e7828661338f565b91506136f3828561338f565b91506136ff828461338f565b9150819050949350505050565b60006020820190506137216000830184613292565b92915050565b600060408201905061373c6000830185613292565b6137496020830184613292565b9392505050565b60006080820190506137656000830187613292565b6137726020830186613292565b61377f60408301856136ae565b8181036060830152613791818461331d565b905095945050505050565b60006040820190506137b16000830185613292565b6137be60208301846136ae565b9392505050565b600060208201905081810360008301526137df81846132a1565b905092915050565b60006020820190506137fc60008301846132ff565b92915050565b600060a082019050613817600083018861330e565b61382460208301876136cc565b613831604083018661369f565b61383e60608301856136bd565b61384b60808301846136bd565b9695505050505050565b6000602082019050818103600083015261386f8184613356565b905092915050565b60006020820190508181036000830152613890816133c0565b9050919050565b600060208201905081810360008301526138b0816133e3565b9050919050565b600060208201905081810360008301526138d081613406565b9050919050565b600060208201905081810360008301526138f081613429565b9050919050565b600060208201905081810360008301526139108161344c565b9050919050565b600060208201905081810360008301526139308161346f565b9050919050565b6000602082019050818103600083015261395081613492565b9050919050565b60006020820190508181036000830152613970816134b5565b9050919050565b60006020820190508181036000830152613990816134d8565b9050919050565b600060208201905081810360008301526139b0816134fb565b9050919050565b600060208201905081810360008301526139d08161351e565b9050919050565b600060208201905081810360008301526139f081613541565b9050919050565b60006020820190508181036000830152613a1081613564565b9050919050565b60006020820190508181036000830152613a3081613587565b9050919050565b60006020820190508181036000830152613a50816135aa565b9050919050565b60006020820190508181036000830152613a70816135cd565b9050919050565b60006020820190508181036000830152613a90816135f0565b9050919050565b60006020820190508181036000830152613ab081613613565b9050919050565b60006020820190508181036000830152613ad081613636565b9050919050565b60006020820190508181036000830152613af081613659565b9050919050565b60006020820190508181036000830152613b108161367c565b9050919050565b6000602082019050613b2c60008301846136ae565b92915050565b6000613b3c613b4d565b9050613b488282613e0f565b919050565b6000604051905090565b600067ffffffffffffffff821115613b7257613b71613f47565b5b602082029050602081019050919050565b600067ffffffffffffffff821115613b9e57613b9d613f47565b5b613ba782613f76565b9050602081019050919050565b6000819050602082019050919050565b600081519050919050565b600081519050919050565b600081519050919050565b6000602082019050919050565b600082825260208201905092915050565b600082825260208201905092915050565b600082825260208201905092915050565b600081905092915050565b6000613c3b82613d6d565b9150613c4683613d6d565b9250827fffffffffffffffffffffffffffffffffffffffffffffffffffffffffffffffff03821115613c7b57613c7a613eba565b5b828201905092915050565b6000613c9182613d6d565b9150613c9c83613d6d565b925082613cac57613cab613ee9565b5b828204905092915050565b6000613cc282613d6d565b9150613ccd83613d6d565b925082821015613ce057613cdf613eba565b5b828203905092915050565b6000613cf682613d4d565b9050919050565b60008115159050919050565b6000819050919050565b60007fffffffff0000000000000000000000000000000000000000000000000000000082169050919050565b600061ffff82169050919050565b600073ffffffffffffffffffffffffffffffffffffffff82169050919050565b6000819050919050565b600063ffffffff82169050919050565b600067ffffffffffffffff82169050919050565b82818337600083830152505050565b60005b83811015613dc8578082015181840152602081019050613dad565b83811115613dd7576000848401525b50505050565b60006002820490506001821680613df557607f821691505b60208210811415613e0957613e08613f18565b5b50919050565b613e1882613f76565b810181811067ffffffffffffffff82111715613e3757613e36613f47565b5b80604052505050565b6000613e4b82613d6d565b91507fffffffffffffffffffffffffffffffffffffffffffffffffffffffffffffffff821415613e7e57613e7d613eba565b5b600182019050919050565b6000613e9482613d6d565b9150613e9f83613d6d565b925082613eaf57613eae613ee9565b5b828206905092915050565b7f4e487b7100000000000000000000000000000000000000000000000000000000600052601160045260246000fd5b7f4e487b7100000000000000000000000000000000000000000000000000000000600052601260045260246000fd5b7f4e487b7100000000000000000000000000000000000000000000000000000000600052602260045260246000fd5b7f4e487b7100000000000000000000000000000000000000000000000000000000600052604160045260246000fd5b6000601f19601f8301169050919050565b7f4552433732313a207472616e7366657220746f206e6f6e20455243373231526560008201527f63656976657220696d706c656d656e7465720000000000000000000000000000602082015250565b7f4f776e61626c653a206e6577206f776e657220697320746865207a65726f206160008201527f6464726573730000000000000000000000000000000000000000000000000000602082015250565b7f4552433732313a207472616e736665722066726f6d20696e636f72726563742060008201527f6f776e6572000000000000000000000000000000000000000000000000000000602082015250565b7f4552433732313a20746f6b656e20616c7265616479206d696e74656400000000600082015250565b7f4552433732313a207472616e7366657220746f20746865207a65726f2061646460008201527f7265737300000000000000000000000000000000000000000000000000000000602082015250565b7f4552433732313a20617070726f766520746f2063616c6c657200000000000000600082015250565b7f4552433732313a206f70657261746f7220717565727920666f72206e6f6e657860008201527f697374656e7420746f6b656e0000000000000000000000000000000000000000602082015250565b7f4552433732313a20617070726f76652063616c6c6572206973206e6f74206f7760008201527f6e6572206e6f7220617070726f76656420666f7220616c6c0000000000000000602082015250565b7f4552433732313a2062616c616e636520717565727920666f7220746865207a6560008201527f726f206164647265737300000000000000000000000000000000000000000000602082015250565b7f4552433732313a206f776e657220717565727920666f72206e6f6e657869737460008201527f656e7420746f6b656e0000000000000000000000000000000000000000000000602082015250565b7f4552433732314d657461646174613a2055524920717565727920666f72206e6f60008201527f6e6578697374656e7420746f6b656e2000000000000000000000000000000000602082015250565b7f4552433732313a206d696e7420746f20746865207a65726f2061646472657373600082015250565b7f4552433732313a20617070726f76656420717565727920666f72206e6f6e657860008201527f697374656e7420746f6b656e0000000000000000000000000000000000000000602082015250565b7f4f776e61626c653a2063616c6c6572206973206e6f7420746865206f776e6572600082015250565b7f456163682061646472657373206d6179206f6e6c79206d696e742078204e465460008201527f7321000000000000000000000000000000000000000000000000000000000000602082015250565b7f4e6f206d696e74657220696e2071756575650000000000000000000000000000600082015250565b7f4552433732313a20617070726f76616c20746f2063757272656e74206f776e6560008201527f7200000000000000000000000000000000000000000000000000000000000000602082015250565b7f4552433732313a207472616e736665722063616c6c6572206973206e6f74206f60008201527f776e6572206e6f7220617070726f766564000000000000000000000000000000602082015250565b7f596f7520617265206e6f7420746865206f776e6572206f66207468697320746f60008201527f6b656e0000000000000000000000000000000000000000000000000000000000602082015250565b7f4e6f7420656e6f756768204554482073656e743b20636865636b20707269636560008201527f2100000000000000000000000000000000000000000000000000000000000000602082015250565b7f4e6f206d6f726520746f6b656e7320617661696c61626c652100000000000000600082015250565b61452781613ceb565b811461453257600080fd5b50565b61453e81613cfd565b811461454957600080fd5b50565b61455581613d13565b811461456057600080fd5b50565b61456c81613d6d565b811461457757600080fd5b5056fea26469706673582212204c5847beee2dc291231c840f9d7e556b571aac93551ff4ac63ce979fd0dc90c964736f6c63430008040033697066733a2f2f516d4e506939336f796e776f69374e6d486d573741425467704d666151746d784b4a6f786d7058734a484e67474b2f",
  "linkReferences": {},
  "deployedLinkReferences": {}
}