{
  "_format": "hh-sol-artifact-1",
  "contractName": "NFT",
  "sourceName": "src/backend/contracts/NFT.sol",
  "abi": [
    {
      "inputs": [
        {
          "internalType": "address",
          "name": "tokenAddress",
          "type": "address"
        },
        {
          "internalType": "address",
          "name": "ownerAddress",
          "type": "address"
        },
        {
          "internalType": "uint64",
          "name": "subscriptionId",
          "type": "uint64"
        }
      ],
      "stateMutability": "nonpayable",
      "type": "constructor"
    },
    {
      "inputs": [
        {
          "internalType": "address",
          "name": "have",
          "type": "address"
        },
        {
          "internalType": "address",
          "name": "want",
          "type": "address"
        }
      ],
      "name": "OnlyCoordinatorCanFulfill",
      "type": "error"
    },
    {
      "anonymous": false,
      "inputs": [
        {
          "indexed": true,
          "internalType": "address",
          "name": "owner",
          "type": "address"
        },
        {
          "indexed": true,
          "internalType": "address",
          "name": "approved",
          "type": "address"
        },
        {
          "indexed": true,
          "internalType": "uint256",
          "name": "tokenId",
          "type": "uint256"
        }
      ],
      "name": "Approval",
      "type": "event"
    },
    {
      "anonymous": false,
      "inputs": [
        {
          "indexed": true,
          "internalType": "address",
          "name": "owner",
          "type": "address"
        },
        {
          "indexed": true,
          "internalType": "address",
          "name": "operator",
          "type": "address"
        },
        {
          "indexed": false,
          "internalType": "bool",
          "name": "approved",
          "type": "bool"
        }
      ],
      "name": "ApprovalForAll",
      "type": "event"
    },
    {
      "anonymous": false,
      "inputs": [
        {
          "indexed": false,
          "internalType": "address",
          "name": "user",
          "type": "address"
        }
      ],
      "name": "MintRequestSent",
      "type": "event"
    },
    {
      "anonymous": false,
      "inputs": [
        {
          "indexed": false,
          "internalType": "address",
          "name": "user",
          "type": "address"
        },
        {
          "indexed": false,
          "internalType": "uint256",
          "name": "tokenId",
          "type": "uint256"
        }
      ],
      "name": "MintSuccessful",
      "type": "event"
    },
    {
      "anonymous": false,
      "inputs": [
        {
          "indexed": true,
          "internalType": "address",
          "name": "previousOwner",
          "type": "address"
        },
        {
          "indexed": true,
          "internalType": "address",
          "name": "newOwner",
          "type": "address"
        }
      ],
      "name": "OwnershipTransferred",
      "type": "event"
    },
    {
      "anonymous": false,
      "inputs": [
        {
          "indexed": false,
          "internalType": "address",
          "name": "user",
          "type": "address"
        },
        {
          "indexed": false,
          "internalType": "uint256",
          "name": "tokenId",
          "type": "uint256"
        }
      ],
      "name": "Redeem",
      "type": "event"
    },
    {
      "anonymous": false,
      "inputs": [
        {
          "indexed": true,
          "internalType": "address",
          "name": "from",
          "type": "address"
        },
        {
          "indexed": true,
          "internalType": "address",
          "name": "to",
          "type": "address"
        },
        {
          "indexed": true,
          "internalType": "uint256",
          "name": "tokenId",
          "type": "uint256"
        }
      ],
      "name": "Transfer",
      "type": "event"
    },
    {
      "inputs": [
        {
          "internalType": "address",
          "name": "user",
          "type": "address"
        },
        {
          "internalType": "uint256",
          "name": "_random",
          "type": "uint256"
        }
      ],
      "name": "airdropRandom",
      "outputs": [],
      "stateMutability": "nonpayable",
      "type": "function"
    },
    {
      "inputs": [],
      "name": "amountMintPerAccount",
      "outputs": [
        {
          "internalType": "uint256",
          "name": "",
          "type": "uint256"
        }
      ],
      "stateMutability": "view",
      "type": "function"
    },
    {
      "inputs": [
        {
          "internalType": "address",
          "name": "to",
          "type": "address"
        },
        {
          "internalType": "uint256",
          "name": "tokenId",
          "type": "uint256"
        }
      ],
      "name": "approve",
      "outputs": [],
      "stateMutability": "nonpayable",
      "type": "function"
    },
    {
      "inputs": [],
      "name": "approveTokenSpending",
      "outputs": [],
      "stateMutability": "nonpayable",
      "type": "function"
    },
    {
      "inputs": [
        {
          "internalType": "address",
          "name": "owner",
          "type": "address"
        }
      ],
      "name": "balanceOf",
      "outputs": [
        {
          "internalType": "uint256",
          "name": "",
          "type": "uint256"
        }
      ],
      "stateMutability": "view",
      "type": "function"
    },
    {
      "inputs": [],
      "name": "baseUri",
      "outputs": [
        {
          "internalType": "string",
          "name": "",
          "type": "string"
        }
      ],
      "stateMutability": "view",
      "type": "function"
    },
    {
      "inputs": [],
      "name": "contractURI",
      "outputs": [
        {
          "internalType": "string",
          "name": "",
          "type": "string"
        }
      ],
      "stateMutability": "pure",
      "type": "function"
    },
    {
      "inputs": [
        {
          "internalType": "uint256",
          "name": "tokenId",
          "type": "uint256"
        }
      ],
      "name": "getApproved",
      "outputs": [
        {
          "internalType": "address",
          "name": "",
          "type": "address"
        }
      ],
      "stateMutability": "view",
      "type": "function"
    },
    {
      "inputs": [],
      "name": "getAvailableTokensCount",
      "outputs": [
        {
          "internalType": "uint256",
          "name": "",
          "type": "uint256"
        }
      ],
      "stateMutability": "view",
      "type": "function"
    },
    {
      "inputs": [],
      "name": "getPrice",
      "outputs": [
        {
          "internalType": "uint256",
          "name": "",
          "type": "uint256"
        }
      ],
      "stateMutability": "view",
      "type": "function"
    },
    {
      "inputs": [],
      "name": "getRedeemedTokens",
      "outputs": [
        {
          "internalType": "address[]",
          "name": "",
          "type": "address[]"
        }
      ],
      "stateMutability": "view",
      "type": "function"
    },
    {
      "inputs": [],
      "name": "getTokensInitializedCount",
      "outputs": [
        {
          "internalType": "uint16",
          "name": "",
          "type": "uint16"
        }
      ],
      "stateMutability": "view",
      "type": "function"
    },
    {
      "inputs": [
        {
          "internalType": "uint16",
          "name": "_count",
          "type": "uint16"
        }
      ],
      "name": "initializeTokens",
      "outputs": [],
      "stateMutability": "nonpayable",
      "type": "function"
    },
    {
      "inputs": [
        {
          "internalType": "address",
          "name": "owner",
          "type": "address"
        },
        {
          "internalType": "address",
          "name": "operator",
          "type": "address"
        }
      ],
      "name": "isApprovedForAll",
      "outputs": [
        {
          "internalType": "bool",
          "name": "",
          "type": "bool"
        }
      ],
      "stateMutability": "view",
      "type": "function"
    },
    {
      "inputs": [],
      "name": "max_supply",
      "outputs": [
        {
          "internalType": "uint16",
          "name": "",
          "type": "uint16"
        }
      ],
      "stateMutability": "view",
      "type": "function"
    },
    {
      "inputs": [],
      "name": "mint",
      "outputs": [],
      "stateMutability": "nonpayable",
      "type": "function"
    },
    {
      "inputs": [],
      "name": "name",
      "outputs": [
        {
          "internalType": "string",
          "name": "",
          "type": "string"
        }
      ],
      "stateMutability": "view",
      "type": "function"
    },
    {
      "inputs": [],
      "name": "owner",
      "outputs": [
        {
          "internalType": "address",
          "name": "",
          "type": "address"
        }
      ],
      "stateMutability": "view",
      "type": "function"
    },
    {
      "inputs": [
        {
          "internalType": "uint256",
          "name": "tokenId",
          "type": "uint256"
        }
      ],
      "name": "ownerOf",
      "outputs": [
        {
          "internalType": "address",
          "name": "",
          "type": "address"
        }
      ],
      "stateMutability": "view",
      "type": "function"
    },
    {
      "inputs": [],
      "name": "price",
      "outputs": [
        {
          "internalType": "uint256",
          "name": "",
          "type": "uint256"
        }
      ],
      "stateMutability": "view",
      "type": "function"
    },
    {
      "inputs": [
        {
          "internalType": "uint256",
          "name": "requestId",
          "type": "uint256"
        },
        {
          "internalType": "uint256[]",
          "name": "randomWords",
          "type": "uint256[]"
        }
      ],
      "name": "rawFulfillRandomWords",
      "outputs": [],
      "stateMutability": "nonpayable",
      "type": "function"
    },
    {
      "inputs": [
        {
          "internalType": "uint256",
          "name": "_tokenId",
          "type": "uint256"
        }
      ],
      "name": "redeemAndBurn",
      "outputs": [],
      "stateMutability": "nonpayable",
      "type": "function"
    },
    {
      "inputs": [],
      "name": "renounceOwnership",
      "outputs": [],
      "stateMutability": "nonpayable",
      "type": "function"
    },
    {
      "inputs": [
        {
          "internalType": "uint256",
          "name": "",
          "type": "uint256"
        }
      ],
      "name": "s_randomWords",
      "outputs": [
        {
          "internalType": "uint256",
          "name": "",
          "type": "uint256"
        }
      ],
      "stateMutability": "view",
      "type": "function"
    },
    {
      "inputs": [],
      "name": "s_requestId",
      "outputs": [
        {
          "internalType": "uint256",
          "name": "",
          "type": "uint256"
        }
      ],
      "stateMutability": "view",
      "type": "function"
    },
    {
      "inputs": [
        {
          "internalType": "address",
          "name": "from",
          "type": "address"
        },
        {
          "internalType": "address",
          "name": "to",
          "type": "address"
        },
        {
          "internalType": "uint256",
          "name": "tokenId",
          "type": "uint256"
        }
      ],
      "name": "safeTransferFrom",
      "outputs": [],
      "stateMutability": "nonpayable",
      "type": "function"
    },
    {
      "inputs": [
        {
          "internalType": "address",
          "name": "from",
          "type": "address"
        },
        {
          "internalType": "address",
          "name": "to",
          "type": "address"
        },
        {
          "internalType": "uint256",
          "name": "tokenId",
          "type": "uint256"
        },
        {
          "internalType": "bytes",
          "name": "_data",
          "type": "bytes"
        }
      ],
      "name": "safeTransferFrom",
      "outputs": [],
      "stateMutability": "nonpayable",
      "type": "function"
    },
    {
      "inputs": [
        {
          "internalType": "uint256",
          "name": "_amountMintPerAccount",
          "type": "uint256"
        }
      ],
      "name": "setAmountMintPerAccount",
      "outputs": [],
      "stateMutability": "nonpayable",
      "type": "function"
    },
    {
      "inputs": [
        {
          "internalType": "address",
          "name": "operator",
          "type": "address"
        },
        {
          "internalType": "bool",
          "name": "approved",
          "type": "bool"
        }
      ],
      "name": "setApprovalForAll",
      "outputs": [],
      "stateMutability": "nonpayable",
      "type": "function"
    },
    {
      "inputs": [
        {
          "internalType": "string",
          "name": "_baseUri",
          "type": "string"
        }
      ],
      "name": "setBaseUri",
      "outputs": [],
      "stateMutability": "nonpayable",
      "type": "function"
    },
    {
      "inputs": [
        {
          "internalType": "uint256",
          "name": "_price",
          "type": "uint256"
        }
      ],
      "name": "setPrice",
      "outputs": [],
      "stateMutability": "nonpayable",
      "type": "function"
    },
    {
      "inputs": [
        {
          "internalType": "bytes4",
          "name": "interfaceId",
          "type": "bytes4"
        }
      ],
      "name": "supportsInterface",
      "outputs": [
        {
          "internalType": "bool",
          "name": "",
          "type": "bool"
        }
      ],
      "stateMutability": "view",
      "type": "function"
    },
    {
      "inputs": [],
      "name": "symbol",
      "outputs": [
        {
          "internalType": "string",
          "name": "",
          "type": "string"
        }
      ],
      "stateMutability": "view",
      "type": "function"
    },
    {
      "inputs": [],
      "name": "token",
      "outputs": [
        {
          "internalType": "contract ERC20",
          "name": "",
          "type": "address"
        }
      ],
      "stateMutability": "view",
      "type": "function"
    },
    {
      "inputs": [
        {
          "internalType": "uint256",
          "name": "_tokenId",
          "type": "uint256"
        }
      ],
      "name": "tokenURI",
      "outputs": [
        {
          "internalType": "string",
          "name": "",
          "type": "string"
        }
      ],
      "stateMutability": "view",
      "type": "function"
    },
    {
      "inputs": [
        {
          "internalType": "address",
          "name": "from",
          "type": "address"
        },
        {
          "internalType": "address",
          "name": "to",
          "type": "address"
        },
        {
          "internalType": "uint256",
          "name": "tokenId",
          "type": "uint256"
        }
      ],
      "name": "transferFrom",
      "outputs": [],
      "stateMutability": "nonpayable",
      "type": "function"
    },
    {
      "inputs": [
        {
          "internalType": "address",
          "name": "newOwner",
          "type": "address"
        }
      ],
      "name": "transferOwnership",
      "outputs": [],
      "stateMutability": "nonpayable",
      "type": "function"
    },
    {
      "inputs": [],
      "name": "uriSuffix",
      "outputs": [
        {
          "internalType": "string",
          "name": "",
          "type": "string"
        }
      ],
      "stateMutability": "view",
      "type": "function"
    },
    {
      "inputs": [],
      "name": "withdraw",
      "outputs": [],
      "stateMutability": "nonpayable",
      "type": "function"
    }
  ],
  "bytecode": "0x60a0604052604051806060016040528060368152602001620053d760369139600990805190602001906200003592919062000583565b50611388600a60006101000a81548161ffff021916908361ffff1602179055506000600b55670de0b6b3a7640000600c55732ca8e0c643bde4c2e08ab1fa0da3401adad7734d601060006101000a81548173ffffffffffffffffffffffffffffffffffffffff021916908373ffffffffffffffffffffffffffffffffffffffff1602179055507f79d3d8832d904592c0bf9818b621522c988bb8b0c05cdc3b15aea1b6e8db0c1560001b60115562030d40601260006101000a81548163ffffffff021916908363ffffffff1602179055506003601260046101000a81548161ffff021916908361ffff1602179055506001601260066101000a81548163ffffffff021916908363ffffffff1602179055503480156200015357600080fd5b506040516200540d3803806200540d8339818101604052810190620001799190620007a1565b601060009054906101000a900473ffffffffffffffffffffffffffffffffffffffff166040518060400160405280600c81526020017f4f6c64204661726d204d616e00000000000000000000000000000000000000008152506040518060400160405280600281526020017f504e00000000000000000000000000000000000000000000000000000000000081525081600090805190602001906200022092919062000583565b5080600190805190602001906200023992919062000583565b5050506200025c62000250620004b560201b60201c565b620004bd60201b60201c565b8073ffffffffffffffffffffffffffffffffffffffff1660808173ffffffffffffffffffffffffffffffffffffffff1660601b815250505082600860006101000a81548173ffffffffffffffffffffffffffffffffffffffff021916908373ffffffffffffffffffffffffffffffffffffffff160217905550601060009054906101000a900473ffffffffffffffffffffffffffffffffffffffff16600f600a6101000a81548173ffffffffffffffffffffffffffffffffffffffff021916908373ffffffffffffffffffffffffffffffffffffffff16021790555080600f60026101000a81548167ffffffffffffffff021916908367ffffffffffffffff1602179055506200037282620004bd60201b60201c565b600a60009054906101000a900461ffff1661ffff1667ffffffffffffffff811115620003c7577f4e487b7100000000000000000000000000000000000000000000000000000000600052604160045260246000fd5b604051908082528060200260200182016040528015620003f65781602001602082028036833780820191505090505b50600d90805190602001906200040e92919062000614565b50600a60009054906101000a900461ffff1661ffff1667ffffffffffffffff81111562000464577f4e487b7100000000000000000000000000000000000000000000000000000000600052604160045260246000fd5b604051908082528060200260200182016040528015620004935781602001602082028036833780820191505090505b50600e9080519060200190620004ab929190620006c5565b50505050620008d8565b600033905090565b6000600760009054906101000a900473ffffffffffffffffffffffffffffffffffffffff16905081600760006101000a81548173ffffffffffffffffffffffffffffffffffffffff021916908373ffffffffffffffffffffffffffffffffffffffff1602179055508173ffffffffffffffffffffffffffffffffffffffff168173ffffffffffffffffffffffffffffffffffffffff167f8be0079c531659141344cd1fd0a4f28419497f9722a3daafe3b4186f6b6457e060405160405180910390a35050565b82805462000591906200083f565b90600052602060002090601f016020900481019282620005b5576000855562000601565b82601f10620005d057805160ff191683800117855562000601565b8280016001018555821562000601579182015b8281111562000600578251825591602001919060010190620005e3565b5b50905062000610919062000754565b5090565b82805482825590600052602060002090600f01601090048101928215620006b25791602002820160005b838211156200068057835183826101000a81548161ffff021916908361ffff16021790555092602001926002016020816001010492830192600103026200063e565b8015620006b05782816101000a81549061ffff021916905560020160208160010104928301926001030262000680565b505b509050620006c1919062000754565b5090565b82805482825590600052602060002090810192821562000741579160200282015b82811115620007405782518260006101000a81548173ffffffffffffffffffffffffffffffffffffffff021916908373ffffffffffffffffffffffffffffffffffffffff16021790555091602001919060010190620006e6565b5b50905062000750919062000754565b5090565b5b808211156200076f57600081600090555060010162000755565b5090565b6000815190506200078481620008a4565b92915050565b6000815190506200079b81620008be565b92915050565b600080600060608486031215620007b757600080fd5b6000620007c78682870162000773565b9350506020620007da8682870162000773565b9250506040620007ed868287016200078a565b9150509250925092565b600062000804826200080b565b9050919050565b600073ffffffffffffffffffffffffffffffffffffffff82169050919050565b600067ffffffffffffffff82169050919050565b600060028204905060018216806200085857607f821691505b602082108114156200086f576200086e62000875565b5b50919050565b7f4e487b7100000000000000000000000000000000000000000000000000000000600052602260045260246000fd5b620008af81620007f7565b8114620008bb57600080fd5b50565b620008c9816200082b565b8114620008d557600080fd5b50565b60805160601c614ad9620008fe60003960008181610c1d0152610c710152614ad96000f3fe608060405234801561001057600080fd5b506004361061023d5760003560e01c80638da5cb5b1161013b578063c87b56dd116100b8578063e985e9c51161007c578063e985e9c514610630578063f2fde38b14610660578063f6eaffc81461067c578063f8af6716146106ac578063fc0c546a146106ca5761023d565b8063c87b56dd1461059e578063cc7f3b9b146105ce578063d0f933c0146105d8578063e89e106a146105f4578063e8a3d485146106125761023d565b8063a035b1fe116100ff578063a035b1fe1461050e578063a0bcfc7f1461052c578063a22cb46514610548578063a827b5ff14610564578063b88d4fde146105825761023d565b80638da5cb5b1461047a57806391b7f5ed1461049857806395d89b41146104b457806398d5fdca146104d25780639abc8320146104f05761023d565b80632dcd52f2116101c95780636352211e1161018d5780636352211e146103d657806370a0823114610406578063715018a6146104365780637587fe9d146104405780638a333b501461045c5761023d565b80632dcd52f2146103565780633ccfd60b1461037457806342842e0e1461037e578063496b488d1461039a5780635503a0e8146103b85761023d565b8063112966601161021057806311296660146102dc5780631249c58b146102f85780631fe543e31461030257806323b872dd1461031e578063289d57d61461033a5761023d565b806301ffc9a71461024257806306fdde0314610272578063081812fc14610290578063095ea7b3146102c0575b600080fd5b61025c6004803603810190610257919061348b565b6106e8565b6040516102699190613beb565b60405180910390f35b61027a6107ca565b6040516102879190613c74565b60405180910390f35b6102aa60048036038101906102a5919061354b565b61085c565b6040516102b79190613ab0565b60405180910390f35b6102da60048036038101906102d59190613426565b6108e1565b005b6102f660048036038101906102f1919061354b565b6109f9565b005b610300610a7f565b005b61031c6004803603810190610317919061359d565b610c1b565b005b61033860048036038101906103339190613320565b610cdb565b005b610354600480360381019061034f9190613522565b610d3b565b005b61035e610f2c565b60405161036b9190613f51565b60405180910390f35b61037c610f39565b005b61039860048036038101906103939190613320565b610ffe565b005b6103a261101e565b6040516103af9190613bc9565b60405180910390f35b6103c06110ac565b6040516103cd9190613c74565b60405180910390f35b6103f060048036038101906103eb919061354b565b6110e5565b6040516103fd9190613ab0565b60405180910390f35b610420600480360381019061041b91906132bb565b611197565b60405161042d9190613f51565b60405180910390f35b61043e61124f565b005b61045a60048036038101906104559190613426565b6112d7565b005b610464611361565b6040516104719190613f36565b60405180910390f35b610482611375565b60405161048f9190613ab0565b60405180910390f35b6104b260048036038101906104ad919061354b565b61139f565b005b6104bc611425565b6040516104c99190613c74565b60405180910390f35b6104da6114b7565b6040516104e79190613f51565b60405180910390f35b6104f86114c1565b6040516105059190613c74565b60405180910390f35b61051661154f565b6040516105239190613f51565b60405180910390f35b610546600480360381019061054191906134dd565b611555565b005b610562600480360381019061055d91906133ea565b6115e7565b005b61056c6115fd565b6040516105799190613f51565b60405180910390f35b61059c6004803603810190610597919061336f565b611603565b005b6105b860048036038101906105b3919061354b565b611665565b6040516105c59190613c74565b60405180910390f35b6105d6611743565b005b6105f260048036038101906105ed919061354b565b611815565b005b6105fc611953565b6040516106099190613f51565b60405180910390f35b61061a611959565b6040516106279190613c74565b60405180910390f35b61064a600480360381019061064591906132e4565b611979565b6040516106579190613beb565b60405180910390f35b61067a600480360381019061067591906132bb565b611a0d565b005b6106966004803603810190610691919061354b565b611b05565b6040516106a39190613f51565b60405180910390f35b6106b4611b29565b6040516106c19190613f36565b60405180910390f35b6106d2611b41565b6040516106df9190613c59565b60405180910390f35b60007f80ac58cd000000000000000000000000000000000000000000000000000000007bffffffffffffffffffffffffffffffffffffffffffffffffffffffff1916827bffffffffffffffffffffffffffffffffffffffffffffffffffffffff191614806107b357507f5b5e139f000000000000000000000000000000000000000000000000000000007bffffffffffffffffffffffffffffffffffffffffffffffffffffffff1916827bffffffffffffffffffffffffffffffffffffffffffffffffffffffff1916145b806107c357506107c282611b67565b5b9050919050565b6060600080546107d9906142b9565b80601f0160208091040260200160405190810160405280929190818152602001828054610805906142b9565b80156108525780601f1061082757610100808354040283529160200191610852565b820191906000526020600020905b81548152906001019060200180831161083557829003601f168201915b5050505050905090565b600061086782611bd1565b6108a6576040517f08c379a000000000000000000000000000000000000000000000000000000000815260040161089d90613e36565b60405180910390fd5b6004600083815260200190815260200160002060009054906101000a900473ffffffffffffffffffffffffffffffffffffffff169050919050565b60006108ec826110e5565b90508073ffffffffffffffffffffffffffffffffffffffff168373ffffffffffffffffffffffffffffffffffffffff16141561095d576040517f08c379a000000000000000000000000000000000000000000000000000000000815260040161095490613eb6565b60405180910390fd5b8073ffffffffffffffffffffffffffffffffffffffff1661097c611c3d565b73ffffffffffffffffffffffffffffffffffffffff1614806109ab57506109aa816109a5611c3d565b611979565b5b6109ea576040517f08c379a00000000000000000000000000000000000000000000000000000000081526004016109e190613d96565b60405180910390fd5b6109f48383611c45565b505050565b610a01611c3d565b73ffffffffffffffffffffffffffffffffffffffff16610a1f611375565b73ffffffffffffffffffffffffffffffffffffffff1614610a75576040517f08c379a0000000000000000000000000000000000000000000000000000000008152600401610a6c90613e56565b60405180910390fd5b80600b8190555050565b6000600d8054905011610ac7576040517f08c379a0000000000000000000000000000000000000000000000000000000008152600401610abe90613f16565b60405180910390fd5b6000600b541480610ae15750600b54610adf33611197565b105b610b20576040517f08c379a0000000000000000000000000000000000000000000000000000000008152600401610b1790613e76565b60405180910390fd5b600860009054906101000a900473ffffffffffffffffffffffffffffffffffffffff1673ffffffffffffffffffffffffffffffffffffffff166323b872dd3330610b686114b7565b6040518463ffffffff1660e01b8152600401610b8693929190613af4565b602060405180830381600087803b158015610ba057600080fd5b505af1158015610bb4573d6000803e3d6000fd5b505050506040513d601f19601f82011682018060405250810190610bd89190613462565b507fa7ff50923ec39d175a65bd008d51f39568b73da5d06a400c53fdba484edabac033604051610c089190613ab0565b60405180910390a1610c1933611cfe565b565b7f000000000000000000000000000000000000000000000000000000000000000073ffffffffffffffffffffffffffffffffffffffff163373ffffffffffffffffffffffffffffffffffffffff1614610ccd57337f00000000000000000000000000000000000000000000000000000000000000006040517f1cf993f4000000000000000000000000000000000000000000000000000000008152600401610cc4929190613acb565b60405180910390fd5b610cd78282611e6b565b5050565b610cec610ce6611c3d565b82611fff565b610d2b576040517f08c379a0000000000000000000000000000000000000000000000000000000008152600401610d2290613ed6565b60405180910390fd5b610d368383836120dd565b505050565b610d43611c3d565b73ffffffffffffffffffffffffffffffffffffffff16610d61611375565b73ffffffffffffffffffffffffffffffffffffffff1614610db7576040517f08c379a0000000000000000000000000000000000000000000000000000000008152600401610dae90613e56565b60405180910390fd5b6000600f60009054906101000a900461ffff169050600a60009054906101000a900461ffff1661ffff168282610ded919061406a565b61ffff161115610e32576040517f08c379a0000000000000000000000000000000000000000000000000000000008152600401610e2990613d16565b60405180910390fd5b600182610e3f919061406a565b91506000600190505b8261ffff168161ffff161015610ee25760008183610e66919061406a565b905080600d8261ffff1681548110610ea7577f4e487b7100000000000000000000000000000000000000000000000000000000600052603260045260246000fd5b90600052602060002090601091828204019190066002026101000a81548161ffff021916908361ffff16021790555081600101915050610e48565b50600182610ef09190614129565b600f60008282829054906101000a900461ffff16610f0e919061406a565b92506101000a81548161ffff021916908361ffff1602179055505050565b6000600d80549050905090565b610f41611c3d565b73ffffffffffffffffffffffffffffffffffffffff16610f5f611375565b73ffffffffffffffffffffffffffffffffffffffff1614610fb5576040517f08c379a0000000000000000000000000000000000000000000000000000000008152600401610fac90613e56565b60405180910390fd5b3373ffffffffffffffffffffffffffffffffffffffff166108fc479081150290604051600060405180830381858888f19350505050158015610ffb573d6000803e3d6000fd5b50565b61101983838360405180602001604052806000815250611603565b505050565b6060600e8054806020026020016040519081016040528092919081815260200182805480156110a257602002820191906000526020600020905b8160009054906101000a900473ffffffffffffffffffffffffffffffffffffffff1673ffffffffffffffffffffffffffffffffffffffff1681526020019060010190808311611058575b5050505050905090565b6040518060400160405280600581526020017f2e6a736f6e00000000000000000000000000000000000000000000000000000081525081565b6000806002600084815260200190815260200160002060009054906101000a900473ffffffffffffffffffffffffffffffffffffffff169050600073ffffffffffffffffffffffffffffffffffffffff168173ffffffffffffffffffffffffffffffffffffffff16141561118e576040517f08c379a000000000000000000000000000000000000000000000000000000000815260040161118590613dd6565b60405180910390fd5b80915050919050565b60008073ffffffffffffffffffffffffffffffffffffffff168273ffffffffffffffffffffffffffffffffffffffff161415611208576040517f08c379a00000000000000000000000000000000000000000000000000000000081526004016111ff90613db6565b60405180910390fd5b600360008373ffffffffffffffffffffffffffffffffffffffff1673ffffffffffffffffffffffffffffffffffffffff168152602001908152602001600020549050919050565b611257611c3d565b73ffffffffffffffffffffffffffffffffffffffff16611275611375565b73ffffffffffffffffffffffffffffffffffffffff16146112cb576040517f08c379a00000000000000000000000000000000000000000000000000000000081526004016112c290613e56565b60405180910390fd5b6112d56000612344565b565b6112df611c3d565b73ffffffffffffffffffffffffffffffffffffffff166112fd611375565b73ffffffffffffffffffffffffffffffffffffffff1614611353576040517f08c379a000000000000000000000000000000000000000000000000000000000815260040161134a90613e56565b60405180910390fd5b61135d828261240a565b5050565b600a60009054906101000a900461ffff1681565b6000600760009054906101000a900473ffffffffffffffffffffffffffffffffffffffff16905090565b6113a7611c3d565b73ffffffffffffffffffffffffffffffffffffffff166113c5611375565b73ffffffffffffffffffffffffffffffffffffffff161461141b576040517f08c379a000000000000000000000000000000000000000000000000000000000815260040161141290613e56565b60405180910390fd5b80600c8190555050565b606060018054611434906142b9565b80601f0160208091040260200160405190810160405280929190818152602001828054611460906142b9565b80156114ad5780601f10611482576101008083540402835291602001916114ad565b820191906000526020600020905b81548152906001019060200180831161149057829003601f168201915b5050505050905090565b6000600c54905090565b600980546114ce906142b9565b80601f01602080910402602001604051908101604052809291908181526020018280546114fa906142b9565b80156115475780601f1061151c57610100808354040283529160200191611547565b820191906000526020600020905b81548152906001019060200180831161152a57829003601f168201915b505050505081565b600c5481565b61155d611c3d565b73ffffffffffffffffffffffffffffffffffffffff1661157b611375565b73ffffffffffffffffffffffffffffffffffffffff16146115d1576040517f08c379a00000000000000000000000000000000000000000000000000000000081526004016115c890613e56565b60405180910390fd5b8181600991906115e2929190612f9b565b505050565b6115f96115f2611c3d565b838361260c565b5050565b600b5481565b61161461160e611c3d565b83611fff565b611653576040517f08c379a000000000000000000000000000000000000000000000000000000000815260040161164a90613ed6565b60405180910390fd5b61165f84848484612779565b50505050565b606061167082611bd1565b6116af576040517f08c379a00000000000000000000000000000000000000000000000000000000081526004016116a690613df6565b60405180910390fd5b60006116b96127d5565b905060008151116116d9576040518060200160405280600081525061173b565b806116e384612867565b6040518060400160405280600581526020017f2e6a736f6e00000000000000000000000000000000000000000000000000000081525060405160200161172b93929190613a7f565b6040516020818303038152906040525b915050919050565b600860009054906101000a900473ffffffffffffffffffffffffffffffffffffffff1673ffffffffffffffffffffffffffffffffffffffff1663095ea7b3337fffffffffffffffffffffffffffffffffffffffffffffffffffffffffffffffff6040518363ffffffff1660e01b81526004016117c0929190613b77565b602060405180830381600087803b1580156117da57600080fd5b505af11580156117ee573d6000803e3d6000fd5b505050506040513d601f19601f820116820180604052508101906118129190613462565b50565b61181e816110e5565b73ffffffffffffffffffffffffffffffffffffffff163373ffffffffffffffffffffffffffffffffffffffff161461188b576040517f08c379a000000000000000000000000000000000000000000000000000000000815260040161188290613ef6565b60405180910390fd5b33600e82815481106118c6577f4e487b7100000000000000000000000000000000000000000000000000000000600052603260045260246000fd5b9060005260206000200160006101000a81548173ffffffffffffffffffffffffffffffffffffffff021916908373ffffffffffffffffffffffffffffffffffffffff16021790555061191781612a14565b7f222838db2794d11532d940e8dec38ae307ed0b63cd97c233322e221f998767a63382604051611948929190613ba0565b60405180910390a150565b60145481565b6060604051806060016040528060368152602001614a6e60369139905090565b6000600560008473ffffffffffffffffffffffffffffffffffffffff1673ffffffffffffffffffffffffffffffffffffffff16815260200190815260200160002060008373ffffffffffffffffffffffffffffffffffffffff1673ffffffffffffffffffffffffffffffffffffffff16815260200190815260200160002060009054906101000a900460ff16905092915050565b611a15611c3d565b73ffffffffffffffffffffffffffffffffffffffff16611a33611375565b73ffffffffffffffffffffffffffffffffffffffff1614611a89576040517f08c379a0000000000000000000000000000000000000000000000000000000008152600401611a8090613e56565b60405180910390fd5b600073ffffffffffffffffffffffffffffffffffffffff168173ffffffffffffffffffffffffffffffffffffffff161415611af9576040517f08c379a0000000000000000000000000000000000000000000000000000000008152600401611af090613cb6565b60405180910390fd5b611b0281612344565b50565b60138181548110611b1557600080fd5b906000526020600020016000915090505481565b6000600f60009054906101000a900461ffff16905090565b600860009054906101000a900473ffffffffffffffffffffffffffffffffffffffff1681565b60007f01ffc9a7000000000000000000000000000000000000000000000000000000007bffffffffffffffffffffffffffffffffffffffffffffffffffffffff1916827bffffffffffffffffffffffffffffffffffffffffffffffffffffffff1916149050919050565b60008073ffffffffffffffffffffffffffffffffffffffff166002600084815260200190815260200160002060009054906101000a900473ffffffffffffffffffffffffffffffffffffffff1673ffffffffffffffffffffffffffffffffffffffff1614159050919050565b600033905090565b816004600083815260200190815260200160002060006101000a81548173ffffffffffffffffffffffffffffffffffffffff021916908373ffffffffffffffffffffffffffffffffffffffff160217905550808273ffffffffffffffffffffffffffffffffffffffff16611cb8836110e5565b73ffffffffffffffffffffffffffffffffffffffff167f8c5be1e5ebec7d5bd14f71427d1e84f3dd0314c0f7b2291e5b200ac8c7c3b92560405160405180910390a45050565b600f600a9054906101000a900473ffffffffffffffffffffffffffffffffffffffff1673ffffffffffffffffffffffffffffffffffffffff16635d3b1d30601154600f60029054906101000a900467ffffffffffffffff16601260049054906101000a900461ffff16601260009054906101000a900463ffffffff16601260069054906101000a900463ffffffff166040518663ffffffff1660e01b8152600401611dad959493929190613c06565b602060405180830381600087803b158015611dc757600080fd5b505af1158015611ddb573d6000803e3d6000fd5b505050506040513d601f19601f82011682018060405250810190611dff9190613574565b6014819055506015819080600181540180825580915050600190039060005260206000200160009091909190916101000a81548173ffffffffffffffffffffffffffffffffffffffff021916908373ffffffffffffffffffffffffffffffffffffffff16021790555050565b600060158054905011611eb3576040517f08c379a0000000000000000000000000000000000000000000000000000000008152600401611eaa90613e96565b60405180910390fd5b8060139080519060200190611ec9929190613021565b50611f8e60156001601580549050611ee1919061415d565b81548110611f18577f4e487b7100000000000000000000000000000000000000000000000000000000600052603260045260246000fd5b9060005260206000200160009054906101000a900473ffffffffffffffffffffffffffffffffffffffff166013600081548110611f7e577f4e487b7100000000000000000000000000000000000000000000000000000000600052603260045260246000fd5b906000526020600020015461240a565b6015805480611fc6577f4e487b7100000000000000000000000000000000000000000000000000000000600052603160045260246000fd5b6001900381819060005260206000200160006101000a81549073ffffffffffffffffffffffffffffffffffffffff021916905590555050565b600061200a82611bd1565b612049576040517f08c379a000000000000000000000000000000000000000000000000000000000815260040161204090613d76565b60405180910390fd5b6000612054836110e5565b90508073ffffffffffffffffffffffffffffffffffffffff168473ffffffffffffffffffffffffffffffffffffffff1614806120c357508373ffffffffffffffffffffffffffffffffffffffff166120ab8461085c565b73ffffffffffffffffffffffffffffffffffffffff16145b806120d457506120d38185611979565b5b91505092915050565b8273ffffffffffffffffffffffffffffffffffffffff166120fd826110e5565b73ffffffffffffffffffffffffffffffffffffffff1614612153576040517f08c379a000000000000000000000000000000000000000000000000000000000815260040161214a90613cd6565b60405180910390fd5b600073ffffffffffffffffffffffffffffffffffffffff168273ffffffffffffffffffffffffffffffffffffffff1614156121c3576040517f08c379a00000000000000000000000000000000000000000000000000000000081526004016121ba90613d36565b60405180910390fd5b6121ce838383612a67565b6121d9600082611c45565b6001600360008573ffffffffffffffffffffffffffffffffffffffff1673ffffffffffffffffffffffffffffffffffffffff1681526020019081526020016000206000828254612229919061415d565b925050819055506001600360008473ffffffffffffffffffffffffffffffffffffffff1673ffffffffffffffffffffffffffffffffffffffff168152602001908152602001600020600082825461228091906140a2565b92505081905550816002600083815260200190815260200160002060006101000a81548173ffffffffffffffffffffffffffffffffffffffff021916908373ffffffffffffffffffffffffffffffffffffffff160217905550808273ffffffffffffffffffffffffffffffffffffffff168473ffffffffffffffffffffffffffffffffffffffff167fddf252ad1be2c89b69c2b068fc378daa952ba7f163c4a11628f55a4df523b3ef60405160405180910390a461233f838383612a6c565b505050565b6000600760009054906101000a900473ffffffffffffffffffffffffffffffffffffffff16905081600760006101000a81548173ffffffffffffffffffffffffffffffffffffffff021916908373ffffffffffffffffffffffffffffffffffffffff1602179055508173ffffffffffffffffffffffffffffffffffffffff168173ffffffffffffffffffffffffffffffffffffffff167f8be0079c531659141344cd1fd0a4f28419497f9722a3daafe3b4186f6b6457e060405160405180910390a35050565b6000600d805490508261241d9190614365565b90506000600d828154811061245b577f4e487b7100000000000000000000000000000000000000000000000000000000600052603260045260246000fd5b90600052602060002090601091828204019190066002029054906101000a900461ffff1661ffff169050600d6001600d80549050612499919061415d565b815481106124d0577f4e487b7100000000000000000000000000000000000000000000000000000000600052603260045260246000fd5b90600052602060002090601091828204019190066002029054906101000a900461ffff16600d838154811061252e577f4e487b7100000000000000000000000000000000000000000000000000000000600052603260045260246000fd5b90600052602060002090601091828204019190066002026101000a81548161ffff021916908361ffff160217905550600d805480612595577f4e487b7100000000000000000000000000000000000000000000000000000000600052603160045260246000fd5b60019003818190600052602060002090601091828204019190066002026101000a81549061ffff021916905590556125cd8482612a71565b7f76020ece75bf679c701e656fcffc7e3df8354859b3b0eb7fee42b1378023bb3184826040516125fe929190613ba0565b60405180910390a150505050565b8173ffffffffffffffffffffffffffffffffffffffff168373ffffffffffffffffffffffffffffffffffffffff16141561267b576040517f08c379a000000000000000000000000000000000000000000000000000000000815260040161267290613d56565b60405180910390fd5b80600560008573ffffffffffffffffffffffffffffffffffffffff1673ffffffffffffffffffffffffffffffffffffffff16815260200190815260200160002060008473ffffffffffffffffffffffffffffffffffffffff1673ffffffffffffffffffffffffffffffffffffffff16815260200190815260200160002060006101000a81548160ff0219169083151502179055508173ffffffffffffffffffffffffffffffffffffffff168373ffffffffffffffffffffffffffffffffffffffff167f17307eab39ab6107e8899845ad3d59bd9653f200f220920489ca2b5937696c318360405161276c9190613beb565b60405180910390a3505050565b6127848484846120dd565b61279084848484612a8f565b6127cf576040517f08c379a00000000000000000000000000000000000000000000000000000000081526004016127c690613c96565b60405180910390fd5b50505050565b6060600980546127e4906142b9565b80601f0160208091040260200160405190810160405280929190818152602001828054612810906142b9565b801561285d5780601f106128325761010080835404028352916020019161285d565b820191906000526020600020905b81548152906001019060200180831161284057829003601f168201915b5050505050905090565b606060008214156128af576040518060400160405280600181526020017f30000000000000000000000000000000000000000000000000000000000000008152509050612a0f565b600082905060005b600082146128e15780806128ca9061431c565b915050600a826128da91906140f8565b91506128b7565b60008167ffffffffffffffff811115612923577f4e487b7100000000000000000000000000000000000000000000000000000000600052604160045260246000fd5b6040519080825280601f01601f1916602001820160405280156129555781602001600182028036833780820191505090505b5090505b60008514612a085760018261296e919061415d565b9150600a8561297d9190614365565b603061298991906140a2565b60f81b8183815181106129c5577f4e487b7100000000000000000000000000000000000000000000000000000000600052603260045260246000fd5b60200101907effffffffffffffffffffffffffffffffffffffffffffffffffffffffffffff1916908160001a905350600a85612a0191906140f8565b9450612959565b8093505050505b919050565b612a1d81612c26565b6000600660008381526020019081526020016000208054612a3d906142b9565b905014612a6457600660008281526020019081526020016000206000612a63919061306e565b5b50565b505050565b505050565b612a8b828260405180602001604052806000815250612d43565b5050565b6000612ab08473ffffffffffffffffffffffffffffffffffffffff16612d9e565b15612c19578373ffffffffffffffffffffffffffffffffffffffff1663150b7a02612ad9611c3d565b8786866040518563ffffffff1660e01b8152600401612afb9493929190613b2b565b602060405180830381600087803b158015612b1557600080fd5b505af1925050508015612b4657506040513d601f19601f82011682018060405250810190612b4391906134b4565b60015b612bc9573d8060008114612b76576040519150601f19603f3d011682016040523d82523d6000602084013e612b7b565b606091505b50600081511415612bc1576040517f08c379a0000000000000000000000000000000000000000000000000000000008152600401612bb890613c96565b60405180910390fd5b805181602001fd5b63150b7a0260e01b7bffffffffffffffffffffffffffffffffffffffffffffffffffffffff1916817bffffffffffffffffffffffffffffffffffffffffffffffffffffffff191614915050612c1e565b600190505b949350505050565b6000612c31826110e5565b9050612c3f81600084612a67565b612c4a600083611c45565b6001600360008373ffffffffffffffffffffffffffffffffffffffff1673ffffffffffffffffffffffffffffffffffffffff1681526020019081526020016000206000828254612c9a919061415d565b925050819055506002600083815260200190815260200160002060006101000a81549073ffffffffffffffffffffffffffffffffffffffff021916905581600073ffffffffffffffffffffffffffffffffffffffff168273ffffffffffffffffffffffffffffffffffffffff167fddf252ad1be2c89b69c2b068fc378daa952ba7f163c4a11628f55a4df523b3ef60405160405180910390a4612d3f81600084612a6c565b5050565b612d4d8383612dc1565b612d5a6000848484612a8f565b612d99576040517f08c379a0000000000000000000000000000000000000000000000000000000008152600401612d9090613c96565b60405180910390fd5b505050565b6000808273ffffffffffffffffffffffffffffffffffffffff163b119050919050565b600073ffffffffffffffffffffffffffffffffffffffff168273ffffffffffffffffffffffffffffffffffffffff161415612e31576040517f08c379a0000000000000000000000000000000000000000000000000000000008152600401612e2890613e16565b60405180910390fd5b612e3a81611bd1565b15612e7a576040517f08c379a0000000000000000000000000000000000000000000000000000000008152600401612e7190613cf6565b60405180910390fd5b612e8660008383612a67565b6001600360008473ffffffffffffffffffffffffffffffffffffffff1673ffffffffffffffffffffffffffffffffffffffff1681526020019081526020016000206000828254612ed691906140a2565b92505081905550816002600083815260200190815260200160002060006101000a81548173ffffffffffffffffffffffffffffffffffffffff021916908373ffffffffffffffffffffffffffffffffffffffff160217905550808273ffffffffffffffffffffffffffffffffffffffff16600073ffffffffffffffffffffffffffffffffffffffff167fddf252ad1be2c89b69c2b068fc378daa952ba7f163c4a11628f55a4df523b3ef60405160405180910390a4612f9760008383612a6c565b5050565b828054612fa7906142b9565b90600052602060002090601f016020900481019282612fc95760008555613010565b82601f10612fe257803560ff1916838001178555613010565b82800160010185558215613010579182015b8281111561300f578235825591602001919060010190612ff4565b5b50905061301d91906130ae565b5090565b82805482825590600052602060002090810192821561305d579160200282015b8281111561305c578251825591602001919060010190613041565b5b50905061306a91906130ae565b5090565b50805461307a906142b9565b6000825580601f1061308c57506130ab565b601f0160209004906000526020600020908101906130aa91906130ae565b5b50565b5b808211156130c75760008160009055506001016130af565b5090565b60006130de6130d984613f91565b613f6c565b905080838252602082019050828560208602820111156130fd57600080fd5b60005b8581101561312d57816131138882613291565b845260208401935060208301925050600181019050613100565b5050509392505050565b600061314a61314584613fbd565b613f6c565b90508281526020810184848401111561316257600080fd5b61316d848285614277565b509392505050565b600081359050613184816149fa565b92915050565b600082601f83011261319b57600080fd5b81356131ab8482602086016130cb565b91505092915050565b6000813590506131c381614a11565b92915050565b6000815190506131d881614a11565b92915050565b6000813590506131ed81614a28565b92915050565b60008151905061320281614a28565b92915050565b600082601f83011261321957600080fd5b8135613229848260208601613137565b91505092915050565b60008083601f84011261324457600080fd5b8235905067ffffffffffffffff81111561325d57600080fd5b60208301915083600182028301111561327557600080fd5b9250929050565b60008135905061328b81614a3f565b92915050565b6000813590506132a081614a56565b92915050565b6000815190506132b581614a56565b92915050565b6000602082840312156132cd57600080fd5b60006132db84828501613175565b91505092915050565b600080604083850312156132f757600080fd5b600061330585828601613175565b925050602061331685828601613175565b9150509250929050565b60008060006060848603121561333557600080fd5b600061334386828701613175565b935050602061335486828701613175565b925050604061336586828701613291565b9150509250925092565b6000806000806080858703121561338557600080fd5b600061339387828801613175565b94505060206133a487828801613175565b93505060406133b587828801613291565b925050606085013567ffffffffffffffff8111156133d257600080fd5b6133de87828801613208565b91505092959194509250565b600080604083850312156133fd57600080fd5b600061340b85828601613175565b925050602061341c858286016131b4565b9150509250929050565b6000806040838503121561343957600080fd5b600061344785828601613175565b925050602061345885828601613291565b9150509250929050565b60006020828403121561347457600080fd5b6000613482848285016131c9565b91505092915050565b60006020828403121561349d57600080fd5b60006134ab848285016131de565b91505092915050565b6000602082840312156134c657600080fd5b60006134d4848285016131f3565b91505092915050565b600080602083850312156134f057600080fd5b600083013567ffffffffffffffff81111561350a57600080fd5b61351685828601613232565b92509250509250929050565b60006020828403121561353457600080fd5b60006135428482850161327c565b91505092915050565b60006020828403121561355d57600080fd5b600061356b84828501613291565b91505092915050565b60006020828403121561358657600080fd5b6000613594848285016132a6565b91505092915050565b600080604083850312156135b057600080fd5b60006135be85828601613291565b925050602083013567ffffffffffffffff8111156135db57600080fd5b6135e78582860161318a565b9150509250929050565b60006135fd8383613609565b60208301905092915050565b61361281614191565b82525050565b61362181614191565b82525050565b600061363282613ffe565b61363c818561402c565b935061364783613fee565b8060005b8381101561367857815161365f88826135f1565b975061366a8361401f565b92505060018101905061364b565b5085935050505092915050565b61368e816141a3565b82525050565b61369d816141af565b82525050565b60006136ae82614009565b6136b8818561403d565b93506136c8818560208601614286565b6136d181614452565b840191505092915050565b6136e581614241565b82525050565b6136f481614265565b82525050565b600061370582614014565b61370f818561404e565b935061371f818560208601614286565b61372881614452565b840191505092915050565b600061373e82614014565b613748818561405f565b9350613758818560208601614286565b80840191505092915050565b600061377160328361404e565b915061377c82614463565b604082019050919050565b600061379460268361404e565b915061379f826144b2565b604082019050919050565b60006137b760258361404e565b91506137c282614501565b604082019050919050565b60006137da601c8361404e565b91506137e582614550565b602082019050919050565b60006137fd60318361404e565b915061380882614579565b604082019050919050565b600061382060248361404e565b915061382b826145c8565b604082019050919050565b600061384360198361404e565b915061384e82614617565b602082019050919050565b6000613866602c8361404e565b915061387182614640565b604082019050919050565b600061388960388361404e565b91506138948261468f565b604082019050919050565b60006138ac602a8361404e565b91506138b7826146de565b604082019050919050565b60006138cf60298361404e565b91506138da8261472d565b604082019050919050565b60006138f260308361404e565b91506138fd8261477c565b604082019050919050565b600061391560208361404e565b9150613920826147cb565b602082019050919050565b6000613938602c8361404e565b9150613943826147f4565b604082019050919050565b600061395b60208361404e565b915061396682614843565b602082019050919050565b600061397e60228361404e565b91506139898261486c565b604082019050919050565b60006139a160128361404e565b91506139ac826148bb565b602082019050919050565b60006139c460218361404e565b91506139cf826148e4565b604082019050919050565b60006139e760318361404e565b91506139f282614933565b604082019050919050565b6000613a0a60238361404e565b9150613a1582614982565b604082019050919050565b6000613a2d60198361404e565b9150613a38826149d1565b602082019050919050565b613a4c816141e5565b82525050565b613a5b81614213565b82525050565b613a6a8161421d565b82525050565b613a798161422d565b82525050565b6000613a8b8286613733565b9150613a978285613733565b9150613aa38284613733565b9150819050949350505050565b6000602082019050613ac56000830184613618565b92915050565b6000604082019050613ae06000830185613618565b613aed6020830184613618565b9392505050565b6000606082019050613b096000830186613618565b613b166020830185613618565b613b236040830184613a52565b949350505050565b6000608082019050613b406000830187613618565b613b4d6020830186613618565b613b5a6040830185613a52565b8181036060830152613b6c81846136a3565b905095945050505050565b6000604082019050613b8c6000830185613618565b613b9960208301846136eb565b9392505050565b6000604082019050613bb56000830185613618565b613bc26020830184613a52565b9392505050565b60006020820190508181036000830152613be38184613627565b905092915050565b6000602082019050613c006000830184613685565b92915050565b600060a082019050613c1b6000830188613694565b613c286020830187613a70565b613c356040830186613a43565b613c426060830185613a61565b613c4f6080830184613a61565b9695505050505050565b6000602082019050613c6e60008301846136dc565b92915050565b60006020820190508181036000830152613c8e81846136fa565b905092915050565b60006020820190508181036000830152613caf81613764565b9050919050565b60006020820190508181036000830152613ccf81613787565b9050919050565b60006020820190508181036000830152613cef816137aa565b9050919050565b60006020820190508181036000830152613d0f816137cd565b9050919050565b60006020820190508181036000830152613d2f816137f0565b9050919050565b60006020820190508181036000830152613d4f81613813565b9050919050565b60006020820190508181036000830152613d6f81613836565b9050919050565b60006020820190508181036000830152613d8f81613859565b9050919050565b60006020820190508181036000830152613daf8161387c565b9050919050565b60006020820190508181036000830152613dcf8161389f565b9050919050565b60006020820190508181036000830152613def816138c2565b9050919050565b60006020820190508181036000830152613e0f816138e5565b9050919050565b60006020820190508181036000830152613e2f81613908565b9050919050565b60006020820190508181036000830152613e4f8161392b565b9050919050565b60006020820190508181036000830152613e6f8161394e565b9050919050565b60006020820190508181036000830152613e8f81613971565b9050919050565b60006020820190508181036000830152613eaf81613994565b9050919050565b60006020820190508181036000830152613ecf816139b7565b9050919050565b60006020820190508181036000830152613eef816139da565b9050919050565b60006020820190508181036000830152613f0f816139fd565b9050919050565b60006020820190508181036000830152613f2f81613a20565b9050919050565b6000602082019050613f4b6000830184613a43565b92915050565b6000602082019050613f666000830184613a52565b92915050565b6000613f76613f87565b9050613f8282826142eb565b919050565b6000604051905090565b600067ffffffffffffffff821115613fac57613fab614423565b5b602082029050602081019050919050565b600067ffffffffffffffff821115613fd857613fd7614423565b5b613fe182614452565b9050602081019050919050565b6000819050602082019050919050565b600081519050919050565b600081519050919050565b600081519050919050565b6000602082019050919050565b600082825260208201905092915050565b600082825260208201905092915050565b600082825260208201905092915050565b600081905092915050565b6000614075826141e5565b9150614080836141e5565b92508261ffff0382111561409757614096614396565b5b828201905092915050565b60006140ad82614213565b91506140b883614213565b9250827fffffffffffffffffffffffffffffffffffffffffffffffffffffffffffffffff038211156140ed576140ec614396565b5b828201905092915050565b600061410382614213565b915061410e83614213565b92508261411e5761411d6143c5565b5b828204905092915050565b6000614134826141e5565b915061413f836141e5565b92508282101561415257614151614396565b5b828203905092915050565b600061416882614213565b915061417383614213565b92508282101561418657614185614396565b5b828203905092915050565b600061419c826141f3565b9050919050565b60008115159050919050565b6000819050919050565b60007fffffffff0000000000000000000000000000000000000000000000000000000082169050919050565b600061ffff82169050919050565b600073ffffffffffffffffffffffffffffffffffffffff82169050919050565b6000819050919050565b600063ffffffff82169050919050565b600067ffffffffffffffff82169050919050565b600061424c82614253565b9050919050565b600061425e826141f3565b9050919050565b600061427082614213565b9050919050565b82818337600083830152505050565b60005b838110156142a4578082015181840152602081019050614289565b838111156142b3576000848401525b50505050565b600060028204905060018216806142d157607f821691505b602082108114156142e5576142e46143f4565b5b50919050565b6142f482614452565b810181811067ffffffffffffffff8211171561431357614312614423565b5b80604052505050565b600061432782614213565b91507fffffffffffffffffffffffffffffffffffffffffffffffffffffffffffffffff82141561435a57614359614396565b5b600182019050919050565b600061437082614213565b915061437b83614213565b92508261438b5761438a6143c5565b5b828206905092915050565b7f4e487b7100000000000000000000000000000000000000000000000000000000600052601160045260246000fd5b7f4e487b7100000000000000000000000000000000000000000000000000000000600052601260045260246000fd5b7f4e487b7100000000000000000000000000000000000000000000000000000000600052602260045260246000fd5b7f4e487b7100000000000000000000000000000000000000000000000000000000600052604160045260246000fd5b6000601f19601f8301169050919050565b7f4552433732313a207472616e7366657220746f206e6f6e20455243373231526560008201527f63656976657220696d706c656d656e7465720000000000000000000000000000602082015250565b7f4f776e61626c653a206e6577206f776e657220697320746865207a65726f206160008201527f6464726573730000000000000000000000000000000000000000000000000000602082015250565b7f4552433732313a207472616e736665722066726f6d20696e636f72726563742060008201527f6f776e6572000000000000000000000000000000000000000000000000000000602082015250565b7f4552433732313a20746f6b656e20616c7265616479206d696e74656400000000600082015250565b7f43616e6e6f7420696e697469616c697a65206d6f726520746f6b656e7320746860008201527f616e20746865206d61785f737570706c79000000000000000000000000000000602082015250565b7f4552433732313a207472616e7366657220746f20746865207a65726f2061646460008201527f7265737300000000000000000000000000000000000000000000000000000000602082015250565b7f4552433732313a20617070726f766520746f2063616c6c657200000000000000600082015250565b7f4552433732313a206f70657261746f7220717565727920666f72206e6f6e657860008201527f697374656e7420746f6b656e0000000000000000000000000000000000000000602082015250565b7f4552433732313a20617070726f76652063616c6c6572206973206e6f74206f7760008201527f6e6572206e6f7220617070726f76656420666f7220616c6c0000000000000000602082015250565b7f4552433732313a2062616c616e636520717565727920666f7220746865207a6560008201527f726f206164647265737300000000000000000000000000000000000000000000602082015250565b7f4552433732313a206f776e657220717565727920666f72206e6f6e657869737460008201527f656e7420746f6b656e0000000000000000000000000000000000000000000000602082015250565b7f4552433732314d657461646174613a2055524920717565727920666f72206e6f60008201527f6e6578697374656e7420746f6b656e2000000000000000000000000000000000602082015250565b7f4552433732313a206d696e7420746f20746865207a65726f2061646472657373600082015250565b7f4552433732313a20617070726f76656420717565727920666f72206e6f6e657860008201527f697374656e7420746f6b656e0000000000000000000000000000000000000000602082015250565b7f4f776e61626c653a2063616c6c6572206973206e6f7420746865206f776e6572600082015250565b7f456163682061646472657373206d6179206f6e6c79206d696e742078204e465460008201527f7321000000000000000000000000000000000000000000000000000000000000602082015250565b7f4e6f206d696e74657220696e2071756575650000000000000000000000000000600082015250565b7f4552433732313a20617070726f76616c20746f2063757272656e74206f776e6560008201527f7200000000000000000000000000000000000000000000000000000000000000602082015250565b7f4552433732313a207472616e736665722063616c6c6572206973206e6f74206f60008201527f776e6572206e6f7220617070726f766564000000000000000000000000000000602082015250565b7f596f7520617265206e6f7420746865206f776e6572206f66207468697320746f60008201527f6b656e0000000000000000000000000000000000000000000000000000000000602082015250565b7f4e6f206d6f726520746f6b656e7320617661696c61626c652100000000000000600082015250565b614a0381614191565b8114614a0e57600080fd5b50565b614a1a816141a3565b8114614a2557600080fd5b50565b614a31816141b9565b8114614a3c57600080fd5b50565b614a48816141e5565b8114614a5357600080fd5b50565b614a5f81614213565b8114614a6a57600080fd5b5056fe697066733a2f2f516d615965624b337a4566487066416d7652447648423562374d6d675259536563425936397059665063617432322fa26469706673582212206cb85dbf4a5b3981f0f6c8121607cf2736b6cf4ec44af463ab3045519c83c93f64736f6c63430008040033697066733a2f2f516d4e506939336f796e776f69374e6d486d573741425467704d666151746d784b4a6f786d7058734a484e67474b2f",
  "linkReferences": {},
  "deployedLinkReferences": {}
}