{
  "_format": "hh-sol-artifact-1",
  "contractName": "NFT",
  "sourceName": "src/backend/contracts/NFT.sol",
  "abi": [
    {
      "inputs": [
        {
          "internalType": "address",
          "name": "tokenAddress",
          "type": "address"
        },
        {
          "internalType": "uint64",
          "name": "subscriptionId",
          "type": "uint64"
        }
      ],
      "stateMutability": "nonpayable",
      "type": "constructor"
    },
    {
      "inputs": [
        {
          "internalType": "address",
          "name": "have",
          "type": "address"
        },
        {
          "internalType": "address",
          "name": "want",
          "type": "address"
        }
      ],
      "name": "OnlyCoordinatorCanFulfill",
      "type": "error"
    },
    {
      "anonymous": false,
      "inputs": [
        {
          "indexed": true,
          "internalType": "address",
          "name": "owner",
          "type": "address"
        },
        {
          "indexed": true,
          "internalType": "address",
          "name": "approved",
          "type": "address"
        },
        {
          "indexed": true,
          "internalType": "uint256",
          "name": "tokenId",
          "type": "uint256"
        }
      ],
      "name": "Approval",
      "type": "event"
    },
    {
      "anonymous": false,
      "inputs": [
        {
          "indexed": true,
          "internalType": "address",
          "name": "owner",
          "type": "address"
        },
        {
          "indexed": true,
          "internalType": "address",
          "name": "operator",
          "type": "address"
        },
        {
          "indexed": false,
          "internalType": "bool",
          "name": "approved",
          "type": "bool"
        }
      ],
      "name": "ApprovalForAll",
      "type": "event"
    },
    {
      "anonymous": false,
      "inputs": [
        {
          "indexed": false,
          "internalType": "address",
          "name": "user",
          "type": "address"
        }
      ],
      "name": "MintRequestSent",
      "type": "event"
    },
    {
      "anonymous": false,
      "inputs": [
        {
          "indexed": false,
          "internalType": "address",
          "name": "user",
          "type": "address"
        },
        {
          "indexed": false,
          "internalType": "uint256",
          "name": "tokenId",
          "type": "uint256"
        }
      ],
      "name": "MintSuccessful",
      "type": "event"
    },
    {
      "anonymous": false,
      "inputs": [
        {
          "indexed": true,
          "internalType": "address",
          "name": "previousOwner",
          "type": "address"
        },
        {
          "indexed": true,
          "internalType": "address",
          "name": "newOwner",
          "type": "address"
        }
      ],
      "name": "OwnershipTransferred",
      "type": "event"
    },
    {
      "anonymous": false,
      "inputs": [
        {
          "indexed": false,
          "internalType": "address",
          "name": "user",
          "type": "address"
        },
        {
          "indexed": false,
          "internalType": "uint256",
          "name": "tokenId",
          "type": "uint256"
        }
      ],
      "name": "Redeem",
      "type": "event"
    },
    {
      "anonymous": false,
      "inputs": [
        {
          "indexed": true,
          "internalType": "address",
          "name": "from",
          "type": "address"
        },
        {
          "indexed": true,
          "internalType": "address",
          "name": "to",
          "type": "address"
        },
        {
          "indexed": true,
          "internalType": "uint256",
          "name": "tokenId",
          "type": "uint256"
        }
      ],
      "name": "Transfer",
      "type": "event"
    },
    {
      "inputs": [
        {
          "internalType": "address",
          "name": "user",
          "type": "address"
        },
        {
          "internalType": "uint256",
          "name": "_tokenId",
          "type": "uint256"
        }
      ],
      "name": "airdrop",
      "outputs": [],
      "stateMutability": "nonpayable",
      "type": "function"
    },
    {
      "inputs": [
        {
          "internalType": "address",
          "name": "user",
          "type": "address"
        },
        {
          "internalType": "uint256",
          "name": "_random",
          "type": "uint256"
        }
      ],
      "name": "airdropRandom",
      "outputs": [],
      "stateMutability": "nonpayable",
      "type": "function"
    },
    {
      "inputs": [],
      "name": "amountMintPerAccount",
      "outputs": [
        {
          "internalType": "uint256",
          "name": "",
          "type": "uint256"
        }
      ],
      "stateMutability": "view",
      "type": "function"
    },
    {
      "inputs": [
        {
          "internalType": "address",
          "name": "to",
          "type": "address"
        },
        {
          "internalType": "uint256",
          "name": "tokenId",
          "type": "uint256"
        }
      ],
      "name": "approve",
      "outputs": [],
      "stateMutability": "nonpayable",
      "type": "function"
    },
    {
      "inputs": [
        {
          "internalType": "address",
          "name": "owner",
          "type": "address"
        }
      ],
      "name": "balanceOf",
      "outputs": [
        {
          "internalType": "uint256",
          "name": "",
          "type": "uint256"
        }
      ],
      "stateMutability": "view",
      "type": "function"
    },
    {
      "inputs": [],
      "name": "baseUri",
      "outputs": [
        {
          "internalType": "string",
          "name": "",
          "type": "string"
        }
      ],
      "stateMutability": "view",
      "type": "function"
    },
    {
      "inputs": [],
      "name": "contractURI",
      "outputs": [
        {
          "internalType": "string",
          "name": "",
          "type": "string"
        }
      ],
      "stateMutability": "pure",
      "type": "function"
    },
    {
      "inputs": [
        {
          "internalType": "uint256",
          "name": "tokenId",
          "type": "uint256"
        }
      ],
      "name": "getApproved",
      "outputs": [
        {
          "internalType": "address",
          "name": "",
          "type": "address"
        }
      ],
      "stateMutability": "view",
      "type": "function"
    },
    {
      "inputs": [],
      "name": "getAvailableTokensCount",
      "outputs": [
        {
          "internalType": "uint256",
          "name": "",
          "type": "uint256"
        }
      ],
      "stateMutability": "view",
      "type": "function"
    },
    {
      "inputs": [],
      "name": "getPrice",
      "outputs": [
        {
          "internalType": "uint256",
          "name": "",
          "type": "uint256"
        }
      ],
      "stateMutability": "view",
      "type": "function"
    },
    {
      "inputs": [],
      "name": "getRedeemedTokens",
      "outputs": [
        {
          "internalType": "address[]",
          "name": "",
          "type": "address[]"
        }
      ],
      "stateMutability": "view",
      "type": "function"
    },
    {
      "inputs": [],
      "name": "getTokensInitializedCount",
      "outputs": [
        {
          "internalType": "uint16",
          "name": "",
          "type": "uint16"
        }
      ],
      "stateMutability": "view",
      "type": "function"
    },
    {
      "inputs": [
        {
          "internalType": "uint16",
          "name": "_tokenId",
          "type": "uint16"
        }
      ],
      "name": "initializeToken",
      "outputs": [],
      "stateMutability": "nonpayable",
      "type": "function"
    },
    {
      "inputs": [
        {
          "internalType": "uint16",
          "name": "_count",
          "type": "uint16"
        }
      ],
      "name": "initializeTokens",
      "outputs": [],
      "stateMutability": "nonpayable",
      "type": "function"
    },
    {
      "inputs": [
        {
          "internalType": "address",
          "name": "owner",
          "type": "address"
        },
        {
          "internalType": "address",
          "name": "operator",
          "type": "address"
        }
      ],
      "name": "isApprovedForAll",
      "outputs": [
        {
          "internalType": "bool",
          "name": "",
          "type": "bool"
        }
      ],
      "stateMutability": "view",
      "type": "function"
    },
    {
      "inputs": [],
      "name": "max_supply",
      "outputs": [
        {
          "internalType": "uint16",
          "name": "",
          "type": "uint16"
        }
      ],
      "stateMutability": "view",
      "type": "function"
    },
    {
      "inputs": [],
      "name": "mint",
      "outputs": [],
      "stateMutability": "nonpayable",
      "type": "function"
    },
    {
      "inputs": [],
      "name": "name",
      "outputs": [
        {
          "internalType": "string",
          "name": "",
          "type": "string"
        }
      ],
      "stateMutability": "view",
      "type": "function"
    },
    {
      "inputs": [],
      "name": "owner",
      "outputs": [
        {
          "internalType": "address",
          "name": "",
          "type": "address"
        }
      ],
      "stateMutability": "view",
      "type": "function"
    },
    {
      "inputs": [
        {
          "internalType": "uint256",
          "name": "tokenId",
          "type": "uint256"
        }
      ],
      "name": "ownerOf",
      "outputs": [
        {
          "internalType": "address",
          "name": "",
          "type": "address"
        }
      ],
      "stateMutability": "view",
      "type": "function"
    },
    {
      "inputs": [],
      "name": "price",
      "outputs": [
        {
          "internalType": "uint256",
          "name": "",
          "type": "uint256"
        }
      ],
      "stateMutability": "view",
      "type": "function"
    },
    {
      "inputs": [
        {
          "internalType": "uint256",
          "name": "requestId",
          "type": "uint256"
        },
        {
          "internalType": "uint256[]",
          "name": "randomWords",
          "type": "uint256[]"
        }
      ],
      "name": "rawFulfillRandomWords",
      "outputs": [],
      "stateMutability": "nonpayable",
      "type": "function"
    },
    {
      "inputs": [
        {
          "internalType": "uint256",
          "name": "_tokenId",
          "type": "uint256"
        }
      ],
      "name": "redeemAndBurn",
      "outputs": [],
      "stateMutability": "nonpayable",
      "type": "function"
    },
    {
      "inputs": [],
      "name": "renounceOwnership",
      "outputs": [],
      "stateMutability": "nonpayable",
      "type": "function"
    },
    {
      "inputs": [
        {
          "internalType": "uint256",
          "name": "",
          "type": "uint256"
        }
      ],
      "name": "s_randomWords",
      "outputs": [
        {
          "internalType": "uint256",
          "name": "",
          "type": "uint256"
        }
      ],
      "stateMutability": "view",
      "type": "function"
    },
    {
      "inputs": [],
      "name": "s_requestId",
      "outputs": [
        {
          "internalType": "uint256",
          "name": "",
          "type": "uint256"
        }
      ],
      "stateMutability": "view",
      "type": "function"
    },
    {
      "inputs": [
        {
          "internalType": "address",
          "name": "from",
          "type": "address"
        },
        {
          "internalType": "address",
          "name": "to",
          "type": "address"
        },
        {
          "internalType": "uint256",
          "name": "tokenId",
          "type": "uint256"
        }
      ],
      "name": "safeTransferFrom",
      "outputs": [],
      "stateMutability": "nonpayable",
      "type": "function"
    },
    {
      "inputs": [
        {
          "internalType": "address",
          "name": "from",
          "type": "address"
        },
        {
          "internalType": "address",
          "name": "to",
          "type": "address"
        },
        {
          "internalType": "uint256",
          "name": "tokenId",
          "type": "uint256"
        },
        {
          "internalType": "bytes",
          "name": "_data",
          "type": "bytes"
        }
      ],
      "name": "safeTransferFrom",
      "outputs": [],
      "stateMutability": "nonpayable",
      "type": "function"
    },
    {
      "inputs": [
        {
          "internalType": "uint256",
          "name": "_amountMintPerAccount",
          "type": "uint256"
        }
      ],
      "name": "setAmountMintPerAccount",
      "outputs": [],
      "stateMutability": "nonpayable",
      "type": "function"
    },
    {
      "inputs": [
        {
          "internalType": "address",
          "name": "operator",
          "type": "address"
        },
        {
          "internalType": "bool",
          "name": "approved",
          "type": "bool"
        }
      ],
      "name": "setApprovalForAll",
      "outputs": [],
      "stateMutability": "nonpayable",
      "type": "function"
    },
    {
      "inputs": [
        {
          "internalType": "string",
          "name": "_baseUri",
          "type": "string"
        }
      ],
      "name": "setBaseUri",
      "outputs": [],
      "stateMutability": "nonpayable",
      "type": "function"
    },
    {
      "inputs": [
        {
          "internalType": "uint256",
          "name": "_price",
          "type": "uint256"
        }
      ],
      "name": "setPrice",
      "outputs": [],
      "stateMutability": "nonpayable",
      "type": "function"
    },
    {
      "inputs": [
        {
          "internalType": "bytes4",
          "name": "interfaceId",
          "type": "bytes4"
        }
      ],
      "name": "supportsInterface",
      "outputs": [
        {
          "internalType": "bool",
          "name": "",
          "type": "bool"
        }
      ],
      "stateMutability": "view",
      "type": "function"
    },
    {
      "inputs": [],
      "name": "symbol",
      "outputs": [
        {
          "internalType": "string",
          "name": "",
          "type": "string"
        }
      ],
      "stateMutability": "view",
      "type": "function"
    },
    {
      "inputs": [],
      "name": "token",
      "outputs": [
        {
          "internalType": "contract ERC20",
          "name": "",
          "type": "address"
        }
      ],
      "stateMutability": "view",
      "type": "function"
    },
    {
      "inputs": [
        {
          "internalType": "uint256",
          "name": "_tokenId",
          "type": "uint256"
        }
      ],
      "name": "tokenURI",
      "outputs": [
        {
          "internalType": "string",
          "name": "",
          "type": "string"
        }
      ],
      "stateMutability": "view",
      "type": "function"
    },
    {
      "inputs": [
        {
          "internalType": "address",
          "name": "from",
          "type": "address"
        },
        {
          "internalType": "address",
          "name": "to",
          "type": "address"
        },
        {
          "internalType": "uint256",
          "name": "tokenId",
          "type": "uint256"
        }
      ],
      "name": "transferFrom",
      "outputs": [],
      "stateMutability": "nonpayable",
      "type": "function"
    },
    {
      "inputs": [
        {
          "internalType": "address",
          "name": "newOwner",
          "type": "address"
        }
      ],
      "name": "transferOwnership",
      "outputs": [],
      "stateMutability": "nonpayable",
      "type": "function"
    },
    {
      "inputs": [],
      "name": "uriSuffix",
      "outputs": [
        {
          "internalType": "string",
          "name": "",
          "type": "string"
        }
      ],
      "stateMutability": "view",
      "type": "function"
    },
    {
      "inputs": [],
      "name": "withdraw",
      "outputs": [],
      "stateMutability": "nonpayable",
      "type": "function"
    }
  ],
  "bytecode": "0x60a0604052604051806060016040528060368152602001620054b760369139600990805190602001906200003592919062000571565b50611388600a60006101000a81548161ffff021916908361ffff1602179055506000600b55670de0b6b3a7640000600c5573271682deb8c4e0901d1a1550ad2e64d568e69909601060006101000a81548173ffffffffffffffffffffffffffffffffffffffff021916908373ffffffffffffffffffffffffffffffffffffffff1602179055507f8af398995b04c28e9951adb9721ef74c74f93e6a478f39e7e0777be13527e7ef60001b60115562030d40601260006101000a81548163ffffffff021916908363ffffffff1602179055506003601260046101000a81548161ffff021916908361ffff1602179055506001601260066101000a81548163ffffffff021916908363ffffffff1602179055503480156200015357600080fd5b50604051620054ed380380620054ed83398181016040528101906200017991906200078f565b601060009054906101000a900473ffffffffffffffffffffffffffffffffffffffff166040518060400160405280600c81526020017f4f6c64204661726d204d616e00000000000000000000000000000000000000008152506040518060400160405280600381526020017f4f464d000000000000000000000000000000000000000000000000000000000081525081600090805190602001906200022092919062000571565b5080600190805190602001906200023992919062000571565b5050506200025c62000250620004a360201b60201c565b620004ab60201b60201c565b8073ffffffffffffffffffffffffffffffffffffffff1660808173ffffffffffffffffffffffffffffffffffffffff1660601b815250505081600860006101000a81548173ffffffffffffffffffffffffffffffffffffffff021916908373ffffffffffffffffffffffffffffffffffffffff160217905550601060009054906101000a900473ffffffffffffffffffffffffffffffffffffffff16600f600a6101000a81548173ffffffffffffffffffffffffffffffffffffffff021916908373ffffffffffffffffffffffffffffffffffffffff16021790555080600f60026101000a81548167ffffffffffffffff021916908367ffffffffffffffff160217905550600a60009054906101000a900461ffff1661ffff1667ffffffffffffffff811115620003b6577f4e487b7100000000000000000000000000000000000000000000000000000000600052604160045260246000fd5b604051908082528060200260200182016040528015620003e55781602001602082028036833780820191505090505b50600d9080519060200190620003fd92919062000602565b50600a60009054906101000a900461ffff1661ffff1667ffffffffffffffff81111562000453577f4e487b7100000000000000000000000000000000000000000000000000000000600052604160045260246000fd5b604051908082528060200260200182016040528015620004825781602001602082028036833780820191505090505b50600e90805190602001906200049a929190620006b3565b505050620008b1565b600033905090565b6000600760009054906101000a900473ffffffffffffffffffffffffffffffffffffffff16905081600760006101000a81548173ffffffffffffffffffffffffffffffffffffffff021916908373ffffffffffffffffffffffffffffffffffffffff1602179055508173ffffffffffffffffffffffffffffffffffffffff168173ffffffffffffffffffffffffffffffffffffffff167f8be0079c531659141344cd1fd0a4f28419497f9722a3daafe3b4186f6b6457e060405160405180910390a35050565b8280546200057f9062000818565b90600052602060002090601f016020900481019282620005a35760008555620005ef565b82601f10620005be57805160ff1916838001178555620005ef565b82800160010185558215620005ef579182015b82811115620005ee578251825591602001919060010190620005d1565b5b509050620005fe919062000742565b5090565b82805482825590600052602060002090600f01601090048101928215620006a05791602002820160005b838211156200066e57835183826101000a81548161ffff021916908361ffff16021790555092602001926002016020816001010492830192600103026200062c565b80156200069e5782816101000a81549061ffff02191690556002016020816001010492830192600103026200066e565b505b509050620006af919062000742565b5090565b8280548282559060005260206000209081019282156200072f579160200282015b828111156200072e5782518260006101000a81548173ffffffffffffffffffffffffffffffffffffffff021916908373ffffffffffffffffffffffffffffffffffffffff16021790555091602001919060010190620006d4565b5b5090506200073e919062000742565b5090565b5b808211156200075d57600081600090555060010162000743565b5090565b60008151905062000772816200087d565b92915050565b600081519050620007898162000897565b92915050565b60008060408385031215620007a357600080fd5b6000620007b38582860162000761565b9250506020620007c68582860162000778565b9150509250929050565b6000620007dd82620007e4565b9050919050565b600073ffffffffffffffffffffffffffffffffffffffff82169050919050565b600067ffffffffffffffff82169050919050565b600060028204905060018216806200083157607f821691505b602082108114156200084857620008476200084e565b5b50919050565b7f4e487b7100000000000000000000000000000000000000000000000000000000600052602260045260246000fd5b6200088881620007d0565b81146200089457600080fd5b50565b620008a28162000804565b8114620008ae57600080fd5b50565b60805160601c614be0620008d760003960008181610d7d0152610dd10152614be06000f3fe608060405234801561001057600080fd5b50600436106102485760003560e01c80638ba4cc3c1161013b578063b88d4fde116100b8578063e985e9c51161007c578063e985e9c514610669578063f2fde38b14610699578063f6eaffc8146106b5578063f8af6716146106e5578063fc0c546a1461070357610248565b8063b88d4fde146105c5578063c87b56dd146105e1578063d0f933c014610611578063e89e106a1461062d578063e8a3d4851461064b57610248565b80639abc8320116100ff5780639abc832014610533578063a035b1fe14610551578063a0bcfc7f1461056f578063a22cb4651461058b578063a827b5ff146105a757610248565b80638ba4cc3c146104a15780638da5cb5b146104bd57806391b7f5ed146104db57806395d89b41146104f757806398d5fdca1461051557610248565b80632dcd52f2116101c95780636352211e1161018d5780636352211e146103fd57806370a082311461042d578063715018a61461045d5780637587fe9d146104675780638a333b501461048357610248565b80632dcd52f21461037d5780633ccfd60b1461039b57806342842e0e146103a5578063496b488d146103c15780635503a0e8146103df57610248565b8063112966601161021057806311296660146103035780631249c58b1461031f5780631fe543e31461032957806323b872dd14610345578063289d57d61461036157610248565b806301ffc9a71461024d57806306fdde031461027d578063081812fc1461029b578063095ea7b3146102cb5780630b801c38146102e7575b600080fd5b610267600480360381019061026291906135dc565b610721565b6040516102749190613d04565b60405180910390f35b610285610803565b6040516102929190613d8d565b60405180910390f35b6102b560048036038101906102b0919061369c565b610895565b6040516102c29190613bf2565b60405180910390f35b6102e560048036038101906102e09190613577565b61091a565b005b61030160048036038101906102fc9190613673565b610a32565b005b61031d6004803603810190610318919061369c565b610b59565b005b610327610bdf565b005b610343600480360381019061033e91906136ee565b610d7b565b005b61035f600480360381019061035a9190613471565b610e3b565b005b61037b60048036038101906103769190613673565b610e9b565b005b61038561108c565b604051610392919061406a565b60405180910390f35b6103a3611099565b005b6103bf60048036038101906103ba9190613471565b61115e565b005b6103c961117e565b6040516103d69190613ce2565b60405180910390f35b6103e761120c565b6040516103f49190613d8d565b60405180910390f35b6104176004803603810190610412919061369c565b611245565b6040516104249190613bf2565b60405180910390f35b6104476004803603810190610442919061340c565b6112f7565b604051610454919061406a565b60405180910390f35b6104656113af565b005b610481600480360381019061047c9190613577565b611437565b005b61048b6114c1565b604051610498919061404f565b60405180910390f35b6104bb60048036038101906104b69190613577565b6114d5565b005b6104c5611598565b6040516104d29190613bf2565b60405180910390f35b6104f560048036038101906104f0919061369c565b6115c2565b005b6104ff611648565b60405161050c9190613d8d565b60405180910390f35b61051d6116da565b60405161052a919061406a565b60405180910390f35b61053b6116e4565b6040516105489190613d8d565b60405180910390f35b610559611772565b604051610566919061406a565b60405180910390f35b6105896004803603810190610584919061362e565b611778565b005b6105a560048036038101906105a0919061353b565b61180a565b005b6105af611820565b6040516105bc919061406a565b60405180910390f35b6105df60048036038101906105da91906134c0565b611826565b005b6105fb60048036038101906105f6919061369c565b611888565b6040516106089190613d8d565b60405180910390f35b61062b6004803603810190610626919061369c565b611966565b005b610635611aa4565b604051610642919061406a565b60405180910390f35b610653611aaa565b6040516106609190613d8d565b60405180910390f35b610683600480360381019061067e9190613435565b611aca565b6040516106909190613d04565b60405180910390f35b6106b360048036038101906106ae919061340c565b611b5e565b005b6106cf60048036038101906106ca919061369c565b611c56565b6040516106dc919061406a565b60405180910390f35b6106ed611c7a565b6040516106fa919061404f565b60405180910390f35b61070b611c92565b6040516107189190613d72565b60405180910390f35b60007f80ac58cd000000000000000000000000000000000000000000000000000000007bffffffffffffffffffffffffffffffffffffffffffffffffffffffff1916827bffffffffffffffffffffffffffffffffffffffffffffffffffffffff191614806107ec57507f5b5e139f000000000000000000000000000000000000000000000000000000007bffffffffffffffffffffffffffffffffffffffffffffffffffffffff1916827bffffffffffffffffffffffffffffffffffffffffffffffffffffffff1916145b806107fc57506107fb82611cb8565b5b9050919050565b606060008054610812906143c0565b80601f016020809104026020016040519081016040528092919081815260200182805461083e906143c0565b801561088b5780601f106108605761010080835404028352916020019161088b565b820191906000526020600020905b81548152906001019060200180831161086e57829003601f168201915b5050505050905090565b60006108a082611d22565b6108df576040517f08c379a00000000000000000000000000000000000000000000000000000000081526004016108d690613f4f565b60405180910390fd5b6004600083815260200190815260200160002060009054906101000a900473ffffffffffffffffffffffffffffffffffffffff169050919050565b600061092582611245565b90508073ffffffffffffffffffffffffffffffffffffffff168373ffffffffffffffffffffffffffffffffffffffff161415610996576040517f08c379a000000000000000000000000000000000000000000000000000000000815260040161098d90613fcf565b60405180910390fd5b8073ffffffffffffffffffffffffffffffffffffffff166109b5611d8e565b73ffffffffffffffffffffffffffffffffffffffff1614806109e457506109e3816109de611d8e565b611aca565b5b610a23576040517f08c379a0000000000000000000000000000000000000000000000000000000008152600401610a1a90613eaf565b60405180910390fd5b610a2d8383611d96565b505050565b610a3a611d8e565b73ffffffffffffffffffffffffffffffffffffffff16610a58611598565b73ffffffffffffffffffffffffffffffffffffffff1614610aae576040517f08c379a0000000000000000000000000000000000000000000000000000000008152600401610aa590613f6f565b60405180910390fd5b80600d8261ffff1681548110610aed577f4e487b7100000000000000000000000000000000000000000000000000000000600052603260045260246000fd5b90600052602060002090601091828204019190066002026101000a81548161ffff021916908361ffff1602179055506001600f60008282829054906101000a900461ffff16610b3c9190614183565b92506101000a81548161ffff021916908361ffff16021790555050565b610b61611d8e565b73ffffffffffffffffffffffffffffffffffffffff16610b7f611598565b73ffffffffffffffffffffffffffffffffffffffff1614610bd5576040517f08c379a0000000000000000000000000000000000000000000000000000000008152600401610bcc90613f6f565b60405180910390fd5b80600b8190555050565b6000600d8054905011610c27576040517f08c379a0000000000000000000000000000000000000000000000000000000008152600401610c1e9061402f565b60405180910390fd5b6000600b541480610c415750600b54610c3f336112f7565b105b610c80576040517f08c379a0000000000000000000000000000000000000000000000000000000008152600401610c7790613f8f565b60405180910390fd5b600860009054906101000a900473ffffffffffffffffffffffffffffffffffffffff1673ffffffffffffffffffffffffffffffffffffffff166323b872dd3330610cc86116da565b6040518463ffffffff1660e01b8152600401610ce693929190613c36565b602060405180830381600087803b158015610d0057600080fd5b505af1158015610d14573d6000803e3d6000fd5b505050506040513d601f19601f82011682018060405250810190610d3891906135b3565b507fa7ff50923ec39d175a65bd008d51f39568b73da5d06a400c53fdba484edabac033604051610d689190613bf2565b60405180910390a1610d7933611e4f565b565b7f000000000000000000000000000000000000000000000000000000000000000073ffffffffffffffffffffffffffffffffffffffff163373ffffffffffffffffffffffffffffffffffffffff1614610e2d57337f00000000000000000000000000000000000000000000000000000000000000006040517f1cf993f4000000000000000000000000000000000000000000000000000000008152600401610e24929190613c0d565b60405180910390fd5b610e378282611fbc565b5050565b610e4c610e46611d8e565b82612150565b610e8b576040517f08c379a0000000000000000000000000000000000000000000000000000000008152600401610e8290613fef565b60405180910390fd5b610e9683838361222e565b505050565b610ea3611d8e565b73ffffffffffffffffffffffffffffffffffffffff16610ec1611598565b73ffffffffffffffffffffffffffffffffffffffff1614610f17576040517f08c379a0000000000000000000000000000000000000000000000000000000008152600401610f0e90613f6f565b60405180910390fd5b6000600f60009054906101000a900461ffff169050600a60009054906101000a900461ffff1661ffff168282610f4d9190614183565b61ffff161115610f92576040517f08c379a0000000000000000000000000000000000000000000000000000000008152600401610f8990613e2f565b60405180910390fd5b600182610f9f9190614183565b91506000600190505b8261ffff168161ffff1610156110425760008183610fc69190614183565b905080600d8261ffff1681548110611007577f4e487b7100000000000000000000000000000000000000000000000000000000600052603260045260246000fd5b90600052602060002090601091828204019190066002026101000a81548161ffff021916908361ffff16021790555081600101915050610fa8565b506001826110509190614242565b600f60008282829054906101000a900461ffff1661106e9190614183565b92506101000a81548161ffff021916908361ffff1602179055505050565b6000600d80549050905090565b6110a1611d8e565b73ffffffffffffffffffffffffffffffffffffffff166110bf611598565b73ffffffffffffffffffffffffffffffffffffffff1614611115576040517f08c379a000000000000000000000000000000000000000000000000000000000815260040161110c90613f6f565b60405180910390fd5b3373ffffffffffffffffffffffffffffffffffffffff166108fc479081150290604051600060405180830381858888f1935050505015801561115b573d6000803e3d6000fd5b50565b61117983838360405180602001604052806000815250611826565b505050565b6060600e80548060200260200160405190810160405280929190818152602001828054801561120257602002820191906000526020600020905b8160009054906101000a900473ffffffffffffffffffffffffffffffffffffffff1673ffffffffffffffffffffffffffffffffffffffff16815260200190600101908083116111b8575b5050505050905090565b6040518060400160405280600581526020017f2e6a736f6e00000000000000000000000000000000000000000000000000000081525081565b6000806002600084815260200190815260200160002060009054906101000a900473ffffffffffffffffffffffffffffffffffffffff169050600073ffffffffffffffffffffffffffffffffffffffff168173ffffffffffffffffffffffffffffffffffffffff1614156112ee576040517f08c379a00000000000000000000000000000000000000000000000000000000081526004016112e590613eef565b60405180910390fd5b80915050919050565b60008073ffffffffffffffffffffffffffffffffffffffff168273ffffffffffffffffffffffffffffffffffffffff161415611368576040517f08c379a000000000000000000000000000000000000000000000000000000000815260040161135f90613ecf565b60405180910390fd5b600360008373ffffffffffffffffffffffffffffffffffffffff1673ffffffffffffffffffffffffffffffffffffffff168152602001908152602001600020549050919050565b6113b7611d8e565b73ffffffffffffffffffffffffffffffffffffffff166113d5611598565b73ffffffffffffffffffffffffffffffffffffffff161461142b576040517f08c379a000000000000000000000000000000000000000000000000000000000815260040161142290613f6f565b60405180910390fd5b6114356000612495565b565b61143f611d8e565b73ffffffffffffffffffffffffffffffffffffffff1661145d611598565b73ffffffffffffffffffffffffffffffffffffffff16146114b3576040517f08c379a00000000000000000000000000000000000000000000000000000000081526004016114aa90613f6f565b60405180910390fd5b6114bd828261255b565b5050565b600a60009054906101000a900461ffff1681565b6114dd611d8e565b73ffffffffffffffffffffffffffffffffffffffff166114fb611598565b73ffffffffffffffffffffffffffffffffffffffff1614611551576040517f08c379a000000000000000000000000000000000000000000000000000000000815260040161154890613f6f565b60405180910390fd5b61155b828261275d565b7f76020ece75bf679c701e656fcffc7e3df8354859b3b0eb7fee42b1378023bb31828260405161158c929190613cb9565b60405180910390a15050565b6000600760009054906101000a900473ffffffffffffffffffffffffffffffffffffffff16905090565b6115ca611d8e565b73ffffffffffffffffffffffffffffffffffffffff166115e8611598565b73ffffffffffffffffffffffffffffffffffffffff161461163e576040517f08c379a000000000000000000000000000000000000000000000000000000000815260040161163590613f6f565b60405180910390fd5b80600c8190555050565b606060018054611657906143c0565b80601f0160208091040260200160405190810160405280929190818152602001828054611683906143c0565b80156116d05780601f106116a5576101008083540402835291602001916116d0565b820191906000526020600020905b8154815290600101906020018083116116b357829003601f168201915b5050505050905090565b6000600c54905090565b600980546116f1906143c0565b80601f016020809104026020016040519081016040528092919081815260200182805461171d906143c0565b801561176a5780601f1061173f5761010080835404028352916020019161176a565b820191906000526020600020905b81548152906001019060200180831161174d57829003601f168201915b505050505081565b600c5481565b611780611d8e565b73ffffffffffffffffffffffffffffffffffffffff1661179e611598565b73ffffffffffffffffffffffffffffffffffffffff16146117f4576040517f08c379a00000000000000000000000000000000000000000000000000000000081526004016117eb90613f6f565b60405180910390fd5b8181600991906118059291906130ec565b505050565b61181c611815611d8e565b838361277b565b5050565b600b5481565b611837611831611d8e565b83612150565b611876576040517f08c379a000000000000000000000000000000000000000000000000000000000815260040161186d90613fef565b60405180910390fd5b611882848484846128e8565b50505050565b606061189382611d22565b6118d2576040517f08c379a00000000000000000000000000000000000000000000000000000000081526004016118c990613f0f565b60405180910390fd5b60006118dc612944565b905060008151116118fc576040518060200160405280600081525061195e565b80611906846129d6565b6040518060400160405280600581526020017f2e6a736f6e00000000000000000000000000000000000000000000000000000081525060405160200161194e93929190613bc1565b6040516020818303038152906040525b915050919050565b61196f81611245565b73ffffffffffffffffffffffffffffffffffffffff163373ffffffffffffffffffffffffffffffffffffffff16146119dc576040517f08c379a00000000000000000000000000000000000000000000000000000000081526004016119d39061400f565b60405180910390fd5b33600e8281548110611a17577f4e487b7100000000000000000000000000000000000000000000000000000000600052603260045260246000fd5b9060005260206000200160006101000a81548173ffffffffffffffffffffffffffffffffffffffff021916908373ffffffffffffffffffffffffffffffffffffffff160217905550611a6881612b83565b7f222838db2794d11532d940e8dec38ae307ed0b63cd97c233322e221f998767a63382604051611a99929190613cb9565b60405180910390a150565b60145481565b6060604051806060016040528060368152602001614b7560369139905090565b6000600560008473ffffffffffffffffffffffffffffffffffffffff1673ffffffffffffffffffffffffffffffffffffffff16815260200190815260200160002060008373ffffffffffffffffffffffffffffffffffffffff1673ffffffffffffffffffffffffffffffffffffffff16815260200190815260200160002060009054906101000a900460ff16905092915050565b611b66611d8e565b73ffffffffffffffffffffffffffffffffffffffff16611b84611598565b73ffffffffffffffffffffffffffffffffffffffff1614611bda576040517f08c379a0000000000000000000000000000000000000000000000000000000008152600401611bd190613f6f565b60405180910390fd5b600073ffffffffffffffffffffffffffffffffffffffff168173ffffffffffffffffffffffffffffffffffffffff161415611c4a576040517f08c379a0000000000000000000000000000000000000000000000000000000008152600401611c4190613dcf565b60405180910390fd5b611c5381612495565b50565b60138181548110611c6657600080fd5b906000526020600020016000915090505481565b6000600f60009054906101000a900461ffff16905090565b600860009054906101000a900473ffffffffffffffffffffffffffffffffffffffff1681565b60007f01ffc9a7000000000000000000000000000000000000000000000000000000007bffffffffffffffffffffffffffffffffffffffffffffffffffffffff1916827bffffffffffffffffffffffffffffffffffffffffffffffffffffffff1916149050919050565b60008073ffffffffffffffffffffffffffffffffffffffff166002600084815260200190815260200160002060009054906101000a900473ffffffffffffffffffffffffffffffffffffffff1673ffffffffffffffffffffffffffffffffffffffff1614159050919050565b600033905090565b816004600083815260200190815260200160002060006101000a81548173ffffffffffffffffffffffffffffffffffffffff021916908373ffffffffffffffffffffffffffffffffffffffff160217905550808273ffffffffffffffffffffffffffffffffffffffff16611e0983611245565b73ffffffffffffffffffffffffffffffffffffffff167f8c5be1e5ebec7d5bd14f71427d1e84f3dd0314c0f7b2291e5b200ac8c7c3b92560405160405180910390a45050565b600f600a9054906101000a900473ffffffffffffffffffffffffffffffffffffffff1673ffffffffffffffffffffffffffffffffffffffff16635d3b1d30601154600f60029054906101000a900467ffffffffffffffff16601260049054906101000a900461ffff16601260009054906101000a900463ffffffff16601260069054906101000a900463ffffffff166040518663ffffffff1660e01b8152600401611efe959493929190613d1f565b602060405180830381600087803b158015611f1857600080fd5b505af1158015611f2c573d6000803e3d6000fd5b505050506040513d601f19601f82011682018060405250810190611f5091906136c5565b6014819055506015819080600181540180825580915050600190039060005260206000200160009091909190916101000a81548173ffffffffffffffffffffffffffffffffffffffff021916908373ffffffffffffffffffffffffffffffffffffffff16021790555050565b600060158054905011612004576040517f08c379a0000000000000000000000000000000000000000000000000000000008152600401611ffb90613faf565b60405180910390fd5b806013908051906020019061201a929190613172565b506120df601560016015805490506120329190614276565b81548110612069577f4e487b7100000000000000000000000000000000000000000000000000000000600052603260045260246000fd5b9060005260206000200160009054906101000a900473ffffffffffffffffffffffffffffffffffffffff1660136000815481106120cf577f4e487b7100000000000000000000000000000000000000000000000000000000600052603260045260246000fd5b906000526020600020015461255b565b6015805480612117577f4e487b7100000000000000000000000000000000000000000000000000000000600052603160045260246000fd5b6001900381819060005260206000200160006101000a81549073ffffffffffffffffffffffffffffffffffffffff021916905590555050565b600061215b82611d22565b61219a576040517f08c379a000000000000000000000000000000000000000000000000000000000815260040161219190613e8f565b60405180910390fd5b60006121a583611245565b90508073ffffffffffffffffffffffffffffffffffffffff168473ffffffffffffffffffffffffffffffffffffffff16148061221457508373ffffffffffffffffffffffffffffffffffffffff166121fc84610895565b73ffffffffffffffffffffffffffffffffffffffff16145b8061222557506122248185611aca565b5b91505092915050565b8273ffffffffffffffffffffffffffffffffffffffff1661224e82611245565b73ffffffffffffffffffffffffffffffffffffffff16146122a4576040517f08c379a000000000000000000000000000000000000000000000000000000000815260040161229b90613def565b60405180910390fd5b600073ffffffffffffffffffffffffffffffffffffffff168273ffffffffffffffffffffffffffffffffffffffff161415612314576040517f08c379a000000000000000000000000000000000000000000000000000000000815260040161230b90613e4f565b60405180910390fd5b61231f838383612bd6565b61232a600082611d96565b6001600360008573ffffffffffffffffffffffffffffffffffffffff1673ffffffffffffffffffffffffffffffffffffffff168152602001908152602001600020600082825461237a9190614276565b925050819055506001600360008473ffffffffffffffffffffffffffffffffffffffff1673ffffffffffffffffffffffffffffffffffffffff16815260200190815260200160002060008282546123d191906141bb565b92505081905550816002600083815260200190815260200160002060006101000a81548173ffffffffffffffffffffffffffffffffffffffff021916908373ffffffffffffffffffffffffffffffffffffffff160217905550808273ffffffffffffffffffffffffffffffffffffffff168473ffffffffffffffffffffffffffffffffffffffff167fddf252ad1be2c89b69c2b068fc378daa952ba7f163c4a11628f55a4df523b3ef60405160405180910390a4612490838383612bdb565b505050565b6000600760009054906101000a900473ffffffffffffffffffffffffffffffffffffffff16905081600760006101000a81548173ffffffffffffffffffffffffffffffffffffffff021916908373ffffffffffffffffffffffffffffffffffffffff1602179055508173ffffffffffffffffffffffffffffffffffffffff168173ffffffffffffffffffffffffffffffffffffffff167f8be0079c531659141344cd1fd0a4f28419497f9722a3daafe3b4186f6b6457e060405160405180910390a35050565b6000600d805490508261256e919061446c565b90506000600d82815481106125ac577f4e487b7100000000000000000000000000000000000000000000000000000000600052603260045260246000fd5b90600052602060002090601091828204019190066002029054906101000a900461ffff1661ffff169050600d6001600d805490506125ea9190614276565b81548110612621577f4e487b7100000000000000000000000000000000000000000000000000000000600052603260045260246000fd5b90600052602060002090601091828204019190066002029054906101000a900461ffff16600d838154811061267f577f4e487b7100000000000000000000000000000000000000000000000000000000600052603260045260246000fd5b90600052602060002090601091828204019190066002026101000a81548161ffff021916908361ffff160217905550600d8054806126e6577f4e487b7100000000000000000000000000000000000000000000000000000000600052603160045260246000fd5b60019003818190600052602060002090601091828204019190066002026101000a81549061ffff0219169055905561271e848261275d565b7f76020ece75bf679c701e656fcffc7e3df8354859b3b0eb7fee42b1378023bb31848260405161274f929190613cb9565b60405180910390a150505050565b612777828260405180602001604052806000815250612be0565b5050565b8173ffffffffffffffffffffffffffffffffffffffff168373ffffffffffffffffffffffffffffffffffffffff1614156127ea576040517f08c379a00000000000000000000000000000000000000000000000000000000081526004016127e190613e6f565b60405180910390fd5b80600560008573ffffffffffffffffffffffffffffffffffffffff1673ffffffffffffffffffffffffffffffffffffffff16815260200190815260200160002060008473ffffffffffffffffffffffffffffffffffffffff1673ffffffffffffffffffffffffffffffffffffffff16815260200190815260200160002060006101000a81548160ff0219169083151502179055508173ffffffffffffffffffffffffffffffffffffffff168373ffffffffffffffffffffffffffffffffffffffff167f17307eab39ab6107e8899845ad3d59bd9653f200f220920489ca2b5937696c31836040516128db9190613d04565b60405180910390a3505050565b6128f384848461222e565b6128ff84848484612c3b565b61293e576040517f08c379a000000000000000000000000000000000000000000000000000000000815260040161293590613daf565b60405180910390fd5b50505050565b606060098054612953906143c0565b80601f016020809104026020016040519081016040528092919081815260200182805461297f906143c0565b80156129cc5780601f106129a1576101008083540402835291602001916129cc565b820191906000526020600020905b8154815290600101906020018083116129af57829003601f168201915b5050505050905090565b60606000821415612a1e576040518060400160405280600181526020017f30000000000000000000000000000000000000000000000000000000000000008152509050612b7e565b600082905060005b60008214612a50578080612a3990614423565b915050600a82612a499190614211565b9150612a26565b60008167ffffffffffffffff811115612a92577f4e487b7100000000000000000000000000000000000000000000000000000000600052604160045260246000fd5b6040519080825280601f01601f191660200182016040528015612ac45781602001600182028036833780820191505090505b5090505b60008514612b7757600182612add9190614276565b9150600a85612aec919061446c565b6030612af891906141bb565b60f81b818381518110612b34577f4e487b7100000000000000000000000000000000000000000000000000000000600052603260045260246000fd5b60200101907effffffffffffffffffffffffffffffffffffffffffffffffffffffffffffff1916908160001a905350600a85612b709190614211565b9450612ac8565b8093505050505b919050565b612b8c81612dd2565b6000600660008381526020019081526020016000208054612bac906143c0565b905014612bd357600660008281526020019081526020016000206000612bd291906131bf565b5b50565b505050565b505050565b612bea8383612eef565b612bf76000848484612c3b565b612c36576040517f08c379a0000000000000000000000000000000000000000000000000000000008152600401612c2d90613daf565b60405180910390fd5b505050565b6000612c5c8473ffffffffffffffffffffffffffffffffffffffff166130c9565b15612dc5578373ffffffffffffffffffffffffffffffffffffffff1663150b7a02612c85611d8e565b8786866040518563ffffffff1660e01b8152600401612ca79493929190613c6d565b602060405180830381600087803b158015612cc157600080fd5b505af1925050508015612cf257506040513d601f19601f82011682018060405250810190612cef9190613605565b60015b612d75573d8060008114612d22576040519150601f19603f3d011682016040523d82523d6000602084013e612d27565b606091505b50600081511415612d6d576040517f08c379a0000000000000000000000000000000000000000000000000000000008152600401612d6490613daf565b60405180910390fd5b805181602001fd5b63150b7a0260e01b7bffffffffffffffffffffffffffffffffffffffffffffffffffffffff1916817bffffffffffffffffffffffffffffffffffffffffffffffffffffffff191614915050612dca565b600190505b949350505050565b6000612ddd82611245565b9050612deb81600084612bd6565b612df6600083611d96565b6001600360008373ffffffffffffffffffffffffffffffffffffffff1673ffffffffffffffffffffffffffffffffffffffff1681526020019081526020016000206000828254612e469190614276565b925050819055506002600083815260200190815260200160002060006101000a81549073ffffffffffffffffffffffffffffffffffffffff021916905581600073ffffffffffffffffffffffffffffffffffffffff168273ffffffffffffffffffffffffffffffffffffffff167fddf252ad1be2c89b69c2b068fc378daa952ba7f163c4a11628f55a4df523b3ef60405160405180910390a4612eeb81600084612bdb565b5050565b600073ffffffffffffffffffffffffffffffffffffffff168273ffffffffffffffffffffffffffffffffffffffff161415612f5f576040517f08c379a0000000000000000000000000000000000000000000000000000000008152600401612f5690613f2f565b60405180910390fd5b612f6881611d22565b15612fa8576040517f08c379a0000000000000000000000000000000000000000000000000000000008152600401612f9f90613e0f565b60405180910390fd5b612fb460008383612bd6565b6001600360008473ffffffffffffffffffffffffffffffffffffffff1673ffffffffffffffffffffffffffffffffffffffff168152602001908152602001600020600082825461300491906141bb565b92505081905550816002600083815260200190815260200160002060006101000a81548173ffffffffffffffffffffffffffffffffffffffff021916908373ffffffffffffffffffffffffffffffffffffffff160217905550808273ffffffffffffffffffffffffffffffffffffffff16600073ffffffffffffffffffffffffffffffffffffffff167fddf252ad1be2c89b69c2b068fc378daa952ba7f163c4a11628f55a4df523b3ef60405160405180910390a46130c560008383612bdb565b5050565b6000808273ffffffffffffffffffffffffffffffffffffffff163b119050919050565b8280546130f8906143c0565b90600052602060002090601f01602090048101928261311a5760008555613161565b82601f1061313357803560ff1916838001178555613161565b82800160010185558215613161579182015b82811115613160578235825591602001919060010190613145565b5b50905061316e91906131ff565b5090565b8280548282559060005260206000209081019282156131ae579160200282015b828111156131ad578251825591602001919060010190613192565b5b5090506131bb91906131ff565b5090565b5080546131cb906143c0565b6000825580601f106131dd57506131fc565b601f0160209004906000526020600020908101906131fb91906131ff565b5b50565b5b80821115613218576000816000905550600101613200565b5090565b600061322f61322a846140aa565b614085565b9050808382526020820190508285602086028201111561324e57600080fd5b60005b8581101561327e578161326488826133e2565b845260208401935060208301925050600181019050613251565b5050509392505050565b600061329b613296846140d6565b614085565b9050828152602081018484840111156132b357600080fd5b6132be84828561437e565b509392505050565b6000813590506132d581614b01565b92915050565b600082601f8301126132ec57600080fd5b81356132fc84826020860161321c565b91505092915050565b60008135905061331481614b18565b92915050565b60008151905061332981614b18565b92915050565b60008135905061333e81614b2f565b92915050565b60008151905061335381614b2f565b92915050565b600082601f83011261336a57600080fd5b813561337a848260208601613288565b91505092915050565b60008083601f84011261339557600080fd5b8235905067ffffffffffffffff8111156133ae57600080fd5b6020830191508360018202830111156133c657600080fd5b9250929050565b6000813590506133dc81614b46565b92915050565b6000813590506133f181614b5d565b92915050565b60008151905061340681614b5d565b92915050565b60006020828403121561341e57600080fd5b600061342c848285016132c6565b91505092915050565b6000806040838503121561344857600080fd5b6000613456858286016132c6565b9250506020613467858286016132c6565b9150509250929050565b60008060006060848603121561348657600080fd5b6000613494868287016132c6565b93505060206134a5868287016132c6565b92505060406134b6868287016133e2565b9150509250925092565b600080600080608085870312156134d657600080fd5b60006134e4878288016132c6565b94505060206134f5878288016132c6565b9350506040613506878288016133e2565b925050606085013567ffffffffffffffff81111561352357600080fd5b61352f87828801613359565b91505092959194509250565b6000806040838503121561354e57600080fd5b600061355c858286016132c6565b925050602061356d85828601613305565b9150509250929050565b6000806040838503121561358a57600080fd5b6000613598858286016132c6565b92505060206135a9858286016133e2565b9150509250929050565b6000602082840312156135c557600080fd5b60006135d38482850161331a565b91505092915050565b6000602082840312156135ee57600080fd5b60006135fc8482850161332f565b91505092915050565b60006020828403121561361757600080fd5b600061362584828501613344565b91505092915050565b6000806020838503121561364157600080fd5b600083013567ffffffffffffffff81111561365b57600080fd5b61366785828601613383565b92509250509250929050565b60006020828403121561368557600080fd5b6000613693848285016133cd565b91505092915050565b6000602082840312156136ae57600080fd5b60006136bc848285016133e2565b91505092915050565b6000602082840312156136d757600080fd5b60006136e5848285016133f7565b91505092915050565b6000806040838503121561370157600080fd5b600061370f858286016133e2565b925050602083013567ffffffffffffffff81111561372c57600080fd5b613738858286016132db565b9150509250929050565b600061374e838361375a565b60208301905092915050565b613763816142aa565b82525050565b613772816142aa565b82525050565b600061378382614117565b61378d8185614145565b935061379883614107565b8060005b838110156137c95781516137b08882613742565b97506137bb83614138565b92505060018101905061379c565b5085935050505092915050565b6137df816142bc565b82525050565b6137ee816142c8565b82525050565b60006137ff82614122565b6138098185614156565b935061381981856020860161438d565b61382281614559565b840191505092915050565b6138368161435a565b82525050565b60006138478261412d565b6138518185614167565b935061386181856020860161438d565b61386a81614559565b840191505092915050565b60006138808261412d565b61388a8185614178565b935061389a81856020860161438d565b80840191505092915050565b60006138b3603283614167565b91506138be8261456a565b604082019050919050565b60006138d6602683614167565b91506138e1826145b9565b604082019050919050565b60006138f9602583614167565b915061390482614608565b604082019050919050565b600061391c601c83614167565b915061392782614657565b602082019050919050565b600061393f603183614167565b915061394a82614680565b604082019050919050565b6000613962602483614167565b915061396d826146cf565b604082019050919050565b6000613985601983614167565b91506139908261471e565b602082019050919050565b60006139a8602c83614167565b91506139b382614747565b604082019050919050565b60006139cb603883614167565b91506139d682614796565b604082019050919050565b60006139ee602a83614167565b91506139f9826147e5565b604082019050919050565b6000613a11602983614167565b9150613a1c82614834565b604082019050919050565b6000613a34603083614167565b9150613a3f82614883565b604082019050919050565b6000613a57602083614167565b9150613a62826148d2565b602082019050919050565b6000613a7a602c83614167565b9150613a85826148fb565b604082019050919050565b6000613a9d602083614167565b9150613aa88261494a565b602082019050919050565b6000613ac0602283614167565b9150613acb82614973565b604082019050919050565b6000613ae3601283614167565b9150613aee826149c2565b602082019050919050565b6000613b06602183614167565b9150613b11826149eb565b604082019050919050565b6000613b29603183614167565b9150613b3482614a3a565b604082019050919050565b6000613b4c602383614167565b9150613b5782614a89565b604082019050919050565b6000613b6f601983614167565b9150613b7a82614ad8565b602082019050919050565b613b8e816142fe565b82525050565b613b9d8161432c565b82525050565b613bac81614336565b82525050565b613bbb81614346565b82525050565b6000613bcd8286613875565b9150613bd98285613875565b9150613be58284613875565b9150819050949350505050565b6000602082019050613c076000830184613769565b92915050565b6000604082019050613c226000830185613769565b613c2f6020830184613769565b9392505050565b6000606082019050613c4b6000830186613769565b613c586020830185613769565b613c656040830184613b94565b949350505050565b6000608082019050613c826000830187613769565b613c8f6020830186613769565b613c9c6040830185613b94565b8181036060830152613cae81846137f4565b905095945050505050565b6000604082019050613cce6000830185613769565b613cdb6020830184613b94565b9392505050565b60006020820190508181036000830152613cfc8184613778565b905092915050565b6000602082019050613d1960008301846137d6565b92915050565b600060a082019050613d3460008301886137e5565b613d416020830187613bb2565b613d4e6040830186613b85565b613d5b6060830185613ba3565b613d686080830184613ba3565b9695505050505050565b6000602082019050613d87600083018461382d565b92915050565b60006020820190508181036000830152613da7818461383c565b905092915050565b60006020820190508181036000830152613dc8816138a6565b9050919050565b60006020820190508181036000830152613de8816138c9565b9050919050565b60006020820190508181036000830152613e08816138ec565b9050919050565b60006020820190508181036000830152613e288161390f565b9050919050565b60006020820190508181036000830152613e4881613932565b9050919050565b60006020820190508181036000830152613e6881613955565b9050919050565b60006020820190508181036000830152613e8881613978565b9050919050565b60006020820190508181036000830152613ea88161399b565b9050919050565b60006020820190508181036000830152613ec8816139be565b9050919050565b60006020820190508181036000830152613ee8816139e1565b9050919050565b60006020820190508181036000830152613f0881613a04565b9050919050565b60006020820190508181036000830152613f2881613a27565b9050919050565b60006020820190508181036000830152613f4881613a4a565b9050919050565b60006020820190508181036000830152613f6881613a6d565b9050919050565b60006020820190508181036000830152613f8881613a90565b9050919050565b60006020820190508181036000830152613fa881613ab3565b9050919050565b60006020820190508181036000830152613fc881613ad6565b9050919050565b60006020820190508181036000830152613fe881613af9565b9050919050565b6000602082019050818103600083015261400881613b1c565b9050919050565b6000602082019050818103600083015261402881613b3f565b9050919050565b6000602082019050818103600083015261404881613b62565b9050919050565b60006020820190506140646000830184613b85565b92915050565b600060208201905061407f6000830184613b94565b92915050565b600061408f6140a0565b905061409b82826143f2565b919050565b6000604051905090565b600067ffffffffffffffff8211156140c5576140c461452a565b5b602082029050602081019050919050565b600067ffffffffffffffff8211156140f1576140f061452a565b5b6140fa82614559565b9050602081019050919050565b6000819050602082019050919050565b600081519050919050565b600081519050919050565b600081519050919050565b6000602082019050919050565b600082825260208201905092915050565b600082825260208201905092915050565b600082825260208201905092915050565b600081905092915050565b600061418e826142fe565b9150614199836142fe565b92508261ffff038211156141b0576141af61449d565b5b828201905092915050565b60006141c68261432c565b91506141d18361432c565b9250827fffffffffffffffffffffffffffffffffffffffffffffffffffffffffffffffff038211156142065761420561449d565b5b828201905092915050565b600061421c8261432c565b91506142278361432c565b925082614237576142366144cc565b5b828204905092915050565b600061424d826142fe565b9150614258836142fe565b92508282101561426b5761426a61449d565b5b828203905092915050565b60006142818261432c565b915061428c8361432c565b92508282101561429f5761429e61449d565b5b828203905092915050565b60006142b58261430c565b9050919050565b60008115159050919050565b6000819050919050565b60007fffffffff0000000000000000000000000000000000000000000000000000000082169050919050565b600061ffff82169050919050565b600073ffffffffffffffffffffffffffffffffffffffff82169050919050565b6000819050919050565b600063ffffffff82169050919050565b600067ffffffffffffffff82169050919050565b60006143658261436c565b9050919050565b60006143778261430c565b9050919050565b82818337600083830152505050565b60005b838110156143ab578082015181840152602081019050614390565b838111156143ba576000848401525b50505050565b600060028204905060018216806143d857607f821691505b602082108114156143ec576143eb6144fb565b5b50919050565b6143fb82614559565b810181811067ffffffffffffffff8211171561441a5761441961452a565b5b80604052505050565b600061442e8261432c565b91507fffffffffffffffffffffffffffffffffffffffffffffffffffffffffffffffff8214156144615761446061449d565b5b600182019050919050565b60006144778261432c565b91506144828361432c565b925082614492576144916144cc565b5b828206905092915050565b7f4e487b7100000000000000000000000000000000000000000000000000000000600052601160045260246000fd5b7f4e487b7100000000000000000000000000000000000000000000000000000000600052601260045260246000fd5b7f4e487b7100000000000000000000000000000000000000000000000000000000600052602260045260246000fd5b7f4e487b7100000000000000000000000000000000000000000000000000000000600052604160045260246000fd5b6000601f19601f8301169050919050565b7f4552433732313a207472616e7366657220746f206e6f6e20455243373231526560008201527f63656976657220696d706c656d656e7465720000000000000000000000000000602082015250565b7f4f776e61626c653a206e6577206f776e657220697320746865207a65726f206160008201527f6464726573730000000000000000000000000000000000000000000000000000602082015250565b7f4552433732313a207472616e736665722066726f6d20696e636f72726563742060008201527f6f776e6572000000000000000000000000000000000000000000000000000000602082015250565b7f4552433732313a20746f6b656e20616c7265616479206d696e74656400000000600082015250565b7f43616e6e6f7420696e697469616c697a65206d6f726520746f6b656e7320746860008201527f616e20746865206d61785f737570706c79000000000000000000000000000000602082015250565b7f4552433732313a207472616e7366657220746f20746865207a65726f2061646460008201527f7265737300000000000000000000000000000000000000000000000000000000602082015250565b7f4552433732313a20617070726f766520746f2063616c6c657200000000000000600082015250565b7f4552433732313a206f70657261746f7220717565727920666f72206e6f6e657860008201527f697374656e7420746f6b656e0000000000000000000000000000000000000000602082015250565b7f4552433732313a20617070726f76652063616c6c6572206973206e6f74206f7760008201527f6e6572206e6f7220617070726f76656420666f7220616c6c0000000000000000602082015250565b7f4552433732313a2062616c616e636520717565727920666f7220746865207a6560008201527f726f206164647265737300000000000000000000000000000000000000000000602082015250565b7f4552433732313a206f776e657220717565727920666f72206e6f6e657869737460008201527f656e7420746f6b656e0000000000000000000000000000000000000000000000602082015250565b7f4552433732314d657461646174613a2055524920717565727920666f72206e6f60008201527f6e6578697374656e7420746f6b656e2000000000000000000000000000000000602082015250565b7f4552433732313a206d696e7420746f20746865207a65726f2061646472657373600082015250565b7f4552433732313a20617070726f76656420717565727920666f72206e6f6e657860008201527f697374656e7420746f6b656e0000000000000000000000000000000000000000602082015250565b7f4f776e61626c653a2063616c6c6572206973206e6f7420746865206f776e6572600082015250565b7f456163682061646472657373206d6179206f6e6c79206d696e742078204e465460008201527f7321000000000000000000000000000000000000000000000000000000000000602082015250565b7f4e6f206d696e74657220696e2071756575650000000000000000000000000000600082015250565b7f4552433732313a20617070726f76616c20746f2063757272656e74206f776e6560008201527f7200000000000000000000000000000000000000000000000000000000000000602082015250565b7f4552433732313a207472616e736665722063616c6c6572206973206e6f74206f60008201527f776e6572206e6f7220617070726f766564000000000000000000000000000000602082015250565b7f596f7520617265206e6f7420746865206f776e6572206f66207468697320746f60008201527f6b656e0000000000000000000000000000000000000000000000000000000000602082015250565b7f4e6f206d6f726520746f6b656e7320617661696c61626c652100000000000000600082015250565b614b0a816142aa565b8114614b1557600080fd5b50565b614b21816142bc565b8114614b2c57600080fd5b50565b614b38816142d2565b8114614b4357600080fd5b50565b614b4f816142fe565b8114614b5a57600080fd5b50565b614b668161432c565b8114614b7157600080fd5b5056fe697066733a2f2f516d615965624b337a4566487066416d7652447648423562374d6d675259536563425936397059665063617432322fa264697066735822122055fb915a84faccac9b5c719104550913c6df304453f0811941529edbb55d01d764736f6c63430008040033697066733a2f2f516d4e506939336f796e776f69374e6d486d573741425467704d666151746d784b4a6f786d7058734a484e67474b2f",
  "linkReferences": {},
  "deployedLinkReferences": {}
}